:020000040000FA
:1000000010090020890100009501000097010000FF
:1000100000000000000000000000000000000000E0
:100020000000000000000000000000009901000036
:1000300000000000000000009B01000011190000FA
:100040009F0100009F0100009F0100009F01000030
:100050009F0100009F0100009F0100009F01000020
:100060009F0100009D1A0000E11A00009F0100009E
:100070009F010000000000000000000000000000E0
:100080009F0100009F0100009F0100009F010000F0
:10009000000000009F0100009F010000D91D00002A
:1000A0009F0100009F010000000000009F01000070
:1000B0009F0100009F010000000000009F01000060
:1000C00000F002F800F050F80CA030C808382418EE
:1000D0002D18A246671EAB4654465D46AC4201D180
:1000E00000F042F87E460F3E0FCCB6460126334262
:1000F00000D0FB1AA246AB4633431847082E000037
:10010000382E0000103A02D378C878C1FAD85207C6
:1001100001D330C830C101D504680C6070470000BD
:100120000023002400250026103A01D378C1FBD813
:10013000520700D330C100D50B60704710B5752948
:1001400002D100F00BF910BD632902D100F0ECFBE5
:1001500010BD732902D100F0EFFB10BD002010BDCF
:100160001FB51FBD10B510BD00F068FC1146FFF7AC
:10017000F7FF02F0F9F900F080FC03B4FFF7F2FF9B
:1001800003BC00F0B5FC00000548804705488047E7
:1001900005480047FEE7FEE7FEE7FEE7FEE7FEE76D
:1001A000AD010000111A0000C100000000B500BF41
:1001B00000BF00BF00BF00BF19481A4901601A48BC
:1001C0001A4F00F010F81A481A4F00F00CF81A48AD
:1001D0001A4F00F008F81A481A4F00F004F81048B7
:1001E0001949016000BD00B5184A0168914203D168
:1001F0000168914200D112E0154D164C0A002240D0
:100200000B0A2340D2180B0C2340D21822400B0EAD
:100210009A4203D0013D02D00168EFE7396000BD8A
:1002200080000040699655AA24011000A4000040F7
:1002300028011000A80000402C0110009C00004084
:1002400030011000A000004000000000FFFFFFFF91
:1002500003000000FF00000002480349014A034B6D
:100260007047000010050020100900201005002034
:100270000FB41CB5084B06AA7B446946009005984C
:1002800000F02FFB04460020694600F03DFB2046AD
:100290001CBC08BC04B018478D060000F8B50E461B
:1002A0000446002020622046E1688847002829D0C3
:1002B000252802D06268A16820E0E1682046002776
:1002C000884705001ED028464138192802D8012742
:1002D000FF0220353246204627602946FFF72EFFD1
:1002E000002808D0012804D0F61DF608F6000836CC
:1002F000D9E7361DD7E762682846A1689047206A8B
:10030000401CCFE7206AF8BD70B50C460546012AAF
:1003100005D02878800600D5EA69002302E0012391
:1003200005E05B1C934202D2E05C0028F9D1A86989
:10033000E618C01AA861286AC01828622846C04674
:10034000C04604E06A682078A968641C9047B442FB
:10035000F8D32846C046C04670BD0000F7B500255A
:1003600075291068009914A611D0C046C04600280F
:1003700002DA404211A608E0009909688A0701D50F
:100380000FA602E0490704D50EA6012501E0C046EC
:10039000C046009F0024243704E000F0D1FA303139
:1003A0003955641C0028F8D12B4632462146009866
:1003B00000F039FAFEBD0000000000002D00000032
:1003C0002B0000002000000030B505460B462A46F1
:1003D0001C781078521C5B1C002801D0A042F7D07A
:1003E000002C03D0002802D06D1CEFE7284630BD5A
:1003F000421E5378521C002BFBD10B78491C137002
:10040000521C002BF9D17047002203098B422CD3D8
:10041000030A8B4211D300239C464EE003460B4354
:100420003CD4002243088B4231D303098B421CD3B6
:10043000030A8B4201D394463FE0C3098B4201D3A8
:10044000CB01C01A524183098B4201D38B01C01AE0
:10045000524143098B4201D34B01C01A5241030957
:100460008B4201D30B01C01A5241C3088B4201D306
:10047000CB00C01A524183088B4201D38B00C01AB3
:10048000524143088B4201D34B00C01A5241411ADA
:1004900000D201465241104670475DE0CA0F00D0BD
:1004A0004942031000D34042534000229C460309B6
:1004B0008B422DD3030A8B4212D3FC22890112BA3C
:1004C000030A8B420CD3890192118B4208D3890114
:1004D00092118B4204D389013AD0921100E089092C
:1004E000C3098B4201D3CB01C01A524183098B420D
:1004F00001D38B01C01A524143098B4201D34B01F6
:10050000C01A524103098B4201D30B01C01A524158
:10051000C3088B4201D3CB00C01A524183088B42DF
:1005200001D38B00C01A5241D9D243088B4201D368
:100530004B00C01A5241411A00D201466346524153
:100540005B10104601D34042002B00D54942704752
:1005500063465B1000D3404201B50020C046C04650
:1005600002BD7047704770470246C80FC0078143FD
:100570004B0030B54B405B009B0D20D01923DB06B0
:10058000C91801231B05994220DB0324A407042575
:100590001346AB400BD3002B04D1EB0613409B005A
:1005A000E34204D401246407002312195941FF23B4
:1005B0001B0599420BD2C9000143500F09E0CB0241
:1005C00004D501430803024305D0054830BDFF218F
:1005D000C905084330BD084607210905884330BDD9
:1005E0000000C07F0121C9050123411842001B06FC
:1005F000D3185B0E0AD0C1100722D2068918400713
:100600005242D14201D5520089187047090208D5DB
:100610000146002A03D0C10FC907002070471046C9
:100620007047420202D000200249704707210905A5
:100630000143F4E70000F87FF0B5FF252D04C6095B
:10064000C209FF2704462E400137CB093E434840EC
:100650002A402B400746002A6BD0002B69D0AA42C3
:1006600067D0AB4265D0002800DA32460125ED059F
:1006700029432C4309022002090AD21A4B0C7F2479
:10068000E31A434C000A7C44E35C7D2424041219E1
:1006900014145B00A218884201D3521C00E04000F1
:1006A00049420C465C4324115C43DB016415E318AA
:1006B000040A5C43C502200D0C4644436419250A14
:1006C0005D432303EC0C0D46654300030019EB1852
:1006D0004C42A34201D35B18401CD4052018002BC8
:1006E00007D05B00C91804D3401C002901D1400881
:1006F00040003F2189048A4209D3002A08DC110600
:10070000090F04D0032149074018C00FC007F0BDEE
:1007100001224100120689187F2252069142F6D228
:1007200005214907C84201D59010F0BDFF20C00542
:10073000F0BD002F00DA32461648AA4207D2AB427B
:1007400005D21902090E17D0F80FC007F0BDFF251A
:1007500063002D06AB42F9D84900A942F6D8AB4256
:1007600001D1A942F2D0A94201D1002101E06100EA
:100770004908D0050843F0BD1102090EFBD0FF2047
:100780000243D005F0BD0A460146104654E700007A
:100790003A2800000000C07F0102C21504D00123E6
:1007A000DB071943002A0ADB9E239A1A02D4084663
:1007B000D0407047FF2241001206914201D900202B
:1007C0007047C017C04370471F22030C02D10F228D
:1007D00000041CD0030E01D10002083A030F01D11E
:1007E0000001121F830F01D18000921E002801DB3F
:1007F0004000521ED2055118021251181922904081
:1008000004D3491C002801D1490849000846704713
:10081000C10FC90700D04042012292071143D3E71C
:1008200001218907D0E7FFB504460D4681B0243089
:1008300000902168880604D51022E0699143216068
:1008400000E00120A84201DD471B00E000270498DA
:10085000A1697A191018081AA0612078C00602D47C
:100860002046C046C046002608E003986268A1689A
:10087000805D9047206A401C761C20620498864266
:10088000F3DB2078C0060AD52046C046C04606E005
:100890006268A16830209047206A401C2062384678
:1008A0007F1E0028F4DC07E000986268A168405DC4
:1008B0009047206A401C206228466D1E0028F3DC09
:1008C0002046C046C0462078000602D5022005B06A
:1008D000F0BD0120FBE7000001694A1C02610878B5
:1008E000704700B58FB00291002105910549019331
:1008F00079440391114604906846FFF7CFFC0FB08E
:1009000000BD0000E5FFFFFF0A681070521C0A607E
:10091000704710B54369002B02D0C046C04601E0C5
:10092000FFF7F2FC012010BD1278014624310A7055
:1009300000224A700122ECE711680022D243E8E766
:1009400001468008081A02091018020A1018020C41
:100950001018C008820012185200891A01E0401CC9
:100960000A390A29FBD27047F8B5224C4E00069D81
:10097000A6420AD8A64201D1002806D15E00A642AE
:1009800003D8A6420AD1002A08D00D242404254207
:100990002CD02946002000F02FF8F8BD0C461C434F
:1009A0000CD4994202D0EFF30080F8BD904202D0FF
:1009B000EFF30080F8BDEFF30080F8BD09242407B1
:1009C000E5008B4206D0EFF30080A043591A06D20F
:1009D000284304E0101A05D3EFF30080A04380F30E
:1009E0000088F8BDEFF30080A043F1E7009500F028
:1009F0001BF8F8BD0000E0FFC80212D54803400F05
:100A0000002804D0C803C043012188407047EFF399
:100A100000800001000903210907084380F30088D2
:100A2000704700207047000010B500200249029A6C
:100A300000F02BF810BD00000000F87F754600F0B4
:100A400053F8AE46050069465346C008C0008546C7
:100A500018B020B5FFF700FC60BC00274908B64677
:100A60000026C0C5C0C5C0C5C0C5C0C5C0C5C0C5BD
:100A7000C0C5403D49008D46704710B50446C0468C
:100A8000C0462046FFF779FB10BD10B50C46110794
:100A9000090F092904D00A290AD008290CD104E039
:100AA00011460820FFF7A8FF06E0510606D501E031
:100AB000510601D50120C007214610BDD10607D53A
:100AC00001010909CC084907000E0006044309E0AA
:100AD000410F20024907000A0143200E00061D2293
:100AE000D14101430846E7E700487047AC040020C5
:100AF00001491820ABBEFEE726000200704770B522
:100B00008C180578401C6B075B0F01D10378401CE3
:100B10002A1106D10278401C03E00678401C0E70B2
:100B2000491C5B1EF9D12B0705D40023521E0DD49E
:100B30000B70491CFAE70378401CCB1A921C03E0A7
:100B40001D780D70491C5B1C521EF9D5A142D8D3EB
:100B5000002070BD03B40148019001BDB101002027
:100B600003B40148019001BD0100002000200149AB
:100B70000870704708020020012001490870704782
:100B8000080200201CB50021684601708170417088
:100B9000C170017169460F2000F09DF800210F20FF
:100BA00000F0CCFC1CBD0000012189070968C807C2
:100BB000C00F002803D007490122920711600021CD
:100BC000C943054A9160002802D000211206116035
:100BD000704700009669AA554000004000B50146E4
:100BE0000B0001F0DBFA2E181A1C1E2022242628E6
:100BF0002A2C2E30323436383A3C3E404244464865
:100C00004A4C4E50525456585A5C5E606264666854
:100C10006A6C6E70727400205BE0012059E0022063
:100C200057E0032055E0042053E0052051E0062062
:100C30004FE007204DE008204BE0092049E00A2062
:100C400047E00B2045E00C2043E00D2041E0002070
:100C50003FE001203DE002203BE0032039E004209A
:100C600037E0052035E0062033E0072031E008209A
:100C70002FE009202DE00A202BE00B2029E00C209A
:100C800027E00D2025E00E2023E00F2021E010209A
:100C90001FE011201DE012201BE0132019E014209A
:100CA00017E0152015E0162013E0172011E018209A
:100CB0000FE019200DE01A200BE01B2009E01C209A
:100CC00007E01D2005E01E2003E01F2001E00020BA
:100CD00000BF00BF00BD30B505460C462078012896
:100CE0000CD10121284600F0F5FB0121284600F037
:100CF00073F80021284600F095F81FE000212846EF
:100D000000F0E8FB6178284600F066F8A1782846F4
:100D100000F088F86078002808D1E178284600F0D3
:100D20003DFB2179284600F023F807E06179284649
:100D300000F09CFBA179284600F064FB30BD000068
:100D400030B504462046FFF749FF05460D2C02DC6E
:100D50000648026802E00548803802681046E8400C
:100D60000246D207D20F104630BD0000800400407A
:100D700030B505460C462846FFF730FF02460D2DDC
:100D800011DC002C07D113484068012191408843B1
:100D9000104948601CE00F48406801219140084319
:100DA0000C49486014E0002C09D10A488038416899
:100DB00001209040814307488038416008E00548A1
:100DC00080384068012191400843024980394860D9
:100DD00030BD0000C004004030B505460C46284632
:100DE000FFF7FCFE02460D2D0BDC012C04D1012087
:100DF00090400B49886111E0012090400849C8618A
:100E00000CE0012C05D10120904005498039886112
:100E100004E00120904002498039C86130BD0000E3
:100E20008004004030B50246002906D0012906D0D2
:100E3000022906D0032908D105E0002007E001209F
:100E400005E0022003E0032001E0002000BF00BF16
:100E5000130001F0A3F92E18222D3A4754616E7B3E
:100E600085909DAAB7C4F0FDEDECEBEAE9E8E7E672
:100E7000E5E4E3E2E1E0DFDEDDDCDBDAD9D8D7D69A
:100E8000D5D4D3D2D1D0FC4B5B6A9B089B0084079E
:100E9000A40F2343F84C63627BE2F74B5B6A302478
:100EA000A343040130252C402343F34C636270E2DA
:100EB000F14B5B6A03242402A343040203252D02A1
:100EC0002C402343EC4C636263E2EB4B5B6A0324EC
:100ED0002403A343040303252D032C402343E64CA2
:100EE000636256E2E44B5B6A03242404A3430404D4
:100EF00003252D042C402343DF4C636249E2DE4B83
:100F00005B6A03242405A343040503252D052C4017
:100F10002343D94C63623CE2D74B5B6A032424062B
:100F2000A343040603252D062C402343D24C6362C1
:100F30002FE2D14B5B6A03242407A3430407032554
:100F40002D072C402343CC4C636222E2CA4B9B6AA0
:100F50009B089B008407A40F2343C74CA36218E29D
:100F6000C54B9B6A3024A343040130252C40234306
:100F7000C14CA3620DE2C04B9B6A03242402A3432D
:100F8000040203252D022C402343BB4CA36200E244
:100F9000B94B9B6A03242403A343040303252D03B5
:100FA0002C402343B44CA362F3E1B34B9B6A03246C
:100FB0002404A343040403252D042C402343AE4CF6
:100FC000A362E6E1AC4B9B6A03242405A34304051A
:100FD00003252D052C402343A74CA362D9E1A64B42
:100FE000803B5B6A9B089B008407A40F2343A24CB1
:100FF000803C6362CDE1CBE1BDE1AFE1A1E193E1F2
:1010000085E177E16BE160E152E144E136E123E122
:1010100013E103E1F5E0E8E0D8E0C8E0B8E0A8E0DB
:1010200098E088E07AE06DE05DE04DE03DE02DE0A5
:101030001DE00DE0FFE7904B803B5B6A3024A3434B
:10104000040130252C4023438B4C803C6362A0E19B
:10105000894B803B5B6A03242402A34304020325DB
:101060002D022C402343844C803C636291E1824BEF
:10107000803B5B6A03242403A343040303252D035D
:101080002C4023437C4C803C636282E17A4B803B62
:101090005B6A03242404A343040403252D042C4089
:1010A0002343754C803C636273E1734B803B5B6A06
:1010B00003242405A343040503252D052C402343C5
:1010C0006D4C803C636264E16B4B803B5B6A032444
:1010D0002406A343040603252D062C402343664C17
:1010E000803C636255E1644B803B5B6A03242407C8
:1010F000A343040703252D072C4023435E4C803C6B
:10110000636246E15C4B803B9B6A9B089B008407C3
:10111000A40F2343584C803CA3623AE1564B803BDA
:101120009B6A3024A343040130252C402343524CB6
:10113000803CA3622DE1504B803B9B6A0324240238
:10114000A343040203252D022C4023434A4C803C38
:10115000A3621EE1484B803B9B6A03242403A34304
:10116000040303252D032C402343434C803CA362FE
:101170000FE1414B803B9B6A03242404A3430404F6
:1011800003252D042C4023433B4C803CA36200E10B
:10119000394B803B9B6A03242405A34304050325A4
:1011A0002D052C402343344C803CA362F1E0324BAC
:1011B000803B9B6A03242406A343040603252D06D3
:1011C0002C4023432C4C803CA362E2E02A4B803B22
:1011D0009B6A03242407A343040703252D072C40FF
:1011E0002343254C803CA362D3E0234B803BDB6A46
:1011F0009B089B008407A40F23431F4C803CE362A1
:10120000C7E01D4B803BDB6A3024A343040130253B
:101210002C402343184C803CE362BAE0164B803BE1
:10122000DB6A03242402A343040203252D022C407D
:101230002343114C803CE362ABE00F4B803BDB6A05
:1012400003242403A343040303252D032C40234339
:10125000094C803CE3629CE0074B803BDB6A032443
:101260002404A343040403252D042C402343024CEF
:10127000803CE3628DE0000080040040464BDB6A66
:1012800003242405A343040503252D052C402343F3
:10129000414CE3627DE0404BDB6A03242406A34318
:1012A000040603252D062C4023433B4CE36270E0EB
:1012B000394BDB6A03242407A343040703252D07C6
:1012C0002C402343344CE36263E0334B1B6B9B089D
:1012D0009B008407A40F23432F4C236359E02E4B1C
:1012E0001B6B3024A343040130252C4023432A4C9C
:1012F00023634EE0284B1B6B03242402A343040208
:1013000003252D022C402343234C236341E0224B31
:101310001B6B03242403A343040303252D032C4048
:1013200023431D4C236334E01B4B1B6B0324240419
:10133000A343040403252D042C402343164C2363AC
:1013400027E0154B1B6B03242405A3430405032549
:101350002D052C402343104C23631AE00E4B1B6BCE
:1013600003242406A343040603252D062C4023430F
:10137000094C23630DE0084B1B6B03242407A34394
:10138000040703252D072C402343034C236300E06F
:1013900000BF00BF30BD00000004004030B505466E
:1013A0000C462846FFF71AFC02460D2D11DC002CD6
:1013B00007D11348806B012191408843104988630D
:1013C0001CE00F48806B0121914008430C49886361
:1013D00014E0002C09D10A488038816B012090402C
:1013E000814307488038816308E005488038806B76
:1013F00001219140084302498039886330BD0000D3
:101400008004004030B505460C462846FFF7E6FB51
:1014100002460D2D11DC002C07D113480068012174
:1014200091408843104908601CE00F480068012182
:10143000914008430C49086014E0002C09D10A4887
:10144000803801680120904081430748803801605E
:1014500008E00548803800680121914008430249AE
:101460008039086030BD0000C004004030B505463A
:101470000C462846FFF7B2FB02460D2D11DC002C6E
:1014800007D11348C06B0121914088431049C863BC
:101490001CE00F48C06B0121914008430C49C86310
:1014A00014E0002C09D10A488038C16B012090401B
:1014B000814307488038C16308E005488038C06B25
:1014C00001219140084302498039C86330BD0000C2
:1014D0008004004030B505460C462846FFF77EFBE9
:1014E00002460D2D11DC002C07D11348406B012161
:1014F00091408843104948631CE00F48406B01212C
:10150000914008430C49486314E0002C09D10A4873
:101510008038416B01209040814307488038416307
:1015200008E005488038406B01219140084302499A
:101530008039486330BD00008004004030B5054666
:101540000C462846FFF74AFB02460D2D0BDC012C0A
:1015500004D1012090400B49886011E001209040A7
:101560000849C8600CE0012C05D1012090400549D4
:101570008039886004E00120904002498039C860C9
:1015800030BD00008004004010B5054800F0A6FE04
:10159000044800F0F7FB7D20000100F09FFE10BD25
:1015A000B80B0000EF02002008B5002000902C4B83
:1015B00000222CA12C4800F0FFFD002804D12B486C
:1015C0000078401C29490870254B002225A1284895
:1015D00000F0F2FD0090002804D124480078401C5F
:1015E00022490870214800780A2804DD00201F499C
:1015F000087001F0E5F96846007801281DD1002047
:101600001A4908701B4800F0BDFB1920400100F08A
:1016100065FE194B002219A11B4800F0CDFD00907A
:1016200069460878012817D0184800F0ABFB0A205B
:1016300000F054FE002000900EE0154800F0A2FBE0
:10164000642000F04BFE114800F09CFB7D20C000A0
:1016500000F044FE002000906846007808BD0000BD
:10166000881300004F4B00007F0200203A02002048
:10167000910200209C02002010270000434F4E4E94
:10168000454354204F4B0000A702002019030020BF
:101690000B03002010B501F071F901F013FB01F00C
:1016A000A3FA01F093FAFFF76DFA00F00BFB7D202F
:1016B000C00000F013FEFFF75FFA7D20000100F08C
:1016C0000DFEFFF753FAE120400201F0F1F910BDE1
:1016D00030B50B460021002A21D0154C03252D02E0
:1016E00064198510AD0061598407E50EFF24AC40F4
:1016F0000D46A54329469C07240E8507ED0EAC40F8
:1017000021430B4C03252D0264198510AD00615156
:10171000C506ED0E0124AC40054D2C6006E0C50663
:10172000ED0E0124AC40024D80352C6030BD000030
:1017300000E100E070B51C46002807D1674B5B68EC
:1017400001252D03AB43654D6B6070BD644B0125D6
:10175000AD072B60002901D0012913D15F4B5B68D5
:101760009B03DB0F002B0DD15C4B5B680225AB4369
:101770009B1C5A4D6B6000BF584B5B689B03DB0F93
:10178000002BF9D0032905D0042903D0052901D065
:10179000062919D1514B5B68DB03DB0F002B13D1FA
:1017A0004E4B5B685B085B005B1C4C4D6B602B46D3
:1017B0001B680425AB43494D2B6000BF474B5B685A
:1017C000DB03DB0F002BF9D00B0000F0E7FC070573
:1017D0000D18232E39444D00404B5B6807252D0220
:1017E000AB433E4D6B6040E03C4B5B6807252D02F0
:1017F000AB43FF33FF330233384D6B6035E0374B7B
:101800005B6807252D02AB4303252D025B19334D81
:101810006B602AE0314B5B6807252D02AB43012545
:10182000AD025B192D4D6B601FE02C4B5B680725EB
:101830002D02AB4305252D025B19284D6B6014E08A
:10184000264B5B6807252D02AB4303256D025B1910
:10185000224D6B6009E0214B5B6807252D02AB43ED
:101860005B191E4D6B6000E000BF00BF1B4B5B6847
:101870000125ED02AB43D5020126F60235402B438C
:10188000164D6B602B465B686D14AB43134D6B605C
:101890002B465B68AD14AB435B19104D6B6000BF0A
:1018A0000E4B5B685B03DB0F002BF9D0012C07D1DB
:1018B0000A4B1B682502AB435B19084D2B6006E001
:1018C000064B1B68FF250135AB43044D2B600023FD
:1018D0000125AD072B6000BF37E700004000004046
:1018E0009669AA55084901229207116007490968BB
:1018F000890889008207920F1143044A1160002170
:1019000012061160704700009669AA554000004019
:1019100010B524480068002804D022480068401E02
:101920002049086020480068002804D01E4800684C
:10193000401E1D4908601D480078012802D1022080
:101940001B4908611B4800681A4800687D21C900CE
:10195000884221D30120174908601748C068401CFD
:101960001549C86015480068401C144908603B21AF
:1019700012480068FEF748FD002904D110480068AD
:10198000401C0F4908600F480F49086000200F49AC
:10199000C8600D49086004E006480068401C05491D
:1019A000086010BDFC0100200C020020080200208D
:1019B0000004004010020020280300200002002044
:1019C0000402002051E5CC1A001D0040001C00401C
:1019D000014600200D4B0A685A6100229A610A797B
:1019E000002A02D00422104303E0042302469A4353
:1019F00010464A79002A02D00222104303E0022353
:101A000002469A431046014A1061704700E000E028
:101A10001FB5FFF7C9F80020FFF764FF01231A463E
:101A200019461846FFF786FE154801218907086008
:101A30001448006807210903884312490860002000
:101A40000906086001216846017341730E4802903F
:101A500002A8FFF7BDFF0D480069012108430B49AB
:101A600008610B480B4908600B480090002168464C
:101A70000171012141710021817100F057FB1FBDEF
:101A80009669AA554000004080BB000000E000E0DD
:101A900051E5CC1A001D00401405000010B50121CD
:101AA0000C4800F07CF8002812D00121094800F011
:101AB00069F809480068401C074908600846006842
:101AC0000649884204D300200349086000F0C2FBA5
:101AD00010BD0000002400402C020020E70300009D
:101AE00010B501210C4800F05AF8002813D001214C
:101AF000094800F047F809480068401C0749086099
:101B0000084600680649884205D300200549086058
:101B1000014800F039F810BD0028004024020020E0
:101B2000E70300002802002010B5026906239A434B
:101B30000B785B00062423401A43026102690823E4
:101B40009A434B78DB00082423401A430261026960
:101B500030239A438B781B01302423401A430261BF
:101B60000269C0239A43CB789B01C02423401A43C7
:101B70000261C268120A12020B795B1EDBB21A43C1
:101B8000C26010BD416270470169490849000161A6
:101B90007047016949084900491C016170470246C4
:101BA0000020536A0B40002B01D0012000E00020F0
:101BB0007047002A03D0036A0B43036202E0036A02
:101BC0008B430362704710B5026903231B029A43DB
:101BD0000B020324240223401A43026110BD026950
:101BE00001231B049A43D21802610268120C1204EA
:101BF0008BB21A430260026901231B049A430261FB
:101C00007047026B120C12048BB21A4302637047C6
:101C100070B500202449087024490870244800F059
:101C2000B1F8642000F05AFB224800F0ABF81A200B
:101C300000F09AF87D2189011FA000F0F7FB05460E
:101C4000012D2FD100240020174908701749087072
:101C50001FE01848005D7B2804D113480078401C21
:101C6000114908701348005D7D2804D10F480078A1
:101C7000401C0E490870601CC4B20B4800780B4928
:101C80000978884205D108480078002801D0012051
:101C900070BDDB2C03DA0748005D0028D9D1054868
:101CA00000F070F80020F3E731020020320200203B
:101CB000FE02002058030020524543562046524F52
:101CC0004D3A000000B587B000216846017501213A
:101CD000817500214175C1750121017605A9252075
:101CE000FEF7F9FF002168460175012181754175F4
:101CF00000214176817605A92420FEF7ECFFE12042
:101D0000400203900121684601740021C1710172F3
:101D100001714171817101A9124800F041F900215E
:101D2000104800F0FBF900210E4800F0EDF9012207
:101D300011040C4800F02AF9012211461720FFF780
:101D4000C7FC084800680121090488434018054978
:101D500008600846006840084000401C08600120F8
:101D600007B000BD0060004000BF0549C969890493
:101D7000C90F0029F9D102492039087070470000C5
:101D80004060004000B5024600200D4908700D4932
:101D9000087001200C4908700C4908700C49087043
:101DA00003E01078FFF7E0FF521C10780028F8D10C
:101DB00000BF084840698006C00F0028F9D100BD67
:101DC00038020020370200203302002034020020B5
:101DD000360200200060004010B501210904384897
:101DE00000F0CCF800286AD001210904344800F042
:101DF000BDF8002863D000203249087030482030F8
:101E000000793149087031480078002825D03048E1
:101E100030490978405C2C490978884219D12D480D
:101E20000078401C2B49087029480978405C0D282F
:101E30000BD0274827490978405C0A2805D0244858
:101E400024490978405C002839D100201F490870D6
:101E500035E000201F49087031E01B480078202839
:101E60000EDB194800787F280ADC174800781A49E9
:101E70001A4A1278885419480078401C174908708B
:101E8000114800787B2804D115480078401C14497B
:101E900008700D4800787D2804D112480078401C55
:101EA000104908700E4800780E490978884206D11A
:101EB0000B480078002802D000200B49087010BDA4
:101EC0000060004033020020300200203402002075
:101ED000340400203802002058030020370200207C
:101EE000310200203202002035020020024617484D
:101EF00002600020164B1870164B18700120164B0C
:101F00001870164B1870164B187004E00F480068D4
:101F1000002800D17047104800780028F6D100BF93
:101F2000104840698004C00F0028F9D109480078A2
:101F30000028F5D00748017804E000200A4B5854E7
:101F4000481C81B2DB29F8DB0120E3E7FC0100201B
:101F50003802002037020020330200203402002023
:101F60003602002000600040580300200246002096
:101F7000D3690B40002B00D001207047024600209F
:101F800093690B40002B00D001207047012A03D138
:101F900083690B43836102E083698B4383617047EC
:101FA000F0B585B005460C460027207B01280ED1F0
:101FB000A1680801FEF734FC039051480068FEF761
:101FC0002FFC02900399FEF737FB074634E0207B95
:101FD00002280ED1A1684801FEF722FC0390484870
:101FE0000068FEF71DFC02900399FEF725FB0746EB
:101FF00022E0207B03280ED1A1688801FEF710FCA7
:1020000003903F480068FEF70BFC02900399FEF72F
:1020100013FB074610E0207B04280DD1A168C801FE
:10202000FEF7FEFB039036480068FEF7F9FB0290CE
:102030000399FEF701FB07463846FEF7D3FA002264
:10204000304B0191009000F0B3FE02D200202D49E8
:1020500002E03846FEF7C6FA03910290FEF784FAD2
:1020600007468321C905384600F0D4FE0390FEF7E9
:1020700093FB06466868072109028843217B090211
:10208000072212021140084368602E61286801216E
:102090004903884321784903012252031140084330
:1020A000286028680F2109028843617809020F22FD
:1020B000120211400843286028680121090388435F
:1020C000A1780903012212031140084328602868FF
:1020D0000F2109068843E17809060F2212061140F4
:1020E00008432860286801210907884321790907E6
:1020F0000122120711400843286005B0F0BD00001E
:10210000180200200000F03F10B5426830239A43C7
:102110000B01302423401A43426010BD42689208EC
:1021200092008B079B0F1A434260704770B50446BC
:10213000A079002802D02068450108E07D21C9006F
:1021400014480068FEF760F92168484305461248C4
:102150000560806808218843A179C90008221140E0
:1021600008430D4988600846806802218843217928
:1021700049000222114008430749886008468068E8
:1021800004218843617989000422114008430249EF
:10219000886070BD18020020001C004030B47446F6
:1021A000641E2578641CAB4204D3635D5B00E318B6
:1021B00030BC18471D46F8E7FFB581B00546164606
:1021C00000272EE0002404E0002018490855601C78
:1021D000C4B2772CF8DB2A4615A11448FEF748F85C
:1021E0002846FFF7CFFD0498FFF780FE012816D19F
:1021F000C82000F073F80F480299FEF7E5F80028B0
:1022000002D0012005B0F0BD0B4800F067F8094886
:102210000299FEF7D9F8002801D00120F2E7781CD6
:10222000C7B2701C8742CDDB0020EBE734040020EE
:10223000257300005803002088130000002004E0EC
:102240000021034A1154411C88B2DB28F8DB704797
:102250005803002010B500F07BF900280BD00120B6
:1022600000F051FD022000F04EFD032000F04BFD78
:10227000FEF77CFC2EE0FEF77FFC00F05FF9002803
:1022800012D0FEF773FC012000F03DFD7D20C00060
:1022900000F024F8022000F036FD032000F033FDAA
:1022A00000200D49087015E0032000F056FD0120C4
:1022B00000F053FD08480078032806DD032000F0F5
:1022C00022FD022000F049FD04E003480078401C94
:1022D0000149087010BD0000140200200349086085
:1022E00000BF024909680029FBD170470C02002099
:1022F000704700003EB50446002002900190009017
:1023000001201049086000200F490860012000F0FA
:10231000CDFB0E48FFF73DFC0CE01420FEF710FD4E
:10232000029001990298884204D00098401C0090C5
:1023300002980190034800680028EED100982060C0
:1023400001203EBD28020020240200200028004079
:102350003EB50446002002900190009001201049F3
:10236000086000200F490860022000F09FFB0E4823
:10237000FFF70FFC0CE01620FEF7E2FC029001993B
:102380000298884204D00098401C00900298019066
:10239000034800680028EED10098206001203EBD6F
:1023A00028020020240200200028004070B50025EB
:1023B000112119A000F07AF80646002E01D100F094
:1023C000FFFAC820FFF78AFF0025164C09E02078A5
:1023D000302803DB2078392800DC04E0641C681C0A
:1023E00085B2DB2DF3DB00BF207830280FDB2078AF
:1023F00039280CDC002505E021780B484155641C88
:10240000681C85B20F2DF7DB00210748C173C82077
:10241000FFF764FF70BD000041542B47534E0D0A77
:1024200000000000580300204803002070B5054656
:102430000C460A262A4615A11548FDF719FF26461F
:1024400000201449087014490870012013490870CD
:10245000134908701349087000BF002E01D10020F5
:1024600070BD0E4800780028F7D1264600BF002E28
:1024700001D10020F4E70B480078002800D1EFE7F5
:10248000094800780028F2D10120E9E7257300000F
:1024900034040020380200203702002033020020DC
:1024A00034020020360200203502002070B50446B8
:1024B0000D46224611A11248FDF7DAFE2046FFF72D
:1024C00061FC00200F4908700F49087008700D4921
:1024D000087001200D4908700D4908700D490870F9
:1024E0000A49087000BF094800780028FBD100BFE6
:1024F00004480078A842FBDB012070BD2573000072
:10250000340400203702002038020020330200206B
:1025100034020020360200207CB505460C4600201F
:102520000190009001A8FFF7E5FE6846FFF710FF55
:10253000019828600098206001207CBD10B5112012
:10254000FEF7FEFB002801D0012010BD0020FCE7B3
:1025500004480068C006C00F002801D00120704761
:102560000020FCE70004004086B00024FFF750FA8A
:1025700000F012FAFFF78EF839E01D4880691D4916
:102580000968884222D200201A49086000BFFEF77D
:10259000FBFFFFF709F8012810D10024FFF74EFEDA
:1025A000154800F02DF8FFF733FB012803D112483E
:1025B00000F0BAF804E0601CC4B201E0601CC4B2D0
:1025C000052C01DD00F0FCF9002CE0D100F02EFA22
:1025D000FFF740FE7D20C000FFF780FE044807A102
:1025E000C26801A8FDF744FE01A8FFF7CBFBC4E7D2
:1025F0002803002000020020580300202575000059
:1026000030B591B0054600200390029002A903A8BE
:10261000FFF782FF2B480069002803D12948006991
:10262000012802D000202749086127A22AA12846B4
:10263000FDF71EFE84B22BA104A8FDF719FE0019B8
:1026400084B204A92846FDF7D3FE1E48006902465D
:10265000303227A104A8FDF70BFE001984B204A9AB
:102660002846FDF7C5FE1748007DC007C00F303073
:102670000090144840690221084040080346303366
:1026800010484069042108408008024630321BA1EE
:1026900004A8FDF7EDFD001984B204A92846FDF752
:1026A000A7FE084840680090029B039A17A104A85F
:1026B000FDF7DEFD001984B204A92846FDF798FE57
:1026C00011B030BD2803002031323334353637386D
:1026D00039303030303000007B22534E223A2225F0
:1026E00073222C0022434D44223A223031222C0006
:1026F0002254595045223A25632C00002256532279
:102700003A22256325632563222C0000225444537A
:1027100031223A25752C2254445332223A25752C05
:102720002246223A25757D00F1B586B000250020AD
:1027300004900026039000270290019000900698D4
:10274000059082488249086000208249C86080491B
:10275000086081A10598FDF737FE041E04D0A0791A
:102760003038C0B2049003E06806050E012005432E
:1027700005947BA10598FDF727FE041E11D00026C5
:10278000641D2078312801D1301DC6B2607831280F
:1027900001D1B01CC6B2A078312806D1701CC6B2D7
:1027A00003E06806050E0120054305946DA1059818
:1027B000FDF70AFE041E18D0E41C0020039012E06E
:1027C000207830280EDB207839280BDC0A2103988A
:1027D000484303902078303803994018C0B20390E2
:1027E000641C00E000E0EBE703E06806050E012052
:1027F000054305945CA10598FDF7E6FD041E15D080
:10280000241D002710E0207830280CDB20783928A0
:1028100009DC38460A214843074620783038C01979
:10282000C7B2641C00E000E0EDE703E06806050EB7
:102830000120054305944DA10598FDF7C5FD041E33
:1028400017D0241D0020029011E0207830280DDBE5
:10285000207839280ADC0A2102984843029020781F
:102860003038029940180290641C00E000E0ECE768
:1028700003E06806050E0120054305943CA1059878
:10288000FDF7A2FD041E17D0241D0020019011E0C9
:10289000207830280DDB207839280ADC0A210198BD
:1028A0004843019020783038019940180190641C09
:1028B00000E000E0ECE703E06806050E01200543B8
:1028C00005942CA10598FDF77FFD041E17D0241D4B
:1028D0000020009011E0207830280DDB2078392886
:1028E0000ADC0A210098484300902078303800998B
:1028F00040180090641C00E000E0ECE703E068068C
:10290000050E01200543002D1ED10498C0B21A49BE
:102910000861F0B248610398C0B28861F8B2C8613A
:10292000029808600198C860009888600C211248DD
:10293000FEF710F94620FFF7D1FC0C210E48FEF7F8
:1029400009F9012007B0F0BD0020FBE751E5CC1AE2
:10295000001D0040001C004054595045000000007C
:102960005653000054000000465400005346000037
:102970005254000045540000280300201820054947
:1029800048600846406B1821884302494863182074
:10299000486170470004004010B50C221121C902A3
:1029A0000648FEF7DDF8C820FFF798FC0C2211213D
:1029B000C9020248FEF7D4F810BD00002803002029
:1029C0000C211548FEF7C6F8C820FFF787FC0C213C
:1029D0001148FEF7BFF8012040061049C8601048B2
:1029E000FFF77CFC0E48FFF779FC0D48FFF776FCFB
:1029F0000B48FFF773FC0A48FFF770FC0848FFF725
:102A00006DFC00BFBFF34F8F06480749C860BFF396
:102A10004F8F00BF00BFFEE72803002000040040E6
:102A2000881300000400FA0500ED00E010B51E4810
:102A3000406904210840002803D0012000F08DF9EE
:102A400002E0012000F05FF91748406902210840C8
:102A5000002803D0022000F080F902E0022000F0FC
:102A600052F91148007DC007C00F002803D0032091
:102A700000F073F902E0032000F045F90A4800690C
:102A8000012801D100F002F907480069002801D1AE
:102A900000F00AF9FFF72CFC0446034840680019CF
:102AA0000149486010BD0000280300207047000065
:102AB00010B5044630493148FDF79AFC0120400624
:102AC0002F49C8616420FFF709FC012040062C490A
:102AD00088602C48FFF702FC2B48FFF753F964206D
:102AE000FFF7FCFB2948FFF7F9FB2848FFF7F6FB47
:102AF0002648FFF7F3FBFEF73FF87D20C000FFF705
:102B0000EDFBFEF733F8FFF799FB1F48FFF73AF9A3
:102B10007D20C000FFF7E2FB6420FFF7DFFB1B4BCB
:102B20000A221BA11B48FFF747FB184B0A2218A1DA
:102B300019A0FFF741FB154B0A2215A11A48FFF710
:102B40003BFB124B022212A118A0FFF735FB0F48E6
:102B5000FFF7C4FB1B48FFF7C1FB1B48FFF712F947
:102B60007D200001FFF7BAFBFFF720FC7D20C000AD
:102B7000FFF7B4FB10BD0000D5020020A702002023
:102B800000040040701700003B0200208813000082
:102B90004F4B00004002002041542B434D4744411D
:102BA0003D360D0A000000007302002041542B4303
:102BB0004D4744413D2244454C20414C4C220D0A96
:102BC00000000000B80B0000EF020020FF204130A1
:102BD000044948610846406BFF214131884301495F
:102BE00048637047000400401CB50021684601702E
:102BF0008170C1700120019068464170694620488B
:102C0000FEF792FF02211E48FEF7DDFF00211C485F
:102C1000FEF7E5FF1B491A48FEF7F3FF01221146B4
:102C20001748FEF7C6FF012211460A20FEF750FDA5
:102C30000021684601708170C170012001906846D2
:102C4000417069461048FEF76FFF02210E48FEF7FB
:102C5000BAFF00210C48FEF7C2FF0A490A48FEF7F6
:102C6000D0FF012211460848FEF7A3FF01220221EE
:102C70000920FEF72DFD0448FEF78BFF1CBD000068
:102C80000028004080BB00000024004010B505482B
:102C9000406804490968884202D3002000F033F8F4
:102CA00010BD00002803002010B50548C068044985
:102CB0008968884202D3002000F025F810BD00008A
:102CC000280300201CB50021684601708170417006
:102CD000C170017169461920FDF7FDFF69461A2090
:102CE000FDF7F9FF69461B20FDF7F5FF00211920CC
:102CF000FEF724FC00211A20FEF720FC00211B20F7
:102D0000FEF71CFC1CBD10B50446002C06D0012C9F
:102D100011D0022C14D0032C1CD116E00021192054
:102D2000FEF70CFC00211A20FEF708FC00211B20F6
:102D3000FEF704FC0FE000211920FEF7FFFB0AE07C
:102D400000211A20FEF7FAFB05E000211B20FEF708
:102D5000F5FB00E000BF00BF10BD10B50446002C1D
:102D600006D0012C11D0022C14D0032C1CD116E05B
:102D700001211920FEF7E2FB01211A20FEF7DEFBFC
:102D800001211B20FEF7DAFB0FE001211920FEF7DD
:102D9000D5FB0AE001211A20FEF7D0FB05E0012156
:102DA0001B20FEF7CBFB00E000BF00BF10BD000002
:102DB00070B501250C002D051C4310D4EC4206D43F
:102DC000AC420AD4994200D070BD904270BDE94235
:102DD00017D4EB4215D4994270BD894270BDEC42C4
:102DE00006D5AC42F9D58B4200D070BD824270BD91
:102DF0006D004C00EC4204D25C00EC4201D28B42EC
:102E000070BD034C30B4FDF7AFFD30BC70BD00BFEA
:102E10001900160470B5420064414B005C41120E6B
:102E200039D01B0E38D0FF2A3CD0FF2B3AD04002BD
:102E30004902400A490A060045184E43000A090A99
:102E4000D2184843ED017F3A0104731A4019190C56
:102E50004318990F04D001215B0849075B1A521CE3
:102E6000D80904D3401CF50301D19D0607D0FF2AE1
:102E700008D2D50506D0E4072043401970BD0125CE
:102E8000A843F4E7002A01DCE00770BD2402FF201C
:102E90002043C00570BD1B0EFF2A03D0FF2B01D0BD
:102EA000E00770BDFF2645003606B54206D84D0046
:102EB000B54203D8D218FF2A00D0E7E7004870BD1A
:102EC0000000C07F8182838485868788898B8C8D72
:102ED0008E8F919293959697999A9C9D9FA0A2A36D
:102EE000A5A7A8AAACAEB0B2B3B5B7B9BCBEC0C2B4
:102EF000C5C7C9CCCED1D4D7D9DCDFE2E6E9ECF046
:102F0000F3F7FAFE342F000000000020FC0100005F
:102F10000401000030310000FC0100202C01000001
:102F2000FE0A0000C831000028030020E805000068
:102F30002001000070B503460C461E462546002AB7
:102F400001D1002070BD002105E028683060361DE9
:102F50002D1D481CC1B29142F7DB0120F2E70000B1
:102F6000A520124A10611046006840084000401C2D
:102F70001060104600681022904310300B4A106019
:102F8000002108E0094800688006C00F002800D032
:102F900004E0481C81B206488142F3DB00BF0448CC
:102FA000814201D0012070470020FCE7000800406A
:102FB000FFFF000070B503460C46234840683F25DC
:102FC000AD02A843A5023F26B602354028431E4D58
:102FD000686028464068FF25AD00A8439D00FF2695
:102FE000B60035402843184D68602846826017486F
:102FF000E860002108E014484069C007C00F0028BD
:1030000000D104E0481C81B211488142F3DB00BFCB
:103010000F48814201D1002070BD002108E00A481C
:1030200040694007C00F002800D004E0481C81B26E
:1030300007488142F3DB00BF0548814201D10020EF
:10304000EAE70120E8E7000000080040A25D000078
:10305000FFFF0000A5200E4A1061104600681022F4
:1030600090430B4A1060002107E009480068800681
:10307000C00F002800D103E0491C06488142F4D368
:1030800000BF0448814201D0012070470020FCE7C6
:1030900000080040FFFF0000F8B504460D46164644
:1030A00000BFEFF31080074672B6FFF759FF002804
:1030B00000D111E0324629462046FFF77BFF002869
:1030C00000D109E0FFF7C6FF002800D104E0384630
:1030D00000F02AF80120F8BD384600F025F862B665
:1030E0000020F8E7F3B581B005462F460D48281AB1
:1030F0008003040C2046E117890F09188C10002664
:103100000AE0A119C8B222213A68FFF7C5FF0128D9
:1031100002D1701C86B23F1D02988642F1DB01206D
:10312000FEBD00002803002080F3108870470000D7
:1031300001148201D46CDC027B6A18231901411D41
:1031400041540D0A0578082B434D47463D300C5835
:103150000F4C3D2252454320554E524541442217C3
:1031600068094E4D493D2247534D1029335A310CC1
:10317000680B5354543D22434D4E45541E6D4949EE
:1031800043520B7B46530B1E50535441522C061C8A
:10319000544350222C7817223130362E31342E32BF
:1031A00030372E3837222C2231313232325E7E5087
:1031B000535249507F190F7C454E440D8E434C4F5E
:0831C00053451B2B4855E62185
:04000005000000C136
:00000001FF
