:020000040000FA
:100000007804002065010000710100007301000008
:1000100000000000000000000000000000000000E0
:10002000000000000000000000000000750100005A
:10003000000000000000000077010000F105000052
:100040007B0100007B0100007B0100007B010000C0
:100050007B0100007B0100007B0100007B010000B0
:10006000ED060000FD0600000D0700007B0100000A
:100070007B01000000000000000000000000000004
:100080007B0100007B0100007B0100007B01000080
:10009000000000007B0100007B010000430700001E
:1000A0007B0100007B010000000000007B010000DC
:1000B0007B0100007B010000000000007B010000CC
:1000C00000F002F800F03EF80CA030C80838241800
:1000D0002D18A246671EAB4654465D46AC4201D180
:1000E00000F030F87E460F3E0FCCB6460126334274
:1000F00000D0FB1AA246AB4633431847DC0600008B
:10010000FC060000103A02D378C878C1FAD852072A
:1001100001D330C830C101D504680C6070470000BD
:100120000023002400250026103A01D378C1FBD813
:10013000520700D330C100D50B6070471FB51FBDFB
:1001400010B510BD00F032F91146FFF7F7FF00F0CF
:100150003FFB00F04AF903B4FFF7F2FF03BC00F0E5
:1001600051F9000005488047054880470548004789
:10017000FEE7FEE7FEE7FEE7FEE7FEE78901000097
:1001800089060000C100000000B500BF00BF00BF2D
:1001900000BF00BF19481A4901601A481A4F00F001
:1001A00010F81A481A4F00F00CF81A481A4F00F0CD
:1001B00008F81A481A4F00F004F81048194901606D
:1001C00000BD00B5184A0168914203D1016891420F
:1001D00000D112E0154D164C0A0022400B0A2340B4
:1001E000D2180B0C2340D21822400B0E9A4203D097
:1001F000013D02D00168EFE7396000BD800000409A
:10020000699655AA24011000A4000040280110009E
:10021000A80000402C0110009C000040300110009C
:10022000A000004000000000FFFFFFFF03000000EF
:10023000FF00000002480349014A034B70470000D9
:1002400078000020780400207800002000220309B4
:100250008B422CD3030A8B4211D300239C464EE0E1
:1002600003460B433CD4002243088B4231D303099D
:100270008B421CD3030A8B4201D394463FE0C3094F
:100280008B4201D3CB01C01A524183098B4201D367
:100290008B01C01A524143098B4201D34B01C01A52
:1002A000524103098B4201D30B01C01A5241C308CA
:1002B0008B4201D3CB00C01A524183088B4201D339
:1002C0008B00C01A524143088B4201D34B00C01A25
:1002D0005241411A00D201465241104670475DE03A
:1002E000CA0F00D04942031000D3404253400022BD
:1002F0009C4603098B422DD3030A8B4212D3FC2266
:10030000890112BA030A8B420CD3890192118B42E4
:1003100008D3890192118B4204D389013AD09211FA
:1003200000E08909C3098B4201D3CB01C01A5241B5
:1003300083098B4201D38B01C01A524143098B427E
:1003400001D34B01C01A524103098B4201D30B0167
:10035000C01A5241C3088B4201D3CB00C01A52418C
:1003600083088B4201D38B00C01A5241D9D2430873
:100370008B4201D34B00C01A5241411A00D20146B0
:10038000634652415B10104601D34042002B00D51A
:100390004942704763465B1000D3404201B50020DC
:1003A000C046C04602BD704770477047754600F0B2
:1003B00025F8AE46050069465346C008C00085468C
:1003C00018B020B5FFF736FF60BC00274908B646D5
:1003D0000026C0C5C0C5C0C5C0C5C0C5C0C5C0C554
:1003E000C0C5403D49008D46704710B50446C04623
:1003F000C0462046FFF7AFFE10BD00000048704722
:100400001800002001491820ABBEFEE726000200BC
:100410007047000070B51C46002807D1674B5B6829
:1004200001252D03AB43654D6B6070BD644B012509
:10043000AD072B60002901D0012913D15F4B5B6808
:100440009B03DB0F002B0DD15C4B5B680225AB439C
:100450009B1C5A4D6B6000BF584B5B689B03DB0FC6
:10046000002BF9D0032905D0042903D0052901D098
:10047000062919D1514B5B68DB03DB0F002B13D12D
:100480004E4B5B685B085B005B1C4C4D6B602B4606
:100490001B680425AB43494D2B6000BF474B5B688D
:1004A000DB03DB0F002BF9D00B0000F083F907050D
:1004B0000D18232E39444D00404B5B6807252D0253
:1004C000AB433E4D6B6040E03C4B5B6807252D0223
:1004D000AB43FF33FF330233384D6B6035E0374BAE
:1004E0005B6807252D02AB4303252D025B19334DB5
:1004F0006B602AE0314B5B6807252D02AB43012579
:10050000AD025B192D4D6B601FE02C4B5B6807251E
:100510002D02AB4305252D025B19284D6B6014E0BD
:10052000264B5B6807252D02AB4303256D025B1943
:10053000224D6B6009E0214B5B6807252D02AB4320
:100540005B191E4D6B6000E000BF00BF1B4B5B687A
:100550000125ED02AB43D5020126F60235402B43BF
:10056000164D6B602B465B686D14AB43134D6B608F
:100570002B465B68AD14AB435B19104D6B6000BF3D
:100580000E4B5B685B03DB0F002BF9D0012C07D10E
:100590000A4B1B682502AB435B19084D2B6006E034
:1005A000064B1B68FF250135AB43044D2B60002330
:1005B0000125AD072B6000BF37E700004000004079
:1005C0009669AA55084901229207116007490968EE
:1005D000890889008207920F1143044A11600021A3
:1005E00012061160704700009669AA55400000404D
:1005F00010480068002804D00E480068401E0D49CD
:1006000008600D480068FF21F53188420BD30020B7
:100610000949086009480A49086000200949C8607A
:100620000749086004E004480068401C024908606B
:1006300070470000000000200400002051E5CC1AA3
:10064000001D0040001C0040014600200D4B0A68C0
:100650005A6100229A610A79002A02D004221043CA
:1006600003E0042302469A4310464A79002A02D046
:100670000222104303E0022302469A431046014A35
:100680001061704700E000E01FB50020FFF79AFFFF
:1006900001231A4619461846FFF7BCFE002168469A
:1006A0000173012141737D20C001029002A8FFF770
:1006B000CBFF0B480B490860E1208000009000212F
:1006C00068460171012141710021817100F03AF801
:1006D0000548806840084000401C034988601FBDF1
:1006E00051E5CC1A001D0040001C00400248006883
:1006F000401C01490860704708000020024800685B
:10070000401C0149086070470C00002010B50648E5
:1007100000F012F8054800F00FF8054800F00CF85A
:1007200001200449087010BD002000400024004052
:1007300000280040100000200169490849000161BB
:100740007047704770B50446A079002802D0206831
:10075000450108E07D21C90014480068FFF776FDD7
:10076000216848430546124805608068082188438F
:10077000A179C9000822114008430D498860084644
:1007800080680221884321794900022211400843F0
:100790000749886008468068042188436179890098
:1007A0000422114008430249886070BD14000020F3
:1007B000001C004030B47446641E2578641CAB42B3
:1007C00004D3635D5B00E31830BC18471D46F8E7AF
:1007D000FFF75AFF00BFFEE7F80700000000002007
:1007E000180000000401000010080000180000209C
:1007F0006004000020010000000000000000000074
:100800000000000000000000000000000024F400D0
:04000005000000C136
:00000001FF
