:020000040000FA
:10000000B005002089010000950100009701000063
:1000100000000000000000000000000000000000E0
:100020000000000000000000000000009901000036
:1000300000000000000000009B010000C91D00003E
:100040009F0100009F0100009F0100009F01000030
:100050009F0100009F0100009F0100009F01000020
:10006000F11E0000011F0000111F00009F01000091
:100070009F010000000000000000000000000000E0
:100080009F0100009F0100009F0100009F010000F0
:10009000000000009F0100009F01000021220000DD
:1000A0009F0100009F010000000000009F01000070
:1000B0009F0100009F010000000000009F01000060
:1000C00000F002F800F050F80CA030C808382418EE
:1000D0002D18A246671EAB4654465D46AC4201D180
:1000E00000F042F87E460F3E0FCCB6460126334262
:1000F00000D0FB1AA246AB46334318471C29000028
:100100003C290000103A02D378C878C1FAD85207C7
:1001100001D330C830C101D504680C6070470000BD
:100120000023002400250026103A01D378C1FBD813
:10013000520700D330C100D50B60704710B5752948
:1001400002D100F0FBF810BD632902D100F078FC69
:1001500010BD732902D100F07BFC10BD002010BD42
:100160001FB51FBD10B510BD00F0F4FC1146FFF720
:10017000F7FF02F039FA00F00CFD03B4FFF7F2FFCD
:1001800003BC00F041FD000005488047054880475A
:1001900005480047FEE7FEE7FEE7FEE7FEE7FEE76D
:1001A000AD0100008D1E0000C100000000B500BFC1
:1001B00000BF00BF00BF00BF19481A4901601A48BC
:1001C0001A4F00F010F81A481A4F00F00CF81A48AD
:1001D0001A4F00F008F81A481A4F00F004F81048B7
:1001E0001949016000BD00B5184A0168914203D168
:1001F0000168914200D112E0154D164C0A002240D0
:100200000B0A2340D2180B0C2340D21822400B0EAD
:100210009A4203D0013D02D00168EFE7396000BD8A
:1002200080000040699655AA24011000A4000040F7
:1002300028011000A80000402C0110009C00004084
:1002400030011000A000004000000000FFFFFFFF91
:1002500003000000FF00000002480349014A034B6D
:1002600070470000B0010020B0050020B001002060
:100270000FB41CB5084B06AA7B446946009005984C
:1002800000F0BBFB04460020694600F0C9FB204695
:100290001CBC08BC04B01847A507000070B5044694
:1002A00085690068C10601D5302600E02026C00718
:1002B00007D070BD62683046A1689047206A401C34
:1002C00020626D1EF6D570BD70B504468569007854
:1002D000C00707D170BD6268A16820209047206ADE
:1002E000401C20626D1EF6D570BD70B50C460546EB
:1002F000012A05D02878800600D5EA69002302E0AB
:10030000012305E05B1C934202D2E05C0028F9D196
:10031000A869E618C01AA861286AC0182862284689
:10032000FFF7BCFF04E06A682078A968641C904766
:10033000B442F8D32846FFF7C7FF70BDF7B50025D4
:1003400075291068009914A611D0C046C04600282F
:1003500002DA404211A608E0009909688A0701D52F
:100360000FA602E0490704D50EA6012501E0C0460C
:10037000C046009F0024243704E000F06DFB3031BC
:100380003955641C0028F8D12B4632462146009886
:1003900000F0D5FAFEBD0000000000002D000000B6
:1003A0002B00000020000000F3B50446002081B0BF
:1003B00020622046E168884700287DD0252802D0A9
:1003C0006268A16883E0454F00257F442046E168CC
:1003D00088472028064608DB312E06D2B819203877
:1003E0000078002801D00543F0E7A80701D50420D4
:1003F00085430020E0610746A0612A2E0AD03046DE
:1004000002F02DF8002827D0B8000019303E0090E7
:10041000866119E00298BA00121902C8916102902F
:100420002046E1688847012F064617D1E069002879
:100430001FDA202085431CE000980A218069484388
:1004400000998019303888612046E168884706465F
:1004500002F005F80028EFD1012F0AD02E2E08D186
:100460002046E16888470646202005437F1C022F6E
:10047000C3DBA069002803DA4042A06101200543E4
:10048000E80701D010208543002E24D030464138A3
:10049000192803D80120C0020543203620462560D4
:1004A0003146029A1546FFF749FE00280CD0012874
:1004B00007D0ED1DE80800E00DE0C0000830029014
:1004C00077E72D1D029574E762683046A168904772
:1004D000206A401C6CE7206AFEBD0000F625000083
:1004E00030B505460B462A461C781078521C5B1C1A
:1004F000002801D0A042F7D0002C03D0002802D061
:100500006D1CEFE7284630BD421E5378521C002B6D
:10051000FBD10B78491C1370521C002BF9D170478A
:10052000002203098B422CD3030A8B4211D30023F0
:100530009C464EE003460B433CD4002243088B42CA
:1005400031D303098B421CD3030A8B4201D3944657
:100550003FE0C3098B4201D3CB01C01A524183094A
:100560008B4201D38B01C01A524143098B4201D304
:100570004B01C01A524103098B4201D30B01C01A2F
:100580005241C3088B4201D3CB00C01A52418308A9
:100590008B4201D38B00C01A524143088B4201D3D6
:1005A0004B00C01A5241411A00D201465241104636
:1005B00070475DE0CA0F00D04942031000D34042AB
:1005C000534000229C4603098B422DD3030A8B42E1
:1005D00012D3FC22890112BA030A8B420CD389017F
:1005E00092118B4208D3890192118B4204D3890165
:1005F0003AD0921100E08909C3098B4201D3CB01A3
:10060000C01A524183098B4201D38B01C01A524157
:1006100043098B4201D34B01C01A524103098B425B
:1006200001D30B01C01A5241C3088B4201D3CB0046
:10063000C01A524183088B4201D38B00C01A524129
:10064000D9D243088B4201D34B00C01A5241411A00
:1006500000D20146634652415B10104601D340422E
:10066000002B00D54942704763465B1000D34042DF
:1006700001B50020C046C04602BD704770477047B4
:100680000246C80FC00781434B0030B54B405B00AA
:100690009B0D20D01923DB06C91801231B059942A5
:1006A00020DB0324A40704251346AB400BD3002B07
:1006B00004D1EB0613409B00E34204D401246407F9
:1006C000002312195941FF231B0599420BD2C9007F
:1006D0000143500F09E0CB0204D501430803024354
:1006E00005D0054830BDFF21C905084330BD084687
:1006F00007210905884330BD0000C07F0121C905DD
:100700000123411842001B06D3185B0E0AD0C1100A
:100710000722D206891840075242D14201D5520021
:1007200089187047090208D50146002A03D0C10F75
:10073000C9070020704710467047420202D00020CF
:1007400002497047072109050143F4E70000F87FDB
:10075000F0B5FF252D04C609C209FF2704462E4027
:100760000137CB093E4348402A402B400746002A28
:100770006BD0002B69D0AA4267D0AB4265D000286D
:1007800000DA32460125ED0529432C4309022002F7
:10079000090AD21A4B0C7F24E31A434C000A7C440A
:1007A000E35C7D242404121914145B00A21888420F
:1007B00001D3521C00E0400049420C465C43241126
:1007C0005C43DB016415E318040A5C43C502200D99
:1007D0000C4644436419250A5D432303EC0C0D4683
:1007E000654300030019EB184C42A34201D35B1888
:1007F000401CD4052018002B07D05B00C91804D377
:10080000401C002901D1400840003F2189048A4250
:1008100009D3002A08DC1106090F04D00321490777
:100820004018C00FC007F0BD012241001206891810
:100830007F2252069142F6D205214907C84201D5CE
:100840009010F0BDFF20C005F0BD002F00DA324649
:100850001648AA4207D2AB4205D21902090E17D098
:10086000F80FC007F0BDFF2563002D06AB42F9D895
:100870004900A942F6D8AB4201D1A942F2D0A9421F
:1008800001D1002101E061004908D0050843F0BD15
:100890001102090EFBD0FF200243D005F0BD0A462D
:1008A0000146104654E70000332200000000C07FDC
:1008B0000102C21504D00123DB071943002A0ADB19
:1008C0009E239A1A02D40846D0407047FF22410066
:1008D0001206914201D900207047C017C0437047EB
:1008E0001F22030C02D10F2200041CD0030E01D1E1
:1008F0000002083A030F01D10001121F830F01D13A
:100900008000921E002801DB4000521ED2055118C3
:10091000021251181922904004D3491C002801D119
:100920004908490008467047C10FC90700D0404236
:10093000012292071143D3E701218907D0E7FFB5D0
:1009400004460D4681B0243000902168880604D505
:100950001022E0699143216000E00120A84201DDFE
:10096000471B00E000270498A1697A191018081A9B
:10097000A0612078C00602D42046FFF78FFC002635
:1009800008E003986268A168805D9047206A401C77
:10099000761C206204988642F3DB2078C0060AD5D4
:1009A0002046FFF77BFC06E06268A1683020904794
:1009B000206A401C206238467F1E0028F4DC07E0D5
:1009C00000986268A168405D9047206A401C2062E0
:1009D00028466D1E0028F3DC2046FFF775FC2078C2
:1009E000000602D5022005B0F0BD0120FBE70000A3
:1009F00001694A1C02610878704700B58FB0029106
:100A00000021059105490193794403911146049011
:100A10006846FFF7C9FC0FB000BD0000E5FFFFFF0F
:100A20000A681070521C0A60704710B54369002BA9
:100A300002D0C046C04601E0FFF757FC012010BDC0
:100A40001278014624310A7000224A700122ECE734
:100A500011680022D243E8E701468008081A02091B
:100A60001018020A1018020C1018C0088200121880
:100A70005200891A01E0401C0A390A29FBD270474A
:100A8000F8B5224C4E00069DA6420AD8A64201D1D6
:100A9000002806D15E00A64203D8A6420AD1002A49
:100AA00008D00D24240425422CD02946002000F033
:100AB0002FF8F8BD0C461C430CD4994202D0EFF33A
:100AC0000080F8BD904202D0EFF30080F8BDEFF354
:100AD0000080F8BD09242407E5008B4206D0EFF31F
:100AE0000080A043591A06D2284304E0101A05D307
:100AF000EFF30080A04380F30088F8BDEFF300809F
:100B0000A043F1E7009500F01BF8F8BD0000E0FFFE
:100B1000C80212D54803400F002804D0C803C043C0
:100B2000012188407047EFF3008000010009032194
:100B30000907084380F300887047002070470000D1
:100B400010B500200249029A00F02BF810BD0000F9
:100B50000000F87F754600F053F8AE460500694680
:100B60005346C008C000854618B020B5FFF774FB97
:100B700060BC00274908B6460026C0C5C0C5C0C530
:100B8000C0C5C0C5C0C5C0C5C0C5403D49008D4633
:100B9000704710B50446C046C0462046FFF7EDFA40
:100BA00010BD10B50C461107090F092904D00A29F8
:100BB0000AD008290CD104E011460820FFF7A8FF4D
:100BC00006E0510606D501E0510601D50120C00717
:100BD000214610BDD10607D501010909CC084907F6
:100BE000000E0006044309E0410F20024907000AF5
:100BF0000143200E00061D22D14101430846E7E7CC
:100C0000004870475001002001491820ABBEFEE7A4
:100C100026000200704700B501460B0001F00EFCF3
:100C20002E181A1C1E20222426282A2C2E3032345C
:100C300036383A3C3E40424446484A4C4E50525464
:100C400056585A5C5E60626466686A6C6E70727454
:100C500000205BE0012059E0022057E0032055E02E
:100C6000042053E0052051E006204FE007204DE02E
:100C700008204BE0092049E00A2047E00B2045E02E
:100C80000C2043E00D2041E000203FE001203DE04A
:100C900002203BE0032039E0042037E0052035E066
:100CA000062033E0072031E008202FE009202DE066
:100CB0000A202BE00B2029E00C2027E00D2025E066
:100CC0000E2023E00F2021E010201FE011201DE066
:100CD00012201BE0132019E0142017E0152015E066
:100CE000162013E0172011E018200FE019200DE066
:100CF0001A200BE01B2009E01C2007E01D2005E066
:100D00001E2003E01F2001E0002000BF00BF00BD47
:100D100030B505460C46207801280CD10121284623
:100D200000F0DCFB0121284600F05AF8002128469B
:100D300000F07CF81FE00021284600F0CFFB61782E
:100D4000284600F04DF8A178284600F06FF860784A
:100D5000002808D1E178284600F024FB21792846B4
:100D600000F00AF807E06179284600F083FBA179DA
:100D7000284600F04BFB30BD30B505460C462846F2
:100D8000FFF749FF02460D2D11DC002C07D1134857
:100D90004068012191408843104948601CE00F4899
:100DA00040680121914008430C49486014E0002C40
:100DB00009D10A48803841680120904081430748A2
:100DC0008038416008E00548803840680121914042
:100DD000084302498039486030BD0000C00400402B
:100DE00030B505460C462846FFF715FF02460D2D87
:100DF0000BDC012C04D1012090400B49886111E0EB
:100E0000012090400849C8610CE0012C05D1012067
:100E1000904005498039886104E0012090400249F2
:100E20008039C86130BD00008004004030B5024602
:100E3000002906D0012906D0022906D0032908D1AD
:100E400005E0002007E0012005E0022003E0032088
:100E500001E0002000BF00BF130001F0EFFA2E18E0
:100E6000222D3A4754616E7B85909DAAB7C4F0FD50
:100E7000EDECEBEAE9E8E7E6E5E4E3E2E1E0DFDE1A
:100E8000DDDCDBDAD9D8D7D6D5D4D3D2D1D0FC4B60
:100E90005B6A9B089B008407A40F2343F84C6362A2
:100EA0007BE2F74B5B6A3024A343040130252C40DE
:100EB0002343F34C636270E2F14B5B6A0324240228
:100EC000A343040203252D022C402343EC4C636210
:100ED00063E2EB4B5B6A03242403A343040303256F
:100EE0002D032C402343E64C636256E2E44B5B6ADD
:100EF00003242404A343040403252D042C4023438A
:100F0000DF4C636249E2DE4B5B6A03242405A343A2
:100F1000040503252D052C402343D94C63623CE294
:100F2000D74B5B6A03242406A343040603252D063E
:100F30002C402343D24C63622FE2D14B5B6A0324E3
:100F40002407A343040703252D072C402343CC4C3F
:100F5000636222E2CA4B9B6A9B089B008407A40F32
:100F60002343C74CA36218E2C54B9B6A3024A343BA
:100F7000040130252C402343C14CA3620DE2C04B39
:100F80009B6A03242402A343040203252D022C4060
:100F90002343BB4CA36200E2B94B9B6A03242403A6
:100FA000A343040303252D032C402343B44CA36225
:100FB000F3E1B34B9B6A03242404A34304040325F5
:100FC0002D042C402343AE4CA362E6E1AC4B9B6A5C
:100FD00003242405A343040503252D052C402343A6
:100FE000A74CA362D9E1A64B803B5B6A9B089B00A0
:100FF0008407A40F2343A24C803C6362CDE1CBE184
:10100000BDE1AFE1A1E193E185E177E16BE160E171
:1010100052E144E136E123E113E103E1F5E0E8E0E8
:10102000D8E0C8E0B8E0A8E098E088E07AE06DE0B9
:101030005DE04DE03DE02DE01DE00DE0FFE7904B71
:10104000803B5B6A3024A343040130252C402343BA
:101050008B4C803C6362A0E1894B803B5B6A03243C
:101060002402A343040203252D022C402343844C75
:10107000803C636291E1824B803B5B6A03242403E2
:10108000A343040303252D032C4023437C4C803CC5
:10109000636282E17A4B803B5B6A03242404A343AE
:1010A000040403252D042C402343754C803C6362CB
:1010B00073E1734B803B5B6A03242405A34304055F
:1010C00003252D052C4023436D4C803C636264E175
:1010D0006B4B803B5B6A03242406A3430406032571
:1010E0002D062C402343664C803C636255E1644BE3
:1010F000803B5B6A03242407A343040703252D07D1
:101100002C4023435E4C803C636246E15C4B803B59
:101110009B6A9B089B008407A40F2343584C803C88
:10112000A3623AE1564B803B9B6A3024A3430401FF
:1011300030252C402343524C803CA3622DE1504B80
:10114000803B9B6A03242402A343040203252D024F
:101150002C4023434A4C803CA3621EE1484B803B19
:101160009B6A03242403A343040303252D032C407B
:101170002343434C803CA3620FE1414B803B9B6A7D
:1011800003242404A343040403252D042C402343F7
:101190003B4C803CA36200E1394B803B9B6A0324BB
:1011A0002405A343040503252D052C402343344C7B
:1011B000803CA362F1E0324B803B9B6A032424060F
:1011C000A343040603252D062C4023432C4C803CCE
:1011D000A362E2E02A4B803B9B6A03242407A343DB
:1011E000040703252D072C402343254C803CA36294
:1011F000D3E0234B803BDB6A9B089B008407A40F52
:1012000023431F4C803CE362C7E01D4B803BDB6AFD
:101210003024A343040130252C402343184C803C48
:10122000E362BAE0164B803BDB6A03242402A3434B
:10123000040203252D022C402343114C803CE36221
:10124000ABE00F4B803BDB6A03242403A34304037E
:1012500003252D032C402343094C803CE3629CE092
:10126000074B803BDB6A03242404A34304040325C7
:101270002D042C402343024C803CE3628DE00000AF
:1012800080040040464BDB6A03242405A343040585
:1012900003252D052C402343414CE3627DE0404B68
:1012A000DB6A03242406A343040603252D062C40F1
:1012B00023433B4CE36270E0394BDB6A0324240791
:1012C000A343040703252D072C402343344CE3623A
:1012D00063E0334B1B6B9B089B008407A40F2343E5
:1012E0002F4C236359E02E4B1B6B3024A343040186
:1012F00030252C4023432A4C23634EE0284B1B6BA4
:1013000003242402A343040203252D022C4023437B
:10131000234C236341E0224B1B6B03242403A34390
:10132000040303252D032C4023431D4C236334E089
:101330001B4B1B6B03242404A343040403252D042B
:101340002C402343164C236327E0154B1B6B0324CF
:101350002405A343040503252D052C402343104CED
:1013600023631AE00E4B1B6B03242406A3430406DD
:1013700003252D062C402343094C23630DE0084B25
:101380001B6B03242407A343040703252D072C40CC
:101390002343034C236300E000BF00BF30BD0000C7
:1013A0000004004030B505460C462846FFF733FCE4
:1013B00002460D2D11DC002C07D11348806B012152
:1013C00091408843104988631CE00F48806B0121DD
:1013D000914008430C49886314E0002C09D10A4865
:1013E0008038816B012090408143074880388163B9
:1013F00008E005488038806B01219140084302498C
:101400008039886330BD00008004004030B5054657
:101410000C462846FFF7FFFB02460D2D11DC002C81
:1014200007D11348006801219140884310490860A2
:101430001CE00F4800680121914008430C490860F6
:1014400014E0002C09D10A4880380168012090403E
:10145000814307488038016008E00548803800680B
:1014600001219140084302498039086030BD0000E5
:10147000C004004030B505460C462846FFF7CBFBBC
:1014800002460D2D11DC002C07D11348C06B012141
:10149000914088431049C8631CE00F48C06B01218C
:1014A000914008430C49C86314E0002C09D10A4854
:1014B0008038C16B01209040814307488038C16368
:1014C00008E005488038C06B01219140084302497B
:1014D0008039C86330BD00008004004030B5054647
:1014E0000C462846FFF797FB02460D2D11DC002C19
:1014F00007D11348406B012191408843104948634C
:101500001CE00F48406B0121914008430C4948639F
:1015100014E0002C09D10A488038416B012090402A
:10152000814307488038416308E005488038406BB4
:1015300001219140084302498039486330BD0000D1
:101540008004004010B5054800F0FAFF044800F0A0
:1015500045FE7D20000100F0F3FF10BDB80B000038
:10156000B200002008B5002000900023022235A11F
:10157000354800F07BFF002804D134480068401C47
:1015800032490860002302222EA1314800F06EFF8C
:101590000090002804D12D480068401C2B490860A9
:1015A0002A4800680A281ADD00202849086001201E
:1015B00040062849C860284800F0C2FF264800F0CD
:1015C000BFFF254800F0BCFF00BFBFF34F8F23488B
:1015D0002349C860BFF34F8F00BF00BFFEE76846D6
:1015E000007801281CD10020184908601D4800F02F
:1015F000F5FDC82000F0A4FF00230A221AA11D480F
:1016000000F034FF009069460878012817D01A4886
:1016100000F0E4FD0A2000F093FF002000900EE0AF
:10162000164800F0DBFD642000F08AFF124800F04D
:10163000D5FD7D20C00000F083FF002000906846AB
:10164000007808BD4F4B000060000020EC00002037
:101650007200002000040040881300000400FA0516
:1016600000ED00E07D000020434F4E4E45435420E6
:101670004F4B000088000020DC000020CE0000203E
:1016800010B501F0EBF801F087F8E120400201F01D
:1016900003F810BDA520124A1061104600684008EA
:1016A0004000401C1060104600681022904310302B
:1016B0000B4A1060002108E0094800688006C00F4E
:1016C000002800D004E0481C81B206488142F3DBC8
:1016D00000BF0448814201D0012070470020FCE790
:1016E00000080040FFFF000070B503460C46234889
:1016F00040683F25AD02A843A5023F26B60235400B
:1017000028431E4D686028464068FF25AD00A84369
:101710009D00FF26B60035402843184D68602846D6
:1017200082601748E860002108E014484069C0075B
:10173000C00F002800D104E0481C81B2114881424A
:10174000F3DB00BF0F48814201D1002070BD0021B2
:1017500008E00A4840694007C00F002800D004E0B4
:10176000481C81B207488142F3DB00BF0548814233
:1017700001D10020EAE70120E8E70000000800406E
:10178000A25D0000FFFF0000A5200E4A1061104678
:101790000068102290430B4A1060002107E00948BE
:1017A00000688006C00F002800D103E0491C0648ED
:1017B0008142F4D300BF0448814201D00120704728
:1017C0000020FCE700080040FFFF0000F8B50446D9
:1017D0000D46164600BFEFF31080074672B6FFF7BE
:1017E00059FF002800D111E0324629462046FFF774
:1017F0007BFF002800D109E0FFF7C6FF002800D1D9
:1018000004E0384600F028FE0120F8BD384600F01C
:1018100023FE62B60020F8E730B589B00546002007
:101820000390029002A903A800F094FE274A28A181
:101830002846FEF71DFD84B228A104A8FEF718FD76
:10184000001984B204A92846FEF75EFE1F48203026
:10185000027925A104A8FEF70BFD001984B204A9A2
:101860002846FEF751FE194820304079C007C00FC6
:101870003030009015482030407902210840401057
:10188000034630331148203040790421084080104D
:101890000246303217A104A8FEF7EAFC001984B210
:1018A00004A92846FEF730FE084880690090029B94
:1018B000039A14A104A8FEF7DBFC001984B204A962
:1018C0002846FEF721FE09B030BD000028010020A7
:1018D0007B22534E223A222573222C0022434D4470
:1018E000223A223031222C002254595045223A25E6
:1018F000632C0000225653223A2225632563256378
:10190000222C00002254445331223A253033752CC6
:101910002254445332223A253033752C2246223A3F
:101920002536757D00000000F1B586B00025002049
:1019300004900026002703900290019000900698E2
:10194000059077A10598FEF7CBFD041E02D0A07983
:10195000049003E06806050E01200543059472A17A
:101960000598FEF7BDFD041E11D00026641D2078E9
:10197000312801D1301DC6B26078312801D1B01CA8
:10198000C6B2A078312806D1701CC6B203E0680642
:10199000050E01200543059464A10598FEF7A0FDFE
:1019A000041E15D0E41C002710E0207830280CDB42
:1019B0002078392809DC38460A2148430746207830
:1019C0003038C019C7B2641C00E000E0EDE703E066
:1019D0006806050E01200543059455A10598FEF7FC
:1019E0007FFD041E18D0241D0020039012E02078F3
:1019F00030280EDB207839280BDC0A210398484375
:101A000003902078303803994018C0B20390641CCA
:101A100000E000E0EBE703E06806050E0120054367
:101A2000059444A10598FEF75BFD041E17D0241D04
:101A30000020029011E0207830280DDB2078392832
:101A40000ADC0A2102984843029020783038029933
:101A500040180290641C00E000E0ECE703E0680638
:101A6000050E01200543059433A10598FEF738FDC6
:101A7000041E17D0241D0020019011E0207830288A
:101A80000DDB207839280ADC0A21019848430190AF
:101A900020783038019940180190641C00E000E083
:101AA000ECE703E06806050E01200543059423A139
:101AB0000598FEF715FD041E17D0241D0020009088
:101AC00011E0207830280DDB207839280ADC0A2143
:101AD00000984843009020783038009940180090D2
:101AE000641C00E000E0ECE703E06806050E01205E
:101AF0000543002D11D1124904980871084646711A
:101B000087710398C871203902984861019808626A
:101B10000098C861012007B0F0BD0020FBE700007D
:101B20005459504500000000565300005400000076
:101B30004654000053460000525400004554000033
:101B40004801002030B50B460021002A21D0154C59
:101B500003252D0264198510AD0061598407E50E37
:101B6000FF24AC400D46A54329469C07240E85075B
:101B7000ED0EAC4021430B4C03252D02641985105A
:101B8000AD006151C506ED0E0124AC40054D2C6041
:101B900006E0C506ED0E0124AC40024D80352C60F8
:101BA00030BD000000E100E070B51C46002807D100
:101BB000674B5B6801252D03AB43654D6B6070BDC2
:101BC000644B0125AD072B60002901D0012913D1F9
:101BD0005F4B5B689B03DB0F002B0DD15C4B5B689D
:101BE0000225AB439B1C5A4D6B6000BF584B5B6892
:101BF0009B03DB0F002BF9D0032905D0042903D068
:101C0000052901D0062919D1514B5B68DB03DB0F95
:101C1000002B13D14E4B5B685B085B005B1C4C4D8B
:101C20006B602B461B680425AB43494D2B6000BFFE
:101C3000474B5B68DB03DB0F002BF9D00B0000F098
:101C4000FDFB07050D18232E39444D00404B5B6802
:101C500007252D02AB433E4D6B6040E03C4B5B687B
:101C600007252D02AB43FF33FF330233384D6B6042
:101C700035E0374B5B6807252D02AB4303252D026A
:101C80005B19334D6B602AE0314B5B6807252D02F1
:101C9000AB430125AD025B192D4D6B601FE02C4B52
:101CA0005B6807252D02AB4305252D025B19284DE6
:101CB0006B6014E0264B5B6807252D02AB430325C0
:101CC0006D025B19224D6B6009E0214B5B680725B3
:101CD0002D02AB435B191E4D6B6000E000BF00BFDF
:101CE0001B4B5B680125ED02AB43D5020126F602D2
:101CF00035402B43164D6B602B465B686D14AB4330
:101D0000134D6B602B465B68AD14AB435B19104DF4
:101D10006B6000BF0E4B5B685B03DB0F002BF9D0E1
:101D2000012C07D10A4B1B682502AB435B19084DF8
:101D30002B6006E0064B1B68FF250135AB43044DC5
:101D40002B6000230125AD072B6000BF37E70000A3
:101D5000400000409669AA55084901229207116087
:101D600007490968890889008207920F1143044ACC
:101D70001160002112061160704700009669AA5593
:101D800040000040F3B581B00546002000902F468A
:101D90000C48281A84B22046E117890F09188C10C4
:101DA000002609E0A119C8B222213A68FFF70EFD0A
:101DB0000090701C86B23F1D02988642F2DB684696
:101DC0000078FEBD2801002010B5194800680028E1
:101DD00004D017480068401E15490860FF21F531FE
:101DE00014480068FEF79CFB00291BD111480068CD
:101DF0007D21C90088420CD300200E4908600E489E
:101E0000006A401C0C4908620C480078C0430B492A
:101E100008700B480B49086000200B49C86009494D
:101E2000086004E003480068401C0249086010BDD7
:101E300004000020080000202801002000000020ED
:101E400051E5CC1A001D0040001C00400146002056
:101E50000D4B0A685A6100229A610A79002A02D061
:101E60000422104303E0042302469A4310464A79B1
:101E7000002A02D00222104303E0022302469A43C2
:101E80001046014A1061704700E000E01FB50020D5
:101E9000FFF762FF01231A4619461846FFF784FE32
:101EA000002168460173012141737D20C001029029
:101EB00002A8FFF7CBFF0B480B490860E120800028
:101EC000009000216846017101214171002181715A
:101ED00000F07CFA0548806840084000401C034937
:101EE00088601FBD51E5CC1A001D0040001C004059
:101EF00002480068401C014908607047100000203B
:101F000002480068401C0149086070471400002026
:101F100010B5064800F040F8054800F03DF80548C7
:101F200000F03AF801200449087010BD002000407C
:101F300000240040002800401800002010B502696D
:101F400006239A430B785B00062423401A43026160
:101F5000026908239A434B78DB00082423401A4384
:101F60000261026930239A438B781B01302423409D
:101F70001A4302610269C0239A43CB789B01C024B3
:101F800023401A430261C268120A12020B795B1ED7
:101F9000DBB21A43C26010BD016949084900016102
:101FA0007047002A03D0036A0B43036202E0036A0E
:101FB0008B430362704710B5026903231B029A43E7
:101FC0000B020324240223401A43026110BD02695C
:101FD00001231B049A43D21802610268120C1204F6
:101FE0008BB21A430260026901231B049A43026107
:101FF0007047026B120C12048BB21A4302637047D3
:1020000038B50546002000900A2118A000F054FAC7
:10201000012828D1002423E000F07CF82855052C65
:102020001BD3285D3E2818D1601E285C442814D19B
:10203000A01E285C4E2810D1E01E285C45280CD13B
:10204000201F285C3C2808D1641C01E00020285592
:10205000312CFBD30120009004E000200090641C90
:10206000312CD9D300BF6846007838BD524543565D
:102070002046524F4D3A0000F8B504460025002690
:102080000CE00D480078864208D00B480678681CA2
:10209000C5B2052D02DB00202070F8BD0748C069DD
:1020A000C003C00F0028ECD001202070034800F0CE
:1020B00081F907463846F0E7000000200060004044
:1020C00070B50446002500BF114800F073F9207078
:1020D000681C85B2312D00DB06E0641C0C484069A9
:1020E0008004C00F0028EFD100BF09484069800478
:1020F000C00F002801D0002070BD04E00020207037
:10210000641C681C85B2312DF8DB0120F4E7000067
:102110000060004010B5034800F04CF9044620462A
:1021200010BD00000060004000B587B00021684687
:1021300001750121817500214175C175012101766B
:1021400005A92520FEF7E4FD00216846017501215F
:102150008175417500214176817605A92420FEF71D
:10216000D7FDE1204002039001216846017400215F
:10217000C171017201714171817101A90F4800F0B3
:102180005BF800210D4800F019F900210B4800F020
:1021900007F901221104094800F043F80122114611
:1021A0001720FFF7CFFC0548006801210904884388
:1021B000401802490860012007B000BD00600040DF
:1021C00000BF054949698906C90F0029F9D10249AB
:1021D00020310870704700000060004000B50246E2
:1021E0000E48006840084000401C0C49086003E0AD
:1021F0001078521CFFF7E4FF10780028F8D100BFD8
:10220000064840698006C00F0028F9D103480068DD
:10221000400840000149086000BD00000060004027
:102220007047012A03D183690B43836102E083690C
:102230008B43836170470000F0B585B005460C46BE
:102240000027207B01280ED1A1680801FEF774FB4E
:10225000039051480068FEF76FFB02900399FEF768
:1022600077FA074634E0207B02280ED1A1684801A6
:10227000FEF762FB039048480068FEF75DFB0290A2
:102280000399FEF765FA074622E0207B03280ED16A
:10229000A1688801FEF750FB03903F480068FEF7F5
:1022A0004BFB02900399FEF753FA074610E0207BA0
:1022B00004280DD1A168C801FEF73EFB0390364803
:1022C0000068FEF739FB02900399FEF741FA0746D2
:1022D0003846FEF713FA0022304B0191009000F0CF
:1022E000E7FA02D200202D4902E03846FEF706FA4E
:1022F00003910290FEF7C4F907468321C9053846C9
:1023000000F008FB0390FEF7D3FA06466868072141
:1023100009028843217B0902072212021140084367
:1023200068602E61286801214903884321784903A8
:102330000122520311400843286028680F21090236
:102340008843617809020F22120211400843286075
:102350002868012109038843A17809030122120397
:1023600011400843286028680F2109068843E17856
:1023700009060F221206114008432860286801212F
:1023800009078843217909070122120711400843F0
:10239000286005B0F0BD0000F00000200000F03F14
:1023A00010B5426830239A430B01302423401A436E
:1023B000426010BD01462420405C7047426892088C
:1023C00092008B079B0F1A434260704770B504461A
:1023D000A079002802D02068450108E07D21C900CD
:1023E00014480068FEF79CF82168484305461248E7
:1023F0000560806808218843A179C900082211403E
:1024000008430D4988600846806802218843217985
:102410004900022211400843074988600846806845
:10242000042188436179890004221140084302494C
:10243000886070BDF0000020001C004030B474467D
:10244000641E2578641CAB4204D3635D5B00E31813
:1024500030BC18471D46F8E780F3108870473038C5
:102460000A2801D20120704700207047FFB581B0D3
:102470000C4615461E4600270198FFF7AFFE294679
:10248000204600F019F800900DE07F1CB74202DDF5
:10249000002000900BE00198FFF7A0FE294620469F
:1024A00000F00AF80090684600780028EDD000BFE0
:1024B0006846007805B0F0BDF3B583B0074600204C
:1024C0000290002600903C4601970498C0B202900A
:1024D0002DE06846FFF7D0FD0546684600780028E5
:1024E00000D125E0202D22DB7F2D20DC2078A842A2
:1024F0000AD1641C761C2078002800D118E0002C3A
:1025000011D1002005B0F0BD019C00262078A84222
:1025100009D1641C761C2078002800D108E0002C2A
:1025200001D10020EEE70298864200DB00E0D0E710
:1025300000BF0298864201DB0120E3E70020E1E7CB
:102540000349086000BF024909680029FBD17047B0
:10255000040000200CB50246019810600098086045
:1025600001200CBD70B500BF002418A0FFF736FE97
:10257000042119A0FFF7A0FF0646002E0AD1601C17
:1025800084B20A2C01DD00F057F87D20C000FFF76F
:10259000D7FFE9E700241248FFF792FD002800D199
:1025A000E2E70F4D287830280FDB287839280CDC3B
:1025B000002405E028780B4908556D1C601C84B286
:1025C0000F2CF7DB00200749C87370BD41542B471F
:1025D000534E0D0A000000002B47534E0000000030
:1025E000F4000020280100200024FFF74FFCFFF733
:1025F00047F81DE0FEF7A6FF0E48FFF70DF9052C82
:1026000001DD00F019F8FEF7ADFF01280ED10948F1
:10261000FFF7E4FD1A20FFF7D3FD0648FFF7F0FCB3
:10262000012805D10348FFF77FF901E0601CC4B21F
:10263000E0E70000F4000020012040061049C860D7
:1026400009211048FFF79EFB0F48FFF779FF012093
:1026500040060B4988600D48FFF772FF0B48FFF7F3
:102660006FFF0A48FFF76CFF00BFBFF34F8F0848AA
:102670000849C860BFF34F8F00BF00BFFEE70000EE
:102680000004004028010020DC0500008813000041
:102690000400FA0500ED00E038B505460024FFF718
:1026A00043FD012040062749C86188602648FFF79E
:1026B00047FF2648FFF792FD6420FFF741FF00BF68
:1026C000042123A0FFF7F8FE0090032122A0FFF7CA
:1026D000F3FE009068460078002803D1641C052CA6
:1026E00000DAEDE76420FFF72BFF0A2302221BA18B
:1026F0001B48FFF7BBFE0A23022218A119A0FFF70F
:10270000B5FE0A23022215A11A48FFF7AFFE0223E5
:102710001A4612A118A0FFF7A9FE0B48FFF710FFF9
:102720001B48FFF70DFF1B48FFF758FD7D200001F8
:10273000FFF706FFFFF716FF7D20C000FFF700FF41
:1027400038BD000000040040881300001C00002079
:1027500043616C6C00000000534D53004F4B000070
:102760002100002041542B434D4744413D360D0A82
:10277000000000005400002041542B434D474441C9
:102780003D2244454C20414C4C220D0A00000000E3
:10279000B80B0000B20000201FB50121684601728D
:1027A00081720021C172012003906846417202A922
:1027B0002848FFF7C3FB012168460172817200219E
:1027C000C172012003906846417202A92248FFF7B6
:1027D000B5FB032168468170012141700021C17061
:1027E000017141718171017069461C20FEF790FAF8
:1027F00069461E20FEF78CFA00211648FFF7DBFB26
:1028000000211548FFF7D7FB00211248FFF7DFFB37
:1028100000211148FFF7DBFB01210E48FFF7E9FB20
:1028200001210D48FFF7E5FB012211460948FFF79A
:10283000B8FB012211460848FFF7B3FB0122022131
:102840000820FFF77FF9012202210920FFF77AF91A
:102850001FBD000000200040002400401CB50021E6
:10286000684601708170C170012001906846417016
:1028700069460D48FFF762FB02210B48FFF79BFBFF
:1028800000210948FFF7A3FB08490748FFF7B1FB00
:10289000012211460448FFF784FB012211460A2059
:1028A000FFF750F91CBD000000280040409C0000CC
:1028B00070B501250C002D051C4310D4EC4206D444
:1028C000AC420AD4994200D070BD904270BDE9423A
:1028D00017D4EB4215D4994270BD894270BDEC42C9
:1028E00006D5AC42F9D58B4200D070BD824270BD96
:1028F0006D004C00EC4204D25C00EC4201D28B42F1
:1029000070BD034C30B4FEF7BBF830BC70BD00BFE7
:102910001900160470B5420064414B005C41120E70
:1029200039D01B0E38D0FF2A3CD0FF2B3AD04002C2
:102930004902400A490A060045184E43000A090A9E
:10294000D2184843ED017F3A0104731A4019190C5B
:102950004318990F04D001215B0849075B1A521CE8
:10296000D80904D3401CF50301D19D0607D0FF2AE6
:1029700008D2D50506D0E4072043401970BD0125D3
:10298000A843F4E7002A01DCE00770BD2402FF2021
:102990002043C00570BD1B0EFF2A03D0FF2B01D0C2
:1029A000E00770BDFF2645003606B54206D84D004B
:1029B000B54203D8D218FF2A00D0E7E7004870BD1F
:1029C0000000C07F040000080000000000000002BA
:1029D00000010000108182838485868788898B8C22
:1029E0008D8E8F919293959697999A9C9D9FA0A278
:1029F000A3A5A7A8AAACAEB0B2B3B5B7B9BCBEC0C8
:102A0000C2C5C7C9CCCED1D4D7D9DCDFE2E6E9EC68
:102A1000F0F3F7FAFE000000382A00000000002062
:102A2000F4000000040100002C2B0000F400002042
:102A3000BC040000200100000000000000000000B5
:102A40000000000000000000000000000000000086
:102A50000000000041540D0A0041542B434D4746ED
:102A60003D300D0A0041542B434D474C3D22524509
:102A70004320554E52454144220D0A0041542B43F8
:102A80004E4D493D2247534D220D0A0041542B43E0
:102A90004D47463D310D0A0041542B435354543D9C
:102AA00022434D4E4554220D0A0041542B434949BF
:102AB00043520D0A0041542B43494653520D0A001C
:102AC00041542B43495053544152543D2254435096
:102AD000222C223132302E37382E36322E31382207
:102AE0002C2236303031220D0A0041542B434950FC
:102AF000535249503D310D0A0041542B4349505324
:102B0000454E440D0A0041542B434950434C4F530A
:102B1000450D0A0041542B434950534855540D0A62
:0C2B200000000000000000000024F40091
:04000005000000C136
:00000001FF
