:020000040000FA
:1000000070060020890100009501000097010000A2
:1000100000000000000000000000000000000000E0
:100020000000000000000000000000009901000036
:1000300000000000000000009B010000611A0000A9
:100040009F0100009F0100009F0100009F01000030
:100050009F0100009F0100009F0100009F01000020
:100060009F0100009F010000E11B00009F010000B4
:100070009F010000000000000000000000000000E0
:100080009F0100009F0100009F0100009F010000F0
:10009000000000009F0100009F0100009D1E000065
:1000A0009F0100009F010000000000009F01000070
:1000B0009F0100009F010000000000009F01000060
:1000C00000F002F800F050F80CA030C808382418EE
:1000D0002D18A246671EAB4654465D46AC4201D180
:1000E00000F042F87E460F3E0FCCB6460126334262
:1000F00000D0FB1AA246AB46334318473C2B000006
:100100005C2B0000103A02D378C878C1FAD85207A5
:1001100001D330C830C101D504680C6070470000BD
:100120000023002400250026103A01D378C1FBD813
:10013000520700D330C100D50B60704710B5752948
:1001400002D100F00BF910BD632902D100F0ECFBE5
:1001500010BD732902D100F0EFFB10BD002010BDCF
:100160001FB51FBD10B510BD00F068FC1146FFF7AC
:10017000F7FF02F0BDF900F080FC03B4FFF7F2FFD7
:1001800003BC00F0B5FC00000548804705488047E7
:1001900005480047FEE7FEE7FEE7FEE7FEE7FEE76D
:1001A000AD010000451B0000C100000000B500BF0C
:1001B00000BF00BF00BF00BF19481A4901601A48BC
:1001C0001A4F00F010F81A481A4F00F00CF81A48AD
:1001D0001A4F00F008F81A481A4F00F004F81048B7
:1001E0001949016000BD00B5184A0168914203D168
:1001F0000168914200D112E0154D164C0A002240D0
:100200000B0A2340D2180B0C2340D21822400B0EAD
:100210009A4203D0013D02D00168EFE7396000BD8A
:1002200080000040699655AA24011000A4000040F7
:1002300028011000A80000402C0110009C00004084
:1002400030011000A000004000000000FFFFFFFF91
:1002500003000000FF00000002480349014A034B6D
:10026000704700007002002070060020700200201D
:100270000FB41CB5084B06AA7B446946009005984C
:1002800000F02FFB04460020694600F03DFB2046AD
:100290001CBC08BC04B018478D060000F8B50E461B
:1002A0000446002020622046E1688847002829D0C3
:1002B000252802D06268A16820E0E1682046002776
:1002C000884705001ED028464138192802D8012742
:1002D000FF0220353246204627602946FFF72EFFD1
:1002E000002808D0012804D0F61DF608F6000836CC
:1002F000D9E7361DD7E762682846A1689047206A8B
:10030000401CCFE7206AF8BD70B50C460546012AAF
:1003100005D02878800600D5EA69002302E0012391
:1003200005E05B1C934202D2E05C0028F9D1A86989
:10033000E618C01AA861286AC01828622846C04674
:10034000C04604E06A682078A968641C9047B442FB
:10035000F8D32846C046C04670BD0000F7B500255A
:1003600075291068009914A611D0C046C04600280F
:1003700002DA404211A608E0009909688A0701D50F
:100380000FA602E0490704D50EA6012501E0C046EC
:10039000C046009F0024243704E000F0D1FA303139
:1003A0003955641C0028F8D12B4632462146009866
:1003B00000F039FAFEBD0000000000002D00000032
:1003C0002B0000002000000030B505460B462A46F1
:1003D0001C781078521C5B1C002801D0A042F7D07A
:1003E000002C03D0002802D06D1CEFE7284630BD5A
:1003F000421E5378521C002BFBD10B78491C137002
:10040000521C002BF9D17047002203098B422CD3D8
:10041000030A8B4211D300239C464EE003460B4354
:100420003CD4002243088B4231D303098B421CD3B6
:10043000030A8B4201D394463FE0C3098B4201D3A8
:10044000CB01C01A524183098B4201D38B01C01AE0
:10045000524143098B4201D34B01C01A5241030957
:100460008B4201D30B01C01A5241C3088B4201D306
:10047000CB00C01A524183088B4201D38B00C01AB3
:10048000524143088B4201D34B00C01A5241411ADA
:1004900000D201465241104670475DE0CA0F00D0BD
:1004A0004942031000D34042534000229C460309B6
:1004B0008B422DD3030A8B4212D3FC22890112BA3C
:1004C000030A8B420CD3890192118B4208D3890114
:1004D00092118B4204D389013AD0921100E089092C
:1004E000C3098B4201D3CB01C01A524183098B420D
:1004F00001D38B01C01A524143098B4201D34B01F6
:10050000C01A524103098B4201D30B01C01A524158
:10051000C3088B4201D3CB00C01A524183088B42DF
:1005200001D38B00C01A5241D9D243088B4201D368
:100530004B00C01A5241411A00D201466346524153
:100540005B10104601D34042002B00D54942704752
:1005500063465B1000D3404201B50020C046C04650
:1005600002BD7047704770470246C80FC0078143FD
:100570004B0030B54B405B009B0D20D01923DB06B0
:10058000C91801231B05994220DB0324A407042575
:100590001346AB400BD3002B04D1EB0613409B005A
:1005A000E34204D401246407002312195941FF23B4
:1005B0001B0599420BD2C9000143500F09E0CB0241
:1005C00004D501430803024305D0054830BDFF218F
:1005D000C905084330BD084607210905884330BDD9
:1005E0000000C07F0121C9050123411842001B06FC
:1005F000D3185B0E0AD0C1100722D2068918400713
:100600005242D14201D5520089187047090208D5DB
:100610000146002A03D0C10FC907002070471046C9
:100620007047420202D000200249704707210905A5
:100630000143F4E70000F87FF0B5FF252D04C6095B
:10064000C209FF2704462E400137CB093E434840EC
:100650002A402B400746002A6BD0002B69D0AA42C3
:1006600067D0AB4265D0002800DA32460125ED059F
:1006700029432C4309022002090AD21A4B0C7F2479
:10068000E31A434C000A7C44E35C7D2424041219E1
:1006900014145B00A218884201D3521C00E04000F1
:1006A00049420C465C4324115C43DB016415E318AA
:1006B000040A5C43C502200D0C4644436419250A14
:1006C0005D432303EC0C0D46654300030019EB1852
:1006D0004C42A34201D35B18401CD4052018002BC8
:1006E00007D05B00C91804D3401C002901D1400881
:1006F00040003F2189048A4209D3002A08DC110600
:10070000090F04D0032149074018C00FC007F0BDEE
:1007100001224100120689187F2252069142F6D228
:1007200005214907C84201D59010F0BDFF20C00542
:10073000F0BD002F00DA32461648AA4207D2AB427B
:1007400005D21902090E17D0F80FC007F0BDFF251A
:1007500063002D06AB42F9D84900A942F6D8AB4256
:1007600001D1A942F2D0A94201D1002101E06100EA
:100770004908D0050843F0BD1102090EFBD0FF2047
:100780000243D005F0BD0A460146104654E700007A
:100790006E2500000000C07F0102C21504D00123B5
:1007A000DB071943002A0ADB9E239A1A02D4084663
:1007B000D0407047FF2241001206914201D900202B
:1007C0007047C017C04370471F22030C02D10F228D
:1007D00000041CD0030E01D10002083A030F01D11E
:1007E0000001121F830F01D18000921E002801DB3F
:1007F0004000521ED2055118021251181922904081
:1008000004D3491C002801D1490849000846704713
:10081000C10FC90700D04042012292071143D3E71C
:1008200001218907D0E7FFB504460D4681B0243089
:1008300000902168880604D51022E0699143216068
:1008400000E00120A84201DD471B00E000270498DA
:10085000A1697A191018081AA0612078C00602D47C
:100860002046C046C046002608E003986268A1689A
:10087000805D9047206A401C761C20620498864266
:10088000F3DB2078C0060AD52046C046C04606E005
:100890006268A16830209047206A401C2062384678
:1008A0007F1E0028F4DC07E000986268A168405DC4
:1008B0009047206A401C206228466D1E0028F3DC09
:1008C0002046C046C0462078000602D5022005B06A
:1008D000F0BD0120FBE7000001694A1C02610878B5
:1008E000704700B58FB00291002105910549019331
:1008F00079440391114604906846FFF7CFFC0FB08E
:1009000000BD0000E5FFFFFF0A681070521C0A607E
:10091000704710B54369002B02D0C046C04601E0C5
:10092000FFF7F2FC012010BD1278014624310A7055
:1009300000224A700122ECE711680022D243E8E766
:1009400001468008081A02091018020A1018020C41
:100950001018C008820012185200891A01E0401CC9
:100960000A390A29FBD27047F8B5224C4E00069D81
:10097000A6420AD8A64201D1002806D15E00A642AE
:1009800003D8A6420AD1002A08D00D242404254207
:100990002CD02946002000F02FF8F8BD0C461C434F
:1009A0000CD4994202D0EFF30080F8BD904202D0FF
:1009B000EFF30080F8BDEFF30080F8BD09242407B1
:1009C000E5008B4206D0EFF30080A043591A06D20F
:1009D000284304E0101A05D3EFF30080A04380F30E
:1009E0000088F8BDEFF30080A043F1E7009500F028
:1009F0001BF8F8BD0000E0FFC80212D54803400F05
:100A0000002804D0C803C043012188407047EFF399
:100A100000800001000903210907084380F30088D2
:100A2000704700207047000010B500200249029A6C
:100A300000F02BF810BD00000000F87F754600F0B4
:100A400053F8AE46050069465346C008C0008546C7
:100A500018B020B5FFF700FC60BC00274908B64677
:100A60000026C0C5C0C5C0C5C0C5C0C5C0C5C0C5BD
:100A7000C0C5403D49008D46704710B50446C0468C
:100A8000C0462046FFF779FB10BD10B50C46110794
:100A9000090F092904D00A290AD008290CD104E039
:100AA00011460820FFF7A8FF06E0510606D501E031
:100AB000510601D50120C007214610BDD10607D53A
:100AC00001010909CC084907000E0006044309E0AA
:100AD000410F20024907000A0143200E00061D2293
:100AE000D14101430846E7E7004870470C02002067
:100AF00001491820ABBEFEE7260002007047000047
:100B000000200149087070470100002001200149C0
:100B100008707047010000201CB500216846017074
:100B200081704170C170017169460F2000F09DF81D
:100B300000210F2000F0CCFC1CBD00000121890722
:100B40000968C807C00F002803D00749012292078F
:100B500011600021C943054A9160002802D000219C
:100B600012061160704700009669AA5540000040C7
:100B700000B501460B0001F02BFB2E181A1C1E209D
:100B8000222426282A2C2E30323436383A3C3E4055
:100B9000424446484A4C4E50525456585A5C5E6045
:100BA000626466686A6C6E70727400205BE001209B
:100BB00059E0022057E0032055E0042053E00520CF
:100BC00051E006204FE007204DE008204BE00920CF
:100BD00049E00A2047E00B2045E00C2043E00D20CF
:100BE00041E000203FE001203DE002203BE0032007
:100BF00039E0042037E0052035E0062033E0072007
:100C000031E008202FE009202DE00A202BE00B2006
:100C100029E00C2027E00D2025E00E2023E00F2006
:100C200021E010201FE011201DE012201BE0132006
:100C300019E0142017E0152015E0162013E0172006
:100C400011E018200FE019200DE01A200BE01B2006
:100C500009E01C2007E01D2005E01E2003E01F2006
:100C600001E0002000BF00BF00BD30B505460C46C6
:100C7000207801280CD10121284600F0F5FB012144
:100C8000284600F073F80021284600F095F81FE090
:100C90000021284600F0E8FB6178284600F066F85D
:100CA000A178284600F088F86078002808D1E1781B
:100CB000284600F03DFB2179284600F023F807E0A4
:100CC0006179284600F09CFBA179284600F064FB7E
:100CD00030BD000030B504462046FFF749FF054609
:100CE0000D2C02DC0648026802E0054880380268E4
:100CF0001046E8400246D207D20F104630BD000031
:100D00008004004030B505460C462846FFF730FF0A
:100D100002460D2D11DC002C07D11348406801213B
:100D200091408843104948601CE00F484068012109
:100D3000914008430C49486014E0002C09D10A484E
:100D400080384168012090408143074880384160E5
:100D500008E0054880384068012191400843024975
:100D60008039486030BD0000C004004030B5054601
:100D70000C462846FFF7FCFE02460D2D0BDC012C2D
:100D800004D1012090400B49886111E0012090407E
:100D90000849C8610CE0012C05D1012090400549AB
:100DA0008039886104E00120904002498039C8619F
:100DB00030BD00008004004030B50246002906D056
:100DC000012906D0022906D0032908D105E0002018
:100DD00007E0012005E0022003E0032001E00020FD
:100DE00000BF00BF130001F0F3F92E18222D3A477F
:100DF00054616E7B85909DAAB7C4F0FDEDECEBEAE3
:100E0000E9E8E7E6E5E4E3E2E1E0DFDEDDDCDBDACA
:100E1000D9D8D7D6D5D4D3D2D1D0FC4B5B6A9B08D6
:100E20009B008407A40F2343F84C63627BE2F74BDB
:100E30005B6A3024A343040130252C402343F34C48
:100E4000636270E2F14B5B6A03242402A343040251
:100E500003252D022C402343EC4C636263E2EB4BF1
:100E60005B6A03242403A343040303252D032C40BE
:100E70002343E64C636256E2E44B5B6A032424049A
:100E8000A343040403252D042C402343DF4C636259
:100E900049E2DE4B5B6A03242405A34304050325D2
:100EA0002D052C402343D94C63623CE2D74B5B6A4F
:100EB00003242406A343040603252D062C402343C4
:100EC000D24C63622FE2D14B5B6A03242407A34315
:100ED000040703252D072C402343CC4C636222E2F8
:100EE000CA4B9B6A9B089B008407A40F2343C74CF3
:100EF000A36218E2C54B9B6A3024A343040130254A
:100F00002C402343C14CA3620DE2C04B9B6A0324D7
:100F10002402A343040203252D022C402343BB4C8F
:100F2000A36200E2B94B9B6A03242403A343040396
:100F300003252D032C402343B44CA362F3E1B34BB0
:100F40009B6A03242404A343040403252D042C409A
:100F50002343AE4CA362E6E1AC4B9B6A0324240519
:100F6000A343040503252D052C402343A74CA3626E
:100F7000D9E1A64B803B5B6A9B089B008407A40FCA
:100F80002343A24C803C6362CDE1CBE1BDE1AFE104
:100F9000A1E193E185E177E16BE160E152E144E1B8
:100FA00036E123E113E103E1F5E0E8E0D8E0C8E051
:100FB000B8E0A8E098E088E07AE06DE05DE04DE020
:100FC0003DE02DE01DE00DE0FFE7904B803B5B6ACC
:100FD0003024A343040130252C4023438B4C803C18
:100FE0006362A0E1894B803B5B6A03242402A34334
:100FF000040203252D022C402343844C803C636271
:1010000091E1824B803B5B6A03242403A3430403E6
:1010100003252D032C4023437C4C803C636282E1FA
:101020007A4B803B5B6A03242404A3430404032516
:101030002D042C402343754C803C636273E1734B59
:10104000803B5B6A03242405A343040503252D0587
:101050002C4023436D4C803C636264E16B4B803BCE
:101060005B6A03242406A343040603252D062C40B3
:101070002343664C803C636255E1644B803B5B6A72
:1010800003242407A343040703252D072C402343EF
:101090005E4C803C636246E15C4B803B9B6A9B08F4
:1010A0009B008407A40F2343584C803CA3623AE181
:1010B000564B803B9B6A3024A343040130252C40CF
:1010C0002343524C803CA3622DE1504B803B9B6AF2
:1010D00003242402A343040203252D022C402343AE
:1010E0004A4C803CA3621EE1484B803B9B6A032430
:1010F0002403A343040303252D032C402343434C23
:10110000803CA3620FE1414B803B9B6A0324240493
:10111000A343040403252D042C4023433B4C803C73
:10112000A36200E1394B803B9B6A03242405A3435F
:10113000040503252D052C402343344C803CA36239
:10114000F1E0324B803B9B6A03242406A343040650
:1011500003252D062C4023432C4C803CA362E2E067
:101160002A4B803B9B6A03242407A34304070325DF
:101170002D072C402343254C803CA362D3E0234B16
:10118000803BDB6A9B089B008407A40F23431F4C12
:10119000803CE362C7E01D4B803BDB6A3024A34305
:1011A000040130252C402343184C803CE362BAE014
:1011B000164B803BDB6A03242402A343040203256D
:1011C0002D022C402343114C803CE362ABE00F4BDB
:1011D000803BDB6A03242403A343040303252D037C
:1011E0002C402343094C803CE3629CE0074B803B4E
:1011F000DB6A03242404A343040403252D042C40A8
:101200002343024C803CE3628DE0000080040040F8
:10121000464BDB6A03242405A343040503252D055F
:101220002C402343414CE3627DE0404BDB6A0324C6
:101230002406A343040603252D062C4023433B4CE0
:10124000E36270E0394BDB6A03242407A3430407FD
:1012500003252D072C402343344CE36263E0334BDA
:101260001B6B9B089B008407A40F23432F4C236315
:1012700059E02E4B1B6B3024A343040130252C4036
:1012800023432A4C23634EE0284B1B6B0324240288
:10129000A343040203252D022C402343234C236344
:1012A00041E0224B1B6B03242403A34304030325C7
:1012B0002D032C4023431D4C236334E01B4B1B6B3D
:1012C00003242404A343040403252D042C402343B6
:1012D000164C236327E0154B1B6B03242405A34303
:1012E000040503252D052C402343104C23631AE0ED
:1012F0000E4B1B6B03242406A343040603252D0673
:101300002C402343094C23630DE0084B1B6B032443
:101310002407A343040703252D072C402343034C34
:10132000236300E000BF00BF30BD000000040040A8
:1013300030B505460C462846FFF71AFC02460D2D2F
:1013400011DC002C07D11348806B012191408843A8
:10135000104988631CE00F48806B012191400843CD
:101360000C49886314E0002C09D10A488038816B4D
:1013700001209040814307488038816308E0054898
:101380008038806B0121914008430249803988638D
:1013900030BD00008004004030B505460C462846AC
:1013A000FFF7E6FB02460D2D11DC002C07D1134898
:1013B0000068012191408843104908601CE00F48F3
:1013C00000680121914008430C49086014E0002C9A
:1013D00009D10A48803801680120904081430748BC
:1013E0008038016008E0054880380068012191409C
:1013F000084302498039086030BD0000C004004045
:1014000030B505460C462846FFF7B2FB02460D2DC7
:1014100011DC002C07D11348C06B01219140884397
:101420001049C8631CE00F48C06B0121914008437C
:101430000C49C86314E0002C09D10A488038C16BFC
:1014400001209040814307488038C16308E0054887
:101450008038C06B01219140084302498039C8633C
:1014600030BD00008004004030B505460C462846DB
:10147000FFF77EFB02460D2D11DC002C07D113482F
:10148000406B012191408843104948631CE00F489C
:10149000406B0121914008430C49486314E0002C43
:1014A00009D10A488038416B0120904081430748A8
:1014B0008038416308E005488038406B0121914045
:1014C000084302498039486330BD00008004004071
:1014D00030B505460C462846FFF74AFB02460D2D5F
:1014E0000BDC012C04D1012090400B49886011E0F5
:1014F000012090400849C8600CE0012C05D1012072
:10150000904005498039886004E0012090400249FC
:101510008039C86030BD00008004004010B5054827
:1015200000F0BAFE044800F083FC7D20000100F0CA
:10153000B3FE10BDB80B0000C100002008B50020AC
:101540000090002229A12A4800F054FE002804D16E
:1015500028480078401C27490870002226A1274807
:1015600000F048FE0090002804D122480078401C7A
:10157000204908701F4800780A2804DD00201D4912
:10158000087001F095F96846007801281BD1002009
:10159000184908701A4800F04BFCC82000F07CFE87
:1015A000002218A11A4800F025FE0090694608782C
:1015B000012817D0174800F03BFC0A2000F06CFE11
:1015C000002000900EE0144800F032FC642000F08F
:1015D00063FE104800F02CFC7D20C00000F05CFE93
:1015E000002000906846007808BD00004F4B0000C6
:1015F0006F0000202A000020000000008100002071
:101600008C000020434F4E4E454354204F4B00006A
:1016100097000020EB000020DD00002010B501F055
:101620003FF901F03DFA01F011FA01F005FAFFF778
:1016300073FA00F09DFB7D20C00000F02DFEFFF747
:1016400065FA7D20000100F027FEFFF759FAE1203E
:10165000400201F071F910BDA520124A1061104638
:10166000006840084000401C1060104600681022CE
:10167000904310300B4A1060002108E009480068D0
:101680008006C00F002800D004E0481C81B2064844
:101690008142F3DB00BF0448814201D00120704742
:1016A0000020FCE700080040FFFF000070B5034683
:1016B0000C46234840683F25AD02A843A5023F26BB
:1016C000B602354028431E4D686028464068FF2515
:1016D000AD00A8439D00FF26B60035402843184DB5
:1016E0006860284682601748E860002108E01448D6
:1016F0004069C007C00F002800D104E0481C81B237
:1017000011488142F3DB00BF0F48814201D1002024
:1017100070BD002108E00A4840694007C00F00285A
:1017200000D004E0481C81B207488142F3DB00BFCF
:101730000548814201D10020EAE70120E8E70000E6
:1017400000080040A25D0000FFFF0000A5200E4A37
:10175000106110460068102290430B4A106000216F
:1017600007E0094800688006C00F002800D103E0A8
:10177000491C06488142F4D300BF0448814201D08D
:10178000012070470020FCE700080040FFFF000038
:10179000F8B504460D46164600BFEFF31080074625
:1017A00072B6FFF759FF002800D111E032462946F2
:1017B0002046FFF77BFF002800D109E0FFF7C6FFB6
:1017C000002800D104E0384600F010FD0120F8BDEB
:1017D000384600F00BFD62B60020F8E730B50B4646
:1017E0000021002A21D0154C03252D0264198510F3
:1017F000AD0061598407E50EFF24AC400D46A543BA
:1018000029469C07240E8507ED0EAC4021430B4C66
:1018100003252D0264198510AD006151C506ED0E3A
:101820000124AC40054D2C6006E0C506ED0E0124F8
:10183000AC40024D80352C6030BD000000E100E07E
:1018400070B51C46002807D1674B5B6801252D0346
:10185000AB43654D6B6070BD644B0125AD072B60DC
:10186000002901D0012913D15F4B5B689B03DB0F7B
:10187000002B0DD15C4B5B680225AB439B1C5A4D82
:101880006B6000BF584B5B689B03DB0F002BF9D0EC
:10189000032905D0042903D0052901D0062919D12F
:1018A000514B5B68DB03DB0F002B13D14E4B5B68A6
:1018B0005B085B005B1C4C4D6B602B461B68042572
:1018C000AB43494D2B6000BF474B5B68DB03DB0F2D
:1018D000002BF9D00B0000F07BFC07050D18232E20
:1018E00039444D00404B5B6807252D02AB433E4D0C
:1018F0006B6040E03C4B5B6807252D02AB43FF3338
:10190000FF330233384D6B6035E0374B5B6807259A
:101910002D02AB4303252D025B19334D6B602AE08A
:10192000314B5B6807252D02AB430125AD025B19E6
:101930002D4D6B601FE02C4B5B6807252D02AB43E0
:1019400005252D025B19284D6B6014E0264B5B6862
:1019500007252D02AB4303256D025B19224D6B60F9
:1019600009E0214B5B6807252D02AB435B191E4D37
:101970006B6000E000BF00BF1B4B5B680125ED0200
:10198000AB43D5020126F60235402B43164D6B6062
:101990002B465B686D14AB43134D6B602B465B6845
:1019A000AD14AB435B19104D6B6000BF0E4B5B6811
:1019B0005B03DB0F002BF9D0012C07D10A4B1B680E
:1019C0002502AB435B19084D2B6006E0064B1B68F4
:1019D000FF250135AB43044D2B6000230125AD07E6
:1019E0002B6000BF37E70000400000409669AA5511
:1019F000084901229207116007490968890889008E
:101A00008207920F1143044A1160002112061160EF
:101A1000704700009669AA5540000040F3B581B0B8
:101A20000546002000902F460C48281A84B2204614
:101A3000E117890F09188C10002609E0A119C8B216
:101A400022213A68FFF7A4FE0090701C86B23F1D69
:101A500002988642F2DB68460078FEBDF80000205E
:101A600010B51F480068002804D01D480068401EBB
:101A70001B4908601B480078012802D102201A493E
:101A80000861FF21F53119480068FEF7BDFC002907
:101A900020D1164800687D21C90088420CD300205F
:101AA000124908601248C069401C1149C8611148B8
:101AB0000078C0430F4908700F48104908600020A3
:101AC0000F49C8600D49086008480068401C074974
:101AD000086004E005480068401C0449086010BD27
:101AE0000400002001000020000400400800002045
:101AF000F80000200000002051E5CC1A001D004035
:101B0000001C0040014600200D4B0A685A6100226B
:101B10009A610A79002A02D00422104303E00423C8
:101B200002469A4310464A79002A02D00222104304
:101B300003E0022302469A431046014A10617047AF
:101B400000E000E01FB5FEF7F9FF0020FFF750FFAF
:101B500001231A4619461846FFF772FE194801215B
:101B60008907086018480068072109038843164957
:101B7000086000200906086001216846017341736E
:101B80001248029002A8FFF7BDFF11480069012129
:101B900008430F4908610F480F490860E1208000A1
:101BA000009000216846017101214171002181717D
:101BB00000F0D6FA0948806840084000401C0749F8
:101BC00088601FBD9669AA554000004080BB000098
:101BD00000E000E051E5CC1A001D0040001C004070
:101BE00010B501210C4800F05AF8002813D001214B
:101BF000094800F047F809480068401C0749086098
:101C0000084600680649884205D300200549086057
:101C1000014800F039F810BD002800401C000020E9
:101C2000E70300002000002010B5026906239A4354
:101C30000B785B00062423401A43026102690823E3
:101C40009A434B78DB00082423401A43026102695F
:101C500030239A438B781B01302423401A430261BE
:101C60000269C0239A43CB789B01C02423401A43C6
:101C70000261C268120A12020B795B1EDBB21A43C0
:101C8000C26010BD416270470169490849000161A5
:101C90007047016949084900491C016170470246C3
:101CA0000020536A0B40002B01D0012000E00020EF
:101CB0007047002A03D0036A0B43036202E0036A01
:101CC0008B430362704710B5026903231B029A43DA
:101CD0000B020324240223401A43026110BD02694F
:101CE00001231B049A43D21802610268120C1204E9
:101CF0008BB21A430260026901231B049A430261FA
:101D00007047026B120C12048BB21A4302637047C5
:101D1000F8B5074612A000F067FB01281DD100248A
:101D2000002500260DE01148005D7B2801D1681CCC
:101D3000C5B20E48005D7D2801D1701CC6B2601C82
:101D4000C4B2772C03DA0948005D0028EBD1B54214
:101D500001D00020F8BD0120FCE70020FAE70000D8
:101D6000524543562046524F4D3A00001C01002078
:101D700000B587B0002168460175012181750021F9
:101D80004175C1750121017605A92520FEF76DFF7A
:101D90000021684601750121817541750021417658
:101DA000817605A92420FEF760FFE1204002039020
:101DB0000121684601740021C171017201714171F4
:101DC000817101A9124800F005F90021104800F0C6
:101DD000BFF900210E4800F0B1F9012211040C48AE
:101DE00000F0EEF8012211461720FFF7F7FC084833
:101DF0000068012109048843401805490860084625
:101E0000006840084000401C0860012007B000BD89
:101E10000060004000BF0549C9698904C90F002955
:101E2000F9D1024920390870704700004060004035
:101E300070B5064600201349087013490870012048
:101E400012490870002504E0002011494855681C1B
:101E5000C5B2772DF8DB0E4C32460EA12046FEF7B8
:101E600007FA03E02078FFF7D5FF641C20780028EC
:101E7000F8D100BF084840698006C00F0028F9D19A
:101E800070BD00002800002029000020270000204D
:101E900094010020257300000060004010B5002070
:101EA0002449087001210904234800F081F8002822
:101EB0003ED001210904204800F072F8002837D0F4
:101EC0001D48203004791D480078002823D01C4884
:101ED0001C490978405CA04219D11A480078401C7E
:101EE0001849087016480978405C0D280BD0144832
:101EF00014490978405C0A2805D01148114909782D
:101F0000405C002814D100200C49087010E000202B
:101F10000C4908700CE0202C0ADB7F2C08DC0A48F6
:101F20000A490978445409480078401C0749087058
:101F300010BD0000250000200060004027000020A8
:101F400094010020290000201C010020280000200E
:101F500010B50E4A002001230D4C237000BF0C4B1E
:101F60001B78002BFBD100BF0A4B5B699B04DB0F86
:101F7000002BF9D1084B197804E00023074C635477
:101F80004B1C99B27729F8DB012010BD003E4900B7
:101F90002500002000600040280000201C010020D7
:101FA00002460020D3690B40002B00D0012070476F
:101FB0000246002093690B40002B00D0012070479F
:101FC000012A03D183690B43836102E083698B4358
:101FD00083617047F0B585B005460C460027207B2D
:101FE00001280ED1A1680801FEF71AFC03905148A0
:101FF0000068FEF715FC02900399FEF71DFB0746EB
:1020000034E0207B02280ED1A1684801FEF708FCCD
:10201000039048480068FEF703FC02900399FEF71E
:102020000BFB074622E0207B03280ED1A168880124
:10203000FEF7F6FB03903F480068FEF7F1FB0290C5
:102040000399FEF7F9FA074610E0207B04280DD12A
:10205000A168C801FEF7E4FB039036480068FEF76C
:10206000DFFB02900399FEF7E7FA07463846FEF7D2
:10207000B9FA0022304B0191009000F033FD02D2FA
:1020800000202D4902E03846FEF7ACFA0391029099
:10209000FEF76AFA07468321C905384600F054FD69
:1020A0000390FEF779FB064668680721090288431A
:1020B000217B0902072212021140084368602E6149
:1020C00028680121490388432178490301225203EA
:1020D00011400843286028680F210902884361786D
:1020E00009020F22120211400843286028680121CA
:1020F00009038843A1780903012212031140084310
:10210000286028680F2109068843E17809060F2214
:1021100012061140084328602868012109078843F6
:10212000217909070122120711400843286005B0F0
:10213000F0BD0000100000200000F03F10B5426824
:1021400030239A430B01302423401A43426010BDD0
:102150004268920892008B079B0F1A4342607047B7
:1021600070B50446A079002802D02068450108E037
:102170007D21C90014480068FEF746F921684843EC
:10218000054612480560806808218843A179C90086
:102190000822114008430D498860084680680221E2
:1021A0008843217949000222114008430749886089
:1021B000084680680421884361798900042211401F
:1021C00008430249886070BD10000020001C0040D8
:1021D00030B47446641E2578641CAB4204D3635D3E
:1021E0005B00E31830BC18471D46F8E780F3108801
:1021F00070470000F8B506460F46144600200090D0
:10220000002533E03046FFF713FEFFF7A1FE01285B
:1022100027D1C82000F040F839461748FEF7D4F817
:1022200000280AD001200090FEF770FC7D20C0003D
:1022300000F032F8FEF764FC1BE0104800F02CF8C8
:1022400039460D48FEF7C0F800280AD0012000905A
:10225000FEF75CFC7D20C00000F01EF8FEF750FC8D
:1022600007E0064800F018F8681CC5B2601C8542FB
:10227000C8DB00BF0098F8BD1C01002088130000D7
:10228000002004E00021034A1154411C88B2772841
:10229000F8DB70471C0100200349086000BF0249B9
:1022A00009680029FBD17047040000207047000036
:1022B0003EB5044600200290019000900120104994
:1022C000086000200F490860012000F033FB0E4831
:1022D000FFF7DFFC0CE01420FEF7FCFC02900199F4
:1022E0000298884204D00098401C00900298019007
:1022F000034800680028EED10098206001203EBD10
:10230000200000201C000020002800403EB50446AC
:1023100000200290019000900120104908600020E8
:102320000F490860022000F005FB0E48FFF7B1FCE2
:102330000CE01620FEF7CEFC02900199029888422C
:1023400004D00098401C0090029801900348006857
:102350000028EED10098206001203EBD2000002022
:102360001C0000200028004070B5002500BF11218E
:1023700018A000F073F80646002E06D1052D01DDE9
:1023800000F096FA681C85B2F1E70025144C09E0CC
:102390002078302803DB2078392800DC04E0641C36
:1023A000681C85B2772DF3DB00BF207830280FDB67
:1023B000207839280CDC002505E0207809494855AB
:1023C000641C681C85B20F2DF7DB00200549C8731B
:1023D00070BD000041542B47534E0D0A0000000011
:1023E0001C010020F800002070B50446134D0A2699
:1023F000224613A11348FDF73BFF00201249087045
:10240000124908700120124908701249087000BF73
:10241000104800780028FBD109E00F4D761E002EF1
:1024200001D1002070BD00E06D1E002DFCD10848D8
:1024300000780028F1D10120F4E700000024F40026
:1024400025730000940100202800002029000020AE
:102450002700002025000020006CDC0270B5044637
:102460000D4622460EA10F48FDF702FF2046FFF75A
:10247000DFFC00200C4908700C49087001200C4951
:1024800008700C49087000BF0A4800780028FBD18A
:1024900000BF05480078A842FBDB012070BD0000AA
:1024A000257300009401002028000020290000204E
:1024B00027000020250000207CB505460C460020A2
:1024C0000190009001A8FFF7F3FE6846FFF71EFF9A
:1024D000019828600098206001207CBD00200349FD
:1024E00009680722D2021140C80A70470004004060
:1024F0000024FFF727FBFFF791F826E0FFF70EF81F
:102500000A2C02DD00BF00F0D3F9FFF717F801280D
:1025100014D10024FFF7B4FE0C4800F01BF80B4860
:10252000FFF786FC1A20FFF775FC0848FFF7F0FB61
:10253000012805D1054800F099F801E0601CC4B2FB
:1025400000F0E6F90248FFF7A7FED7E71C010020DC
:10255000B80B000030B591B0054600200390029002
:1025600002A903A8FFF7A8FF2B480078302803D161
:1025700029480078312802D0302127480170264AA6
:10258000203A26A12846FDF773FE84B226A104A8AE
:10259000FDF76EFE001984B204A92846FDF728FF56
:1025A0001D48027823A104A8FDF762FE001984B239
:1025B00004A92846FDF71CFF17484078C007C00F44
:1025C0003030009014484078022108404010034603
:1025D00030331148407804210840801002463032E0
:1025E00017A104A8FDF744FE001984B204A92846E7
:1025F000FDF7FEFE0848203840690090029B039AD0
:1026000013A104A8FDF734FE001984B204A92846DA
:10261000FDF7EEFE11B030BD180100207B22534EB5
:10262000223A25732C00000022434D44223A2230E6
:1026300031222C002254595045223A25632C0000A7
:10264000225653223A22256325632563222C00005B
:102650002254445331223A25752C225444533222B9
:102660003A25752C2246223A25757D00F1B586B0B3
:10267000002500200490002600270390029001907E
:102680000090069805907DA10598FDF79DFE041E1B
:1026900002D0A079049003E06806050E01200543EE
:1026A000059478A10598FDF78FFE041E11D0002631
:1026B000641D2078312801D1301DC6B260783128E0
:1026C00001D1B01CC6B2A078312806D1701CC6B2A8
:1026D00003E06806050E0120054305946AA10598EC
:1026E000FDF772FE041E15D0E41C002710E02078D0
:1026F00030280CDB2078392809DC38460A21484389
:10270000074620783038C019C7B2641C00E000E0EA
:10271000EDE703E06806050E0120054305945BA183
:102720000598FDF751FE041E18D0241D00200390CB
:1027300012E0207830280EDB207839280BDC0A21C3
:102740000398484303902078303803994018C0B26A
:102750000390641C00E000E0EBE703E06806050E70
:102760000120054305944AA10598FDF72DFE041E9E
:1027700017D0241D0020029011E0207830280DDBB6
:10278000207839280ADC0A210298484302902078F0
:102790003038029940180290641C00E000E0ECE739
:1027A00003E06806050E01200543059439A105984C
:1027B000FDF70AFE041E17D0241D0020019011E031
:1027C000207830280DDB207839280ADC0A2101988E
:1027D0004843019020783038019940180190641CDA
:1027E00000E000E0ECE703E06806050E0120054389
:1027F000059429A10598FDF7E7FD041E17D0241DB7
:102800000020009011E0207830280DDB2078392856
:102810000ADC0A210098484300902078303800995B
:1028200040180090641C00E000E0ECE703E068065C
:10283000050E01200543002D1ED11849049808708B
:102840000846467087700398C8702039029808615E
:102850000198C86100988861092110482038FFF765
:10286000DDF80A20FFF718FD09210C482038FFF792
:10287000D5F8012007B0F0BD0020FBE754595045C2
:1028800000000000565300005400000046540000B1
:102890005346000052540000455400001801002027
:1028A000182002494861C043486370470004004053
:1028B00009211248FFF7B2F8012040061049C8600C
:1028C0001048FFF7E9FC0F48FFF7E6FC0D48FFF75B
:1028D000E3FC0C48FFF7E0FC0A48FFF7DDFC094881
:1028E000FFF7DAFC00BFBFF34F8F07480749C86006
:1028F000BFF34F8F00BF00BFFEE70000F8000020CD
:1029000000040040881300000400FA0500ED00E018
:1029100070B5FFF7CBFC0446FFF7E0FD0546044821
:10292000406900190249486108462030457070BD71
:10293000F80000207047000010B504460120400652
:102940002B49C8616420FFF7A7FC012040062849F5
:1029500088607D200001FFF79FFC2648FFF768FA9A
:102960006420FFF799FC2448FFF796FC2248FFF704
:1029700093FC2148FFF790FCFEF7C8F87D20C000CB
:10298000FFF78AFCFEF7BCF8FFF77AFC1948FFF75F
:102990004FFA7D20C000FFF77FFC6420FFF77CFC2E
:1029A0000A2216A11648FFF725FC0A2213A115A03A
:1029B000FFF720FC0A2211A11648FFF71BFC022298
:1029C0000EA115A0FFF716FC0B48FFF765FC184891
:1029D000FFF762FC1748FFF72BFA7D200001FFF795
:1029E0005BFCFFF7C1FC7D20C000FFF755FC10BD6C
:1029F000000400402B000020881300004F4B000013
:102A00003000002041542B434D4744413D360D0AD0
:102A1000000000006300002041542B434D47444117
:102A20003D2244454C20414C4C220D0A0000000040
:102A3000B80B0000C1000020FF204130024948616E
:102A4000C043486370470000000400401CB50021EB
:102A5000684601708170C170012001906846417024
:102A600069460D48FFF7E0F802210B48FFF72BF904
:102A700000210948FFF733F908490748FFF741F9F2
:102A8000012211460448FFF714F9012211460A20D9
:102A9000FEF7A4FE1CBD00000028004080BB000023
:102AA0001CB500216846017081704170C1700171D0
:102AB00069461920FEF7D9F869461A20FEF7D5F8BD
:102AC00069461B20FEF7D1F800211920FEF700FD12
:102AD00000211A20FEF7FCFC00211B20FEF7F8FC69
:102AE0001CBD000070B501250C002D051C4310D441
:102AF000EC4206D4AC420AD4994200D070BD904258
:102B000070BDE94217D4EB4215D4994270BD894299
:102B100070BDEC4206D5AC42F9D58B4200D070BDF9
:102B2000824270BD6D004C00EC4204D25C00EC426D
:102B300001D28B4270BD034C30B4FDF715FF30BCA1
:102B400070BD00BF1900160470B5420064414B000F
:102B50005C41120E39D01B0E38D0FF2A3CD0FF2B1F
:102B60003AD040024902400A490A060045184E433D
:102B7000000A090AD2184843ED017F3A0104731A8A
:102B80004019190C4318990F04D001215B0849071B
:102B90005B1A521CD80904D3401CF50301D19D06D1
:102BA00007D0FF2A08D2D50506D0E40720434019F4
:102BB00070BD0125A843F4E7002A01DCE00770BDE1
:102BC0002402FF202043C00570BD1B0EFF2A03D046
:102BD000FF2B01D0E00770BDFF2645003606B54249
:102BE00006D84D00B54203D8D218FF2A00D0E7E737
:102BF000004870BD0000C07F8182838485868788FD
:102C0000898B8C8D8E8F919293959697999A9C9D96
:102C10009FA0A2A3A5A7A8AAACAEB0B2B3B5B7B9FE
:102C2000BCBEC0C2C5C7C9CCCED1D4D7D9DCDFE2C7
:102C3000E6E9ECF0F3F7FAFE582C00000000002063
:102C4000F800000004010000502D0000F8000020F2
:102C500078050000200100000000000000000000D6
:102C60000000000000000000006CDC02000000001A
:102C70000000000000000000006A180001010101CE
:102C800000000041540D0A0041542B434D47463D7E
:102C9000300D0A0041542B434D474C3D22524543D1
:102CA00020554E52454144220D0A0041542B434EBB
:102CB0004D493D2247534D220D0A0041542B434DAF
:102CC00047463D310D0A0041542B435354543D2295
:102CD000434D4E4554220D0A0041542B434949436C
:102CE000520D0A0041542B43494653520D0A0041EC
:102CF000542B43495053544152543D225443502283
:102D00002C223132302E37382E36322E3138222CCA
:102D10002236303031220D0A0041542B43495053A2
:102D20005249503D310D0A0041542B4349505345FF
:102D30004E440D0A0041542B434950434C4F5345D8
:102D40000D0A0041542B434950534855540D0A0075
:04000005000000C136
:00000001FF
