:020000040000FA
:1000000018090020890100009501000097010000F7
:1000100000000000000000000000000000000000E0
:100020000000000000000000000000009901000036
:1000300000000000000000009B01000005250000FA
:100040009F0100009F0100009F0100009F01000030
:100050009F0100009F0100009F0100009F01000020
:100060009F010000B1260000F12600009F01000062
:100070009F010000000000000000000000000000E0
:100080009F0100009F0100009F0100009F010000F0
:10009000000000009F0100009F010000212A0000D5
:1000A0009F0100009F010000000000009F01000070
:1000B0009F0100009F010000000000009F01000060
:1000C00000F002F800F050F80CA030C808382418EE
:1000D0002D18A246671EAB4654465D46AC4201D180
:1000E00000F042F87E460F3E0FCCB6460126334262
:1000F00000D0FB1AA246AB4633431847F44D00002C
:10010000244E0000103A02D378C878C1FAD85207BA
:1001100001D330C830C101D504680C6070470000BD
:100120000023002400250026103A01D378C1FBD813
:10013000520700D330C100D50B60704710B5752948
:1001400002D100F00BF910BD632902D101F016F8BD
:1001500010BD732902D101F019F810BD002010BDA7
:100160001FB51FBD10B510BD01F06EFA1146FFF7A7
:10017000F7FF03F04DFB01F086FA03B4FFF7F2FF3F
:1001800003BC01F0B7FA00000548804705488047E6
:1001900005480047FEE7FEE7FEE7FEE7FEE7FEE76D
:1001A000AD01000011260000C100000000B500BF35
:1001B00000BF00BF00BF00BF19481A4901601A48BC
:1001C0001A4F00F010F81A481A4F00F00CF81A48AD
:1001D0001A4F00F008F81A481A4F00F004F81048B7
:1001E0001949016000BD00B5184A0168914203D168
:1001F0000168914200D112E0154D164C0A002240D0
:100200000B0A2340D2180B0C2340D21822400B0EAD
:100210009A4203D0013D02D00168EFE7396000BD8A
:1002200080000040699655AA24011000A4000040F7
:1002300028011000A80000402C0110009C00004084
:1002400030011000A000004000000000FFFFFFFF91
:1002500003000000FF00000002480349014A034B6D
:10026000704700001805002018090020180500201C
:100270000FB41CB5084B06AA7B446946009005984C
:1002800000F059FF04460020694600F067FF204651
:100290001CBC08BC04B01847E10E0000F8B50E46BF
:1002A0000446002020622046E1688847002829D0C3
:1002B000252802D06268A16820E0E1682046002776
:1002C000884705001ED028464138192802D8012742
:1002D000FF0220353246204627602946FFF72EFFD1
:1002E000002808D0012804D0F61DF608F6000836CC
:1002F000D9E7361DD7E762682846A1689047206A8B
:10030000401CCFE7206AF8BD70B50C460546012AAF
:1003100005D02878800600D5EA69002302E0012391
:1003200005E05B1C934202D2E05C0028F9D1A86989
:10033000E618C01AA861286AC01828622846C04674
:10034000C04604E06A682078A968641C9047B442FB
:10035000F8D32846C046C04670BD0000F7B500255A
:1003600075291068009914A611D0C046C04600280F
:1003700002DA404211A608E0009909688A0701D50F
:100380000FA602E0490704D50EA6012501E0C046EC
:10039000C046009F0024243704E000F0FBFE30310B
:1003A0003955641C0028F8D12B4632462146009866
:1003B00000F064FEFEBD0000000000002D00000003
:1003C0002B0000002000000030B505460B462A46F1
:1003D0001C781078521C5B1C002801D0A042F7D07A
:1003E000002C03D0002802D06D1CEFE7284630BD5A
:1003F000421E5378521C002BFBD10B78491C137002
:10040000521C002BF9D17047002203098B422CD3D8
:10041000030A8B4211D300239C464EE003460B4354
:100420003CD4002243088B4231D303098B421CD3B6
:10043000030A8B4201D394463FE0C3098B4201D3A8
:10044000CB01C01A524183098B4201D38B01C01AE0
:10045000524143098B4201D34B01C01A5241030957
:100460008B4201D30B01C01A5241C3088B4201D306
:10047000CB00C01A524183088B4201D38B00C01AB3
:10048000524143088B4201D34B00C01A5241411ADA
:1004900000D201465241104670475DE0CA0F00D0BD
:1004A0004942031000D34042534000229C460309B6
:1004B0008B422DD3030A8B4212D3FC22890112BA3C
:1004C000030A8B420CD3890192118B4208D3890114
:1004D00092118B4204D389013AD0921100E089092C
:1004E000C3098B4201D3CB01C01A524183098B420D
:1004F00001D38B01C01A524143098B4201D34B01F6
:10050000C01A524103098B4201D30B01C01A524158
:10051000C3088B4201D3CB00C01A524183088B42DF
:1005200001D38B00C01A5241D9D243088B4201D368
:100530004B00C01A5241411A00D201466346524153
:100540005B10104601D34042002B00D54942704752
:1005500063465B1000D3404201B50020C046C04650
:1005600002BD7047704770470246C80FC0078143FD
:100570004B0030B54B405B009B0D20D01923DB06B0
:10058000C91801231B05994220DB0324A407042575
:100590001346AB400BD3002B04D1EB0613409B005A
:1005A000E34204D401246407002312195941FF23B4
:1005B0001B0599420BD2C9000143500F09E0CB0241
:1005C00004D501430803024305D0054830BDFF218F
:1005D000C905084330BD084607210905884330BDD9
:1005E0000000C07FF0B50C46871A9C410D46861A64
:1005F0009D4103D2C01BA141D21963410D0D1F0DB6
:10060000C94EEC1BAE435CD07F057F0D0026002F4A
:1006100051D02D05AC46A943DD020123ED0A1B058F
:100620001D4320231B1B24D41746E7403818714173
:100630002F46E740CC199D402818314661410C0DEA
:1006400027D161449A4013D50023401C59415200E0
:100650000ED14008400001224B005205D34207D37F
:1006600005204007C14201D5B04900E0B0493046FD
:10067000F0BD6B00002A00D001229A181F23203CF5
:100680001B1B01D5002302E0E540281871410C0D29
:10069000D7D0012424050919C407CD07400849080B
:1006A000E40F28436144002CD5D00024401C614154
:1006B0009A40D0D1CDE76A05520DD9D1C90FC907EB
:1006C000D5E79C4D4E00002801D0012400E0002415
:1006D00034195F00002A01D0012600E00026BE196F
:1006E000954FAC420CD8AE420AD8B44206D0012590
:1006F0006D05EC42BCD010461946F0BD9942FCD0C5
:1007000000203946F0BDF0B51FB40C460F46811AE3
:100710009F412546861A9D4106D20125ED076F406F
:10072000401ABC4152187B41210D1E0D8D1BAC4659
:100730007D4D8D437ED075056D0D7CD00D05AE468B
:10074000AC431B031B0B794D52429D41202366464F
:100750009B1B14D31746F7403818002600907441AD
:1007600060462F460741E41900989D4028186641CD
:1007700016D4714671189A4025D5012320E09318AC
:100780002A466A415200002B00D0521C1E23203EF4
:100790009B1B002B61DD3541EE1728186641E8D51B
:1007A000001876415B1C9A4000D3401C4B05F3189F
:1007B0001524E34010D3002B52D071467118D30F8B
:1007C000C01802D3491C05B0F0BD0123DB079A42D3
:1007D000F9D140084000F6E701225205B21801D1D4
:1007E000002853D00123CC0ADB029943891E002A3A
:1007F00008D1020C03D0020C0004103902E00246BA
:10080000002020390023550B05D112020823550B77
:1008100001D152010D23550C01D112011B1DD50C24
:1008200001D192009B1C150D01D152005B1C2025AB
:10083000EE1A01E02CE022E00546F5401543984011
:10084000CA1AE10769181305C918002ABBDA032080
:1008500040070818C10FC9070FE071466118B2E7D9
:10086000F10740080843711071444A000CD001237D
:100870005B059A42A7D2C90FC9070020A3E7490523
:10088000490D26D1002001E00028F4D100219AE78B
:10089000284D6600002801D0012100E000217118D8
:1008A0005F00002A01D0012600E00026BE19224F79
:1008B000A94210D8AE420ED8B14208D001256D052C
:1008C000E94206D01946A802414010467BE79C4207
:1008D00001D0214677E70020394674E710B50C4671
:1008E0005C4005D50124E4076340FFF70CFF10BD11
:1008F000FFF778FE10BD30B40C465C4004D50124EF
:10090000E407634030BC6DE630BCFCE670B5012402
:10091000E40761400D465D4002D4FFF763FE70BD01
:100920006340FFF7F0FE70BDFF0700000000F0FF1E
:100930000000F07F0000E0FF0000F87FF0B5F94D07
:100940000C091E092C402E402F468BB0A7437DD0AA
:10095000B543FCD0002E7AD0002CFCD00D465D4073
:10096000ED0F2543AC1BFF25AD0464190894C502A7
:10097000440DC9022143500DDC0204430120C0078D
:1009800001430443D2020191200C110C00958C46C6
:10099000010423468B430A9161460904E24D8A43D0
:1009A0000991010A7D4449198039097805464D436A
:1009B00001266D18F605751B6943C90C640B891C6B
:1009C0004C436418B5012C1B250C2E04B4434C4336
:1009D0004D43210C691889090591009DE90701D053
:1009E0000121C90704912C4601996708CD072F43BF
:1009F0004C08059DE10B4D432D0C29466646754379
:100A000002950D4645432E46029D7D1BB44100953F
:100A10000D465D4301942C0C2F040D465543AE4604
:100A20002D0C3D43029503947546049C2D04641BD4
:100A3000049406D2029C039D641C00267541039514
:100A4000029401AC70CC009F7D1B01E03EE162E1AD
:100A5000B44109040095079101940599A4086143E4
:100A6000090C0C464443650BE7040C466646744388
:100A7000A646640B3C43039502947446049DE4042B
:100A80002C1B049406D2029C039D641C0026754115
:100A90000395029401AC70CC009F7D1BB44101947E
:100AA0000C465C430095650FE7000C465443A64690
:100AB000640F3C43039502947446049DE4002C1B90
:100AC000049406D2029C039D641C00267541039584
:100AD000029401AC70CC009F7D1BB441AE09AF06FF
:100AE000049DC900AD092F43049DA406AD060495DD
:100AF000079D344369180791059DE10B4D432D0C6B
:100B000029466646754302950D4645432E46029D8D
:100B10007D1BB44100950D465D4301942C0C2F04C0
:100B20000D465543AE462D0C3D4302950394754644
:100B3000049C2D04641B049406D2029C039D641C37
:100B4000002675410395029401AC70CC009F7D1B7B
:100B5000B44101948C050694079C890A611800959C
:100B60000791019C0599A4086143090C0D46454372
:100B7000680BEF040D46644665436C0B3C43049FD1
:100B8000ED047D1BAC4602D20025641C6841009E2A
:100B9000019D371B85410846584301950C46460F79
:100BA000C5005443600F28436546E4002C1B02D265
:100BB0000025401C6E41019D3F1AB5412846BD09E4
:100BC000800628438446A009BF064E020699A40663
:100BD00076180743079D002068410A99079019433A
:100BE0000020099B00906046FF1913434041E20F2B
:100BF00064003A43A4460446D71A8C41A04203D964
:100C00000120009020463A46C70F941840416246A2
:100C1000D20F2243644664000494009CBE466400E4
:100C2000D71AA446044602978C417746002F01D17B
:100C3000A04204D96046401C8446029A2046C40F54
:100C4000A64694184041049A0546D20F22436446B2
:100C50006400D31A8D417146002901D1A84202D9FE
:100C600028461A46641C10430122002800D016436F
:100C700061020020079B891904465C410223002C75
:100C800002DB491813466441089DCE0A2D145D19F4
:100C90004B056705E10A2C050D1908993E43C90764
:100CA0006940002B08D0934006D30022761C5141A6
:100CB000002B01D1760876001C4A002D43DB15423B
:100CC00041D0AA433FD030460BB0F0BD06180D46C8
:100CD0004D41174C7642AC411AD395181C465C41E5
:100CE000134A6D42A24113D3012252054C00D44253
:100CF0000AD15C00D4420BD04B4002D59202114382
:100D0000E2E749004908DFE75940C90FC90718E081
:100D100000200849D8E7054801420DD10342F7D029
:100D2000F2E700000000FF07BC4300000000F07F76
:100D30000000E0FF0000F87F114859400143C01255
:100D400041400020C0E70123089A9B069A4205DC37
:100D5000032252078918C90FC907B5E705225207B0
:100D60008918074A1143D2125140ADE770B51546B4
:100D70001C4602460B4628462146FFF7DFFD70BDA4
:100D8000FFFFFF7F0346CA02400D10B510430A154E
:100D900004D00124E4072043002A05DB0A4CA21AF0
:100DA00004D4D040FF2A00DD002010BD4A00002BF3
:100DB00001D0012000E00020101801225205D0428D
:100DC000F2D8C817C04310BD1E0400001F22030C38
:100DD00002D10F22000402D0030E03D004E0002051
:100DE000014670470002083A030F01D10001121FAB
:100DF000830F01D18000921E002801DB4000521EAB
:100E0000120551184205C012411810467047C10F13
:100E1000C90700D04042012292071143D6E70121C1
:100E20008907D3E70121C9050123411842001B06A8
:100E3000D3185B0E0AD0C1100722D20689184007CA
:100E40005242D14201D5520089187047090208D593
:100E50000146002A03D0C10FC90700207047104681
:100E60007047420202D0002002497047072109055D
:100E70000143F4E70000F87FF0B5FF252D04C60913
:100E8000C209FF2704462E400137CB093E434840A4
:100E90002A402B400746002A6BD0002B69D0AA427B
:100EA00067D0AB4265D0002800DA32460125ED0557
:100EB00029432C4309022002090AD21A4B0C7F2431
:100EC000E31A434C000A7C44E35C7D242404121999
:100ED00014145B00A218884201D3521C00E04000A9
:100EE00049420C465C4324115C43DB016415E31862
:100EF000040A5C43C502200D0C4644436419250ACC
:100F00005D432303EC0C0D46654300030019EB1809
:100F10004C42A34201D35B18401CD4052018002B7F
:100F200007D05B00C91804D3401C002901D1400838
:100F300040003F2189048A4209D3002A08DC1106B7
:100F4000090F04D0032149074018C00FC007F0BDA6
:100F500001224100120689187F2252069142F6D2E0
:100F600005214907C84201D59010F0BDFF20C005FA
:100F7000F0BD002F00DA32461648AA4207D2AB4233
:100F800005D21902090E17D0F80FC007F0BDFF25D2
:100F900063002D06AB42F9D84900A942F6D8AB420E
:100FA00001D1A942F2D0A94201D1002101E06100A2
:100FB0004908D0050843F0BD1102090EFBD0FF20FF
:100FC0000243D005F0BD0A460146104654E7000032
:100FD0001A3F00000000C07F0102C21504D00123A7
:100FE000DB071943002A0ADB9E239A1A02D408461B
:100FF000D0407047FF2241001206914201D90020E3
:101000007047C017C04370471F22030C02D10F2244
:1010100000041CD0030E01D10002083A030F01D1D5
:101020000001121F830F01D18000921E002801DBF6
:101030004000521ED2055118021251181922904038
:1010400004D3491C002801D14908490008467047CB
:10105000C10FC90700D04042012292071143D3E7D4
:1010600001218907D0E710B500F044FA006810BDEF
:1010700010B5044600F03EFA046010BDFFB504460A
:101080000D4681B0243000902168880604D51022D6
:10109000E0699143216000E00120A84201DD471B87
:1010A00000E000270498A1697A191018081AA061B5
:1010B0002078C00602D42046C046C046002608E07C
:1010C00003986268A168805D9047206A401C761C86
:1010D000206204988642F3DB2078C0060AD52046B9
:1010E000C046C04606E06268A16830209047206A8A
:1010F000401C206238467F1E0028F4DC07E0009880
:101100006268A168405D9047206A401C20622846C2
:101110006D1E0028F3DC2046C046C046207800063D
:1011200002D5022005B0F0BD0120FBE701694A1C91
:1011300002610878704700B58FB0029100210591D7
:101140000549019379440391114604906846FFF7DD
:10115000A5F80FB000BD0000E5FFFFFF0A681070A2
:10116000521C0A60704710B54369002B02D0C0467C
:10117000C04601E0FFF7C8F8012010BD1278014613
:1011800024310A7000224A700122ECE71168002223
:10119000D243E8E701468008081A02091018020A3B
:1011A0001018020C1018C008820012185200891A78
:1011B00001E0401C0A390A29FBD27047F8B5224CDD
:1011C0004E00069DA6420AD8A64201D1002806D1AB
:1011D0005E00A64203D8A6420AD1002A08D00D24F8
:1011E000240425422CD02946002000F087F9F8BDC0
:1011F0000C461C430CD4994202D0EFF30080F8BD9A
:10120000904202D0EFF30080F8BDEFF30080F8BD0C
:1012100009242407E5008B4206D0EFF30080A043A9
:10122000591A06D2284304E0101A05D3EFF30080C0
:10123000A04380F30088F8BDEFF30080A043F1E7FE
:10124000009500F073F9F8BD0000E0FFF0B58B4C9D
:101250000F09254689B0BD437BD01D092646AE4304
:10126000FAD00E465E402740F60F3E43254071D02F
:1012700024012142FBD0FF24AD19A4042D1B0395AA
:1012800001252D05DB02DB0AC9022B43C90A2943CC
:101290001E010901040F130F050121431701880BDB
:1012A000820391432D098C46A90B1E438A03954363
:1012B000B30B9A0396433F09BA0B9403A7430296D4
:1012C0002E467E430497B6464E19D7190C46019612
:1012D000544305977E43371B7646BF1B3601B646FF
:1012E000BE0B361900967646BC043719009C01D314
:1012F000641C00946400002F01D001263443029E38
:10130000049F754366467E430496760034196E004A
:1013100034190094029C019E1C196643751BAE464D
:10132000069465464519059C05956C4359437546D9
:101330000891691A0191049E01465143A41B04912E
:10134000611A009C0791E10605D061090122114351
:1013500002E072E06EE06109089D00272C0A2D066C
:101360006918049D7C412A0A2D066918019D624175
:10137000AC0DAD026D185441079A910D92025519AA
:101380006141029A644658435443069B059A5A4366
:10139000121A131B9A0E9B015B187A41010B000570
:1013A000C3185141220A200644195A419A4200D2D8
:1013B000491C01204002814203D315230226F64333
:1013C00002E014230326F6432020C51AA94017463D
:1013D000AF40DA400A4320460399D84009147318F5
:1013E00019055118039A3843D2075140AC4009D02F
:1013F0000122944006D30022401C5141002C01D10F
:10140000400840001E4A934212D3012203989206DC
:10141000904207DB0520400709181A480143C01213
:10142000414004E0032040070818C10FC90700200D
:1014300009B0F0BD0020F107FAE705180C464C4151
:1014400011486D42A04115D394181A465A410E48CE
:10145000644290410ED301204A004005824209D3E4
:101460005A00824206D35940C90F084AC9070020D2
:101470001143DDE700200649DAE700000000FF071E
:10148000FE070000FFFFFF7F0000E0FF0000F07F8D
:101490000000F87F70B505464800440D124B00204F
:1014A000002C0AD0634008D09A4206DA6642B24263
:1014B00003DD12054019514170BD002C08D0002BEE
:1014C00009D0C90FC907002AF6DB084A114370BDCD
:1014D000C90FC90770BD28460A03104302D0002077
:1014E000034970BD284670BDFF0700000000F07F73
:1014F0000000F87F00487047B8040020C80212D5E9
:101500004803400F002804D0C803C043012188408D
:101510007047EFF300800001000903210907084329
:1015200080F30088704700207047000010B500204D
:101530000249029A00F0AFF810BD00000000F87FE9
:10154000F0B53D4B02460C461C400020002C63D0F9
:101550003A4D8B4366D000296BDB0B0D1D05A9436B
:1015600001252D0529430124FD33E34001D39218C1
:101570004941FF3381339C468B02940D0121234363
:1015800089074C42920200271B198C105D1A04D463
:101590002D1B02D42B466500491992185B41640843
:1015A000F4D15C1A08D40125ED07EE1755197441E2
:1015B00002D42A462346491C94185B410122920713
:1015C0001D46E61B8D4106D4B61A854103D42B4631
:1015D000550034467F1924195B415208802AEFD107
:1015E000234300D0022338460A22D04001D30122EF
:1015F00013438A0510436246890A12058918002B95
:1016000009D00122D34002D30022401C5141002BBB
:1016100001D140084000F0BD0B03134307D0C90FB0
:10162000C907F0BD0803104303D1002901DB1046B0
:10163000F0BD00202946F0BD0000F07F0000F87FDB
:1016400000487047B80400207546FFF7F9FFAE4622
:10165000050069465346C008C000854618B020B54D
:10166000FEF7FAFD60BC00274908B6460026C0C553
:10167000C0C5C0C5C0C5C0C5C0C5C0C5C0C5403D4A
:1016800049008D46704710B50446C046C046204606
:10169000FEF773FD10BD10B50C461107090F09299F
:1016A00004D00A290AD008290CD104E011460820E8
:1016B000FFF724FF06E0510606D501E0510601D5EB
:1016C0000120C007214610BDD10607D50101090937
:1016D000CC084907000E0006044309E0410F200230
:1016E0004907000A0143200E00061D22D141014393
:1016F0000846E7E701491820ABBEFEE726000200D6
:10170000704770B58C180578401C6B075B0F01D1D2
:101710000378401C2A1106D10278401C03E00678A9
:10172000401C0E70491C5B1EF9D12B0705D4002309
:10173000521E0DD40B70491CFAE70378401CCB1ADB
:10174000921C03E01D780D70491C5B1C521EF9D5DC
:10175000A142D8D3002070BD03B40148019001BD5F
:10176000B101002003B40148019001BD0100002037
:1017700000200149087070470C0200200120014937
:10178000087070470C0200201CB5002168460170EB
:1017900081704170C170017169460F2000F09DF8A1
:1017A00000210F2000F0CCFC1CBD000001218907A6
:1017B0000968C807C00F002803D007490122920713
:1017C00011600021C943054A9160002802D0002120
:1017D00012061160704700009669AA55400000404B
:1017E00000B501460B0001F009FB2E181A1C1E2043
:1017F000222426282A2C2E30323436383A3C3E40D9
:10180000424446484A4C4E50525456585A5C5E60C8
:10181000626466686A6C6E70727400205BE001201E
:1018200059E0022057E0032055E0042053E0052052
:1018300051E006204FE007204DE008204BE0092052
:1018400049E00A2047E00B2045E00C2043E00D2052
:1018500041E000203FE001203DE002203BE003208A
:1018600039E0042037E0052035E0062033E007208A
:1018700031E008202FE009202DE00A202BE00B208A
:1018800029E00C2027E00D2025E00E2023E00F208A
:1018900021E010201FE011201DE012201BE013208A
:1018A00019E0142017E0152015E0162013E017208A
:1018B00011E018200FE019200DE01A200BE01B208A
:1018C00009E01C2007E01D2005E01E2003E01F208A
:1018D00001E0002000BF00BF00BD30B505460C464A
:1018E000207801280CD10121284600F0F5FB0121C8
:1018F000284600F073F80021284600F095F81FE014
:101900000021284600F0E8FB6178284600F066F8E0
:10191000A178284600F088F86078002808D1E1789E
:10192000284600F03DFB2179284600F023F807E027
:101930006179284600F09CFBA179284600F064FB01
:1019400030BD000030B504462046FFF749FF05468C
:101950000D2C02DC0648026802E005488038026867
:101960001046E8400246D207D20F104630BD0000B4
:101970008004004030B505460C462846FFF730FF8E
:1019800002460D2D11DC002C07D1134840680121BF
:1019900091408843104948601CE00F48406801218D
:1019A000914008430C49486014E0002C09D10A48D2
:1019B0008038416801209040814307488038416069
:1019C00008E00548803840680121914008430249F9
:1019D0008039486030BD0000C004004030B5054685
:1019E0000C462846FFF7FCFE02460D2D0BDC012CB1
:1019F00004D1012090400B49886111E00120904002
:101A00000849C8610CE0012C05D10120904005492E
:101A10008039886104E00120904002498039C86122
:101A200030BD00008004004030B50246002906D0D9
:101A3000012906D0022906D0032908D105E000209B
:101A400007E0012005E0022003E0032001E0002080
:101A500000BF00BF130001F0D1F92E18222D3A4724
:101A600054616E7B85909DAAB7C4F0FDEDECEBEA66
:101A7000E9E8E7E6E5E4E3E2E1E0DFDEDDDCDBDA4E
:101A8000D9D8D7D6D5D4D3D2D1D0FC4B5B6A9B085A
:101A90009B008407A40F2343F84C63627BE2F74B5F
:101AA0005B6A3024A343040130252C402343F34CCC
:101AB000636270E2F14B5B6A03242402A3430402D5
:101AC00003252D022C402343EC4C636263E2EB4B75
:101AD0005B6A03242403A343040303252D032C4042
:101AE0002343E64C636256E2E44B5B6A032424041E
:101AF000A343040403252D042C402343DF4C6362DD
:101B000049E2DE4B5B6A03242405A3430405032555
:101B10002D052C402343D94C63623CE2D74B5B6AD2
:101B200003242406A343040603252D062C40234347
:101B3000D24C63622FE2D14B5B6A03242407A34398
:101B4000040703252D072C402343CC4C636222E27B
:101B5000CA4B9B6A9B089B008407A40F2343C74C76
:101B6000A36218E2C54B9B6A3024A34304013025CD
:101B70002C402343C14CA3620DE2C04B9B6A03245B
:101B80002402A343040203252D022C402343BB4C13
:101B9000A36200E2B94B9B6A03242403A34304031A
:101BA00003252D032C402343B44CA362F3E1B34B34
:101BB0009B6A03242404A343040403252D042C401E
:101BC0002343AE4CA362E6E1AC4B9B6A032424059D
:101BD000A343040503252D052C402343A74CA362F2
:101BE000D9E1A64B803B5B6A9B089B008407A40F4E
:101BF0002343A24C803C6362CDE1CBE1BDE1AFE188
:101C0000A1E193E185E177E16BE160E152E144E13B
:101C100036E123E113E103E1F5E0E8E0D8E0C8E0D4
:101C2000B8E0A8E098E088E07AE06DE05DE04DE0A3
:101C30003DE02DE01DE00DE0FFE7904B803B5B6A4F
:101C40003024A343040130252C4023438B4C803C9B
:101C50006362A0E1894B803B5B6A03242402A343B7
:101C6000040203252D022C402343844C803C6362F4
:101C700091E1824B803B5B6A03242403A34304036A
:101C800003252D032C4023437C4C803C636282E17E
:101C90007A4B803B5B6A03242404A343040403259A
:101CA0002D042C402343754C803C636273E1734BDD
:101CB000803B5B6A03242405A343040503252D050B
:101CC0002C4023436D4C803C636264E16B4B803B52
:101CD0005B6A03242406A343040603252D062C4037
:101CE0002343664C803C636255E1644B803B5B6AF6
:101CF00003242407A343040703252D072C40234373
:101D00005E4C803C636246E15C4B803B9B6A9B0877
:101D10009B008407A40F2343584C803CA3623AE104
:101D2000564B803B9B6A3024A343040130252C4052
:101D30002343524C803CA3622DE1504B803B9B6A75
:101D400003242402A343040203252D022C40234331
:101D50004A4C803CA3621EE1484B803B9B6A0324B3
:101D60002403A343040303252D032C402343434CA6
:101D7000803CA3620FE1414B803B9B6A0324240417
:101D8000A343040403252D042C4023433B4C803CF7
:101D9000A36200E1394B803B9B6A03242405A343E3
:101DA000040503252D052C402343344C803CA362BD
:101DB000F1E0324B803B9B6A03242406A3430406D4
:101DC00003252D062C4023432C4C803CA362E2E0EB
:101DD0002A4B803B9B6A03242407A3430407032563
:101DE0002D072C402343254C803CA362D3E0234B9A
:101DF000803BDB6A9B089B008407A40F23431F4C96
:101E0000803CE362C7E01D4B803BDB6A3024A34388
:101E1000040130252C402343184C803CE362BAE097
:101E2000164B803BDB6A03242402A34304020325F0
:101E30002D022C402343114C803CE362ABE00F4B5E
:101E4000803BDB6A03242403A343040303252D03FF
:101E50002C402343094C803CE3629CE0074B803BD1
:101E6000DB6A03242404A343040403252D042C402B
:101E70002343024C803CE3628DE00000800400407C
:101E8000464BDB6A03242405A343040503252D05E3
:101E90002C402343414CE3627DE0404BDB6A03244A
:101EA0002406A343040603252D062C4023433B4C64
:101EB000E36270E0394BDB6A03242407A343040781
:101EC00003252D072C402343344CE36263E0334B5E
:101ED0001B6B9B089B008407A40F23432F4C236399
:101EE00059E02E4B1B6B3024A343040130252C40BA
:101EF00023432A4C23634EE0284B1B6B032424020C
:101F0000A343040203252D022C402343234C2363C7
:101F100041E0224B1B6B03242403A343040303254A
:101F20002D032C4023431D4C236334E01B4B1B6BC0
:101F300003242404A343040403252D042C40234339
:101F4000164C236327E0154B1B6B03242405A34386
:101F5000040503252D052C402343104C23631AE070
:101F60000E4B1B6B03242406A343040603252D06F6
:101F70002C402343094C23630DE0084B1B6B0324C7
:101F80002407A343040703252D072C402343034CB8
:101F9000236300E000BF00BF30BD0000000400402C
:101FA00030B505460C462846FFF71AFC02460D2DB3
:101FB00011DC002C07D11348806B0121914088432C
:101FC000104988631CE00F48806B01219140084351
:101FD0000C49886314E0002C09D10A488038816BD1
:101FE00001209040814307488038816308E005481C
:101FF0008038806B01219140084302498039886311
:1020000030BD00008004004030B505460C4628462F
:10201000FFF7E6FB02460D2D11DC002C07D113481B
:102020000068012191408843104908601CE00F4876
:1020300000680121914008430C49086014E0002C1D
:1020400009D10A488038016801209040814307483F
:102050008038016008E0054880380068012191401F
:10206000084302498039086030BD0000C0040040C8
:1020700030B505460C462846FFF7B2FB02460D2D4B
:1020800011DC002C07D11348C06B0121914088431B
:102090001049C8631CE00F48C06B01219140084300
:1020A0000C49C86314E0002C09D10A488038C16B80
:1020B00001209040814307488038C16308E005480B
:1020C0008038C06B01219140084302498039C863C0
:1020D00030BD00008004004030B505460C4628465F
:1020E000FFF77EFB02460D2D11DC002C07D11348B3
:1020F000406B012191408843104948631CE00F4820
:10210000406B0121914008430C49486314E0002CC6
:1021100009D10A488038416B01209040814307482B
:102120008038416308E005488038406B01219140C8
:10213000084302498039486330BD000080040040F4
:1021400030B505460C462846FFF74AFB02460D2DE2
:102150000BDC012C04D1012090400B49886011E078
:10216000012090400849C8600CE0012C05D10120F5
:10217000904005498039886004E001209040024980
:102180008039C86030BD00008004004010B50548AB
:1021900000F074FF044800F019FC7D20000100F0FD
:1021A0006DFF10BDB80B0000FB02002008B5002039
:1021B00000902C4B00222CA12C4800F0C9FE0028D6
:1021C00004D12B480078401C29490870254B002277
:1021D00025A1284800F0BCFE0090002804D1244826
:1021E0000078401C22490870214800780A2804DD44
:1021F00000201F49087002F071FA68460078012833
:102200001DD100201A4908701B4800F0DFFB19207F
:10221000400100F033FF194B002219A11B4800F0C8
:1022200097FE009069460878012817D0184800F0FA
:10223000CDFB0A2000F022FF002000900EE01548A0
:1022400000F0C4FB642000F019FF114800F0BEFB51
:102250007D20C00000F012FF00200090684600784A
:1022600008BD0000881300004F4B00008B020020C7
:10227000460200209D020020A80200201027000036
:10228000434F4E4E454354204F4B0000B3020020B5
:10229000250300201703002010B502F0FDF902F01D
:1022A000FBFB02F061FBFFF76FFA00F02FFBFF2052
:1022B000F53000F0E3FEE120400202F083FA01F085
:1022C000C1FC10BD30B50B460021002A21D0154CB1
:1022D00003252D0264198510AD0061598407E50EB0
:1022E000FF24AC400D46A54329469C07240E8507D4
:1022F000ED0EAC4021430B4C03252D0264198510D3
:10230000AD006151C506ED0E0124AC40054D2C60B9
:1023100006E0C506ED0E0124AC40024D80352C6070
:1023200030BD000000E100E070B51C46002807D178
:10233000674B5B6801252D03AB43654D6B6070BD3A
:10234000644B0125AD072B60002901D0012913D171
:102350005F4B5B689B03DB0F002B0DD15C4B5B6815
:102360000225AB439B1C5A4D6B6000BF584B5B680A
:102370009B03DB0F002BF9D0032905D0042903D0E0
:10238000052901D0062919D1514B5B68DB03DB0F0E
:10239000002B13D14E4B5B685B085B005B1C4C4D04
:1023A0006B602B461B680425AB43494D2B6000BF77
:1023B000474B5B68DB03DB0F002BF9D00B0000F011
:1023C0001DFD07050D18232E39444D00404B5B6859
:1023D00007252D02AB433E4D6B6040E03C4B5B68F4
:1023E00007252D02AB43FF33FF330233384D6B60BB
:1023F00035E0374B5B6807252D02AB4303252D02E3
:102400005B19334D6B602AE0314B5B6807252D0269
:10241000AB430125AD025B192D4D6B601FE02C4BCA
:102420005B6807252D02AB4305252D025B19284D5E
:102430006B6014E0264B5B6807252D02AB43032538
:102440006D025B19224D6B6009E0214B5B6807252B
:102450002D02AB435B191E4D6B6000E000BF00BF57
:102460001B4B5B680125ED02AB43D5020126F6024A
:1024700035402B43164D6B602B465B686D14AB43A8
:10248000134D6B602B465B68AD14AB435B19104D6D
:102490006B6000BF0E4B5B685B03DB0F002BF9D05A
:1024A000012C07D10A4B1B682502AB435B19084D71
:1024B0002B6006E0064B1B68FF250135AB43044D3E
:1024C0002B6000230125AD072B6000BF37E700001C
:1024D000400000409669AA55084901229207116000
:1024E00007490968890889008207920F1143044A45
:1024F0001160002112061160704700009669AA550C
:102500004000004026480068002804D024480068A5
:10251000401E2349086023480068002804D0214851
:102520000068401E1F4908601F480078012802D13A
:1025300002201E4908611E4800681D4800687D2170
:10254000C900884226D30120194908601948C0688B
:10255000401C1849C86018480068401C16490860AB
:1025600016480068401C15490860084600683B286A
:1025700007D313480068401C1149086000200F4928
:10258000086010481049086000201049C8600E49D2
:10259000086004E006480068401C05490860704770
:1025A00000020020100200200C0200200004004065
:1025B0001402002034030020FC010020040200204B
:1025C0000802002051E5CC1A001D0040001C00400C
:1025D000014600200D4B0A685A6100229A610A796F
:1025E000002A02D00422104303E0042302469A4347
:1025F00010464A79002A02D00222104303E0022347
:1026000002469A431046014A1061704700E000E01C
:102610001FB5FFF7CBF80020FFF75EFF01231A4636
:1026200019461846FFF780FE1948012189070860FE
:1026300018480068072109038843164908600020EC
:10264000090608600121684601734173124802902F
:1026500002A8FFF7BDFF11480069012108430F4997
:1026600008610F480F4908600F4800900021684634
:102670000171012141710021817100F087FB0B483C
:10268000806840084000401C084988601FBD000069
:102690009669AA554000004080BB000000E000E0C1
:1026A00051E5CC1A001D004014050000001C00403C
:1026B00010B501210C4800F07AF8002813D0012150
:1026C000094800F067F809480068401C074908609D
:1026D00008460068FF21F431884204D300200349F2
:1026E000086000F083FC10BD00240040240200209C
:1026F00010B501210C4800F05AF8002813D0012130
:10270000094800F047F809480068401C074908607C
:10271000084600680649884205D30020054908603C
:10272000014800F039F810BD0028004034020020B4
:10273000E70300003802002010B5026906239A431F
:102740000B785B00062423401A43026102690823C8
:102750009A434B78DB00082423401A430261026944
:1027600030239A438B781B01302423401A430261A3
:102770000269C0239A43CB789B01C02423401A43AB
:102780000261C268120A12020B795B1EDBB21A43A5
:10279000C26010BD4162704701694908490001618A
:1027A0007047016949084900491C016170470246A8
:1027B0000020536A0B40002B01D0012000E00020D4
:1027C0007047002A03D0036A0B43036202E0036AE6
:1027D0008B430362704710B5026903231B029A43BF
:1027E0000B020324240223401A43026110BD026934
:1027F00001231B049A43D21802610268120C1204CE
:102800008BB21A430260026901231B049A430261DE
:102810007047026B120C12048BB21A4302637047AA
:1028200010B5054B002205A107A000F091FB01287F
:1028300000D110BD0020FCE788130000434F4E4E2E
:10284000454354204F4B000041542B4349505354AF
:10285000415455530D0A000070B5002024490870FA
:1028600024490870244800F0B1F8642000F006FC08
:10287000224800F0ABF81A2000F09AF87D21890177
:102880001FA000F0A7FC0546012D2FD10024002039
:1028900017490870174908701FE01848005D7B2829
:1028A00004D113480078401C114908701348005D9A
:1028B0007D2804D10F480078401C0E490870601C28
:1028C000C4B20B4800780B490978884205D1084802
:1028D0000078002801D0012070BDDB2C03DA074806
:1028E000005D0028D9D1054800F070F80020F3E71A
:1028F0003D0200203E0200200A0300206403002065
:10290000524543562046524F4D3A000000B587B01D
:102910000021684601750121817500214175C1754D
:102920000121017605A92520FEF7D7FF0021684681
:10293000017501218175417500214176817605A9D6
:102940002420FEF7CAFFE1204002039001216846DF
:1029500001740021C171017201714171817101A97C
:10296000124800F04DF90021104800F007FA00214C
:102970000E4800F0F9F9012211040C4800F036F974
:10298000012211461720FFF79DFC0848006801212D
:102990000904884340180549086008460068400853
:1029A0004000401C0860012007B000BD00600040EE
:1029B00000BF0549C9698904C90F0029F9D1024935
:1029C00020390870704700004060004000B50246A2
:1029D00000200D4908700D49087001200C4908704D
:1029E0000C4908700C49087003E01078FFF7E0FF0D
:1029F000521C10780028F8D100BF084840698006B2
:102A0000C00F0028F9D100BD44020020430200207D
:102A10003F020020400200204202002000600040EF
:102A200010B501210904384800F0D8F800286AD010
:102A300001210904344800F0C9F8002863D00020BF
:102A400032490870304820300079314908703148E7
:102A50000078002825D0304830490978405C2C495E
:102A60000978884219D12D480078401C2B490870FC
:102A700029480978405C0D280BD027482749097858
:102A8000405C0A2805D0244824490978405C002885
:102A900039D100201F49087035E000201F49087017
:102AA00031E01B48007820280EDB194800787F2889
:102AB0000ADC174800781A491A4A127888541948CB
:102AC0000078401C17490870114800787B2804D111
:102AD00015480078401C144908700D4800787D287E
:102AE00004D112480078401C104908700E48007844
:102AF0000E490978884206D10B480078002802D098
:102B000000200B49087010BD006000403F0200200B
:102B10003C0200204002002040040020440200202B
:102B200064030020430200203D0200203E020020FA
:102B30004102002070B505461B48056000201B4976
:102B400008701B49087001201A4908701A4908705A
:102B50001A49087004E014480068002800D170BDCC
:102B6000144800780028F6D115480F49086005E0A0
:102B70000D480068002801D101F0B0FD11484069FE
:102B80008004C00F0028F3D1094800780028EFD056
:102B90000748047804E000200B490855601C84B203
:102BA000DB2CF8DB0120DAE70002002044020020E1
:102BB000430200203F020020400200204202002089
:102BC000204E000000600040640300200246002008
:102BD000D3690B40002B00D0012070470246002033
:102BE00093690B40002B00D001207047012A03D1CC
:102BF00083690B43836102E083698B438361704780
:102C0000F0B585B005460C460027207B01280ED183
:102C1000A1680801FEF724FA039051480068FEF706
:102C20001FFA02900399FEF727F9074634E0207B4C
:102C300002280ED1A1684801FEF712FA0390484815
:102C40000068FEF70DFA02900399FEF715F90746A2
:102C500022E0207B03280ED1A1688801FEF700FA4C
:102C600003903F480068FEF7FBF902900399FEF7D6
:102C700003F9074610E0207B04280DD1A168C801A4
:102C8000FEF7EEF9039036480068FEF7E9F9029086
:102C90000399FEF7F1F807463846FEF7C3F800221D
:102CA000304B0191009001F09FFF02D200202D498E
:102CB00002E03846FEF7B6F803910290FDF754FCA7
:102CC00007468321C905384601F0F4FF0390FEF75B
:102CD00083F906466868072109028843217B0902B7
:102CE000072212021140084368602E612868012102
:102CF00049038843217849030122520311400843C4
:102D0000286028680F2109028843617809020F2290
:102D100012021140084328602868012109038843F2
:102D2000A178090301221203114008432860286892
:102D30000F2109068843E17809060F221206114087
:102D40000843286028680121090788432179090779
:102D50000122120711400843286005B0F0BD0000B1
:102D6000280200200000F03F10B5426830239A434B
:102D70000B01302423401A43426010BD4268920880
:102D800092008B079B0F1A434260704770B5044650
:102D9000A079002802D02068450108E07D21C90003
:102DA00014480068FDF730FB216848430546124887
:102DB0000560806808218843A179C9000822114074
:102DC00008430D49886008468068022188432179BC
:102DD000490002221140084307498860084680687C
:102DE0000421884361798900042211400843024983
:102DF000886070BD28020020001C004030B474467A
:102E0000641E2578641CAB4204D3635D5B00E31849
:102E100030BC18471D46F8E74900CA0202431000BB
:102E200000D004204A0D01D001221043044A490D6C
:102E3000914201D102210843012800D105207047A9
:102E4000FF070000F8B504464F1EC80008382118D7
:102E500015461E46086849683A4606239A4310D02C
:102E60002A463346FEF7F2F93A46D200083AA3184A
:102E70001A687F1E5B68FDF731FD06223B469343CF
:102E8000EED1022F23D0042F11D0062F2FD12A46A6
:102E90003346FEF7DBF9E36AA26AFDF71FFD2A4617
:102EA0003346FEF7D3F9636A226AFDF717FD2A4617
:102EB0003346FEF7CBF9E369A269FDF70FFD2A4619
:102EC0003346FEF7C3F963692269FDF707FD2A4619
:102ED0003346FEF7BBF9E368A268FDF7FFFC2A461C
:102EE0003346FEF7B3F963682268FDF7F7FCF8BDD7
:102EF000002210B5134610460149FDF71FFD10BD15
:102F00000000F03F10B50122FEF7C4FA10BD10B565
:102F1000FDF7E4FC10BD002210B513461046114623
:102F2000FDF70CFD10BD000010B50721024A00207E
:102F30000907FEF7AFFA10BD01030000034A10B500
:102F400000201107FEF7A6FA10BD000001FDFFFFEB
:102F5000FFB581B00546164600272EE0002404E0A8
:102F6000002018490855601CC4B2772CF8DB2A46AB
:102F700015A11448FDF77CF92846FFF727FD0498B2
:102F8000FFF7D8FD012816D1C82000F077F80F48C8
:102F90000299FDF719FA002802D0012005B0F0BD12
:102FA0000B4800F06BF809480299FDF70DFA00286C
:102FB00001D00120F2E7781CC7B2701C8742CDDB3C
:102FC0000020EBE74004002025730000640300208C
:102FD00088130000002004E00021034A1154411C22
:102FE00088B2DB28F8DB70476403002010B5214865
:102FF000406900280BD1012001F06FFD022001F093
:103000006CFD032001F069FDFEF7B2FB31E000F03A
:10301000F3FB00280BD0012001F05FFD022001F03E
:103020005CFD032001F059FDFEF7A2FB21E000F05A
:10303000B9F900280BD0FEF79BFB012001F04DFDF4
:10304000022001F04AFD032001F047FD11E0FEF7E8
:1030500095FB022001F06BFD012001F068FD0648A0
:103060000068C82805D2022001F037FD032001F0D6
:103070005EFD10BD340300201C02002003490860DF
:1030800000BF024909680029FBD1704710020020E7
:10309000704700003EB50446002002900190009069
:1030A000012011490860002010490860012001F04A
:1030B00087FB0F48FFF775FB0DE00E4800684006E0
:1030C000C00F029001990298884204D00098401CD9
:1030D000009002980190044800680028EDD1009803
:1030E000206001203EBD0000380200203402002094
:1030F00000280040000400407CB5044600200190F8
:103100000090002501200F49086000200E4908604A
:10311000022001F055FB0D48FFF743FB0BE00C4884
:103120000068C005C00F019000990198884202D044
:103130006D1C01980090034800680028EFD12560BD
:1031400001207CBD3802002034020020002800400D
:103150000004004070B50025112119A000F082F88C
:103160000646002E01D101F0B9FAC820FFF786FF0C
:103170000025164C09E02078302803DB2078392818
:1031800000DC04E0641C681C85B2DB2DF3DB00BFAF
:10319000207830280FDB207839280CDC002505E06A
:1031A00021780B484155641C681C85B20F2DF7DB54
:1031B00000210748C173C820FFF760FF70BD000001
:1031C00041542B47534E0D0A0000000064030020B9
:1031D0005403002070B505460C46194804602A4681
:1031E00018A11948FDF744F8154804600020174954
:1031F00008701749087001201649087016490870B0
:103200001649087000BF0E480068002800D170BD44
:10321000104800780028F6D10948046000BF08482B
:103220000068002800D1F2E70C480078002800D19F
:10323000EDE70B4800780028F1D10120E7E7000016
:1032400000020020257300004004002044020020FA
:10325000430200203F0200204002002042020020E2
:103260004102002070B504460D46224611A11248C5
:10327000FCF7FEFF2046FFF7A9FB00200F4908706E
:103280000F49087008700D49087001200D49087039
:103290000D4908700D4908700A49087000BF0948B7
:1032A00000780028FBD100BF04480078A842FBDB6F
:1032B000012070BD2573000040040020430200205F
:1032C000440200203F020020400200204202002071
:1032D000F3B587B000200590049000BF00BF00BF89
:1032E00005A8FFF7D7FE04A8FFF706FF05994808D1
:1032F000FDF795FD039102900399029800F006FAFC
:10330000244A254B01910090FDF700FB04460D4631
:1033100022462B460020214900F0C0FC06460F46FD
:1033200032463B4600201E49FDF708FB04460D4689
:1033300020462946FDF726FD0799086004994808AC
:10334000FDF76DFD039102900399029800F0DEF9FC
:10335000104A114B01910090FDF7D8FA04460D4632
:1033600022462B4600200D4900F098FC06460F46E9
:1033700032463B4600200A49FDF7E0FA04460D4676
:1033800020462946FDF7FEFC08990860012009B097
:10339000F0BD000066666666666613400000244065
:1033A0000020AC4010B51120FEF7CCFA002801D067
:1033B000012010BD0020FCE7F0B5C54A00248FB005
:1033C00091420ADA4B005B08934206D801254A0075
:1033D0006D05EA4205D1002803D0FFF793FD0FB039
:1033E000F0BD01252D05A94219DA034308D00029B3
:1033F00010DA0120FDF73CFEFFF78DFD0FB0F0BDA8
:103400000220FDF735FEFFF773FD0122D207514080
:103410000FB0F0BD3524E4433622FEF73BF80A1521
:10342000AC4B1219D4180A03120BAB49AB4B56180C
:103430002E403146594011430192321512190B9218
:103440000022FDF758FA019A0446921C1003A44E7C
:10345000000B0D467E44032860D220467368326814
:1034600001F090FB1CD10B98002815D0FDF7CFFC84
:1034700004460E469B4A9C4BFDF7E8FE0D46074668
:103480009A4A9B4B20463146FDF7E0FE3A462B46D2
:10349000FDF724FA0FB0F0BD716830680FB0F0BDD1
:1034A000944A954B20462946FDF7D0FE0022934BC7
:1034B000FDF72CFA06460F4622462B4610461946C3
:1034C000FDF7C4FE32463B46FDF7C0FE06460B98AC
:1034D0000F4600281DD0FDF79AFC824A824B0591C9
:1034E0000490FDF7B3FE32463B46FDF70FFA224645
:1034F0002B46FDF700FA04460D467C4A7C4B0599A5
:103500000498FDF7A3FE22462B46FDF7F4F90FB011
:10351000F0BD0B46324620462946C4E00123002276
:103520009B072046FDF7DAF902460B46204629465E
:10353000FDF704FA06460F460B98FDF768FC324685
:103540003B460591049010461946FDF77FFE099110
:103550000C906B490198099B421800920C9A1946ED
:103560001046FDF773FE024607910A9065490198DF
:103570000B1A6548019303217844079BFFF762FC0F
:10358000079B0A9AFDF762FE0E905F480D91042199
:103590007844079B0A9AFFF755FC099B0C9AFDF7A4
:1035A00055FE019B009A1A4300920D9B0E9AFDF75F
:1035B00095F9009A01910C90002A4DDD0022D2432A
:1035C00020462946FDF766FF22462B46FDF73EFEC4
:1035D00000910A900B9800282BD0424A424B059943
:1035E0000498FDF733FE07910E90019B0C9A009909
:1035F0000A98FDF773F932463B46FDF727FE079B15
:103600000E9AFDF76BF9009B0A9AFDF77FF92246A7
:103610002B46FDF770F904460D46344A344B0599A4
:103620000498FDF713FE22462B46FDF764F90FB010
:10363000F0BD019B0C9A0A98FDF750F932463B46C3
:10364000FDF704FE009B0A9AFDF760F922462B461F
:10365000FDF75CF90FB0F0BD0B98002827D0214A88
:10366000214B05990498FDF7F1FD07910090204644
:103670002946019B0C9AFDF73EF932463B46FDF781
:10368000E5FD079B009AFDF736F922462B46FDF72C
:1036900032F904460D46154A154B05990498FDF775
:1036A000D5FD22462B46FDF726F90FB0F0BD0B469F
:1036B000204629460C9AFDF71EF932463B46FDF797
:1036C000C5FD22462B46FDF721F90FB0F0BD0000E5
:1036D0000000F07F01FCFFFF645F09000000F03F85
:1036E000901A0000763C7935EF39EA3D0000E0FEA3
:1036F000422EE63F555555555555D53F0000E03F04
:1037000086EBF9FF51B8060034190000F8B50446FD
:103710003048002581420ADA4A005208824206D81F
:10372000012348005B05D84205D1002C03D0204678
:10373000FFF7E8FBF8BD01231B05994219DA224384
:1037400007D000290EDA0120FDF792FCFFF7E3FB1A
:10375000F8BD0220FDF78CFCFFF7CAFB0122D2075F
:103760005140F8BD3525ED4336222046FDF792FE47
:10377000044608154019184A0D038018C20F17494E
:103780002D0B891A09050D438018FDF740FB0646ED
:103790000F4620462946FFF70FFE114A114BFDF751
:1037A00055FD04460D46104A104B30463946FDF78C
:1037B0004DFD22462B46FDF791F80D4604460C4A76
:1037C0000C4B30463946FDF741FD22462B46FDF7AE
:1037D00085F8F8BD0000F07F01FCFFFFFF0300004B
:1037E0000EE526157BCBDB3F362BF111F3FE593D61
:1037F00000609F501344D33F04480068C006C00FC8
:10380000002801D0012070470020FCE700040040A0
:1038100000240025FEF7FCFE00F04CFFFEF73CFD07
:103820004FE000F091FF1D2126480068FCF7ECFDF9
:1038300000290AD10C212448FDF78EFF4620FFF70E
:103840001DFC0C212048FDF787FF1F4880691F4998
:103850000968884235D200201C49086000BF002555
:10386000FEF7DEFF00280DD1FEF790FCFEF79EFC70
:10387000012801D1012501E0601CC4B20A2C02DD3F
:1038800000F02CFF0125002D19D007200E494861BA
:1038900000250024FFF79EFB0D4800F01DF80D48A1
:1038A000FEF77AFFFEF7D8FF012803D1084800F0A1
:1038B0009FF801E0601CC4B20648FEF772FF002CBE
:1038C000CDD1AEE70802002034030020FC01002027
:1038D000640300200024004030B58FB005462D4819
:1038E0000069002803D12B480069012802D000207C
:1038F00028490861274A203227A12846FCF7B8FC4E
:1039000084B228A102A8FCF7B3FC001984B202A972
:103910002846FCF76DFD1F4800690246303224A19D
:1039200002A8FCF7A5FC001984B202A92846FCF7FE
:103930005FFD1848007DC007C00F3030009015486B
:10394000406902210840400803463033114840696D
:103950000421084080080246303218A102A8FCF772
:1039600087FC001984B202A92846FCF741FD0948EA
:1039700040680090154803681548026815A102A820
:10398000FCF776FC001984B202A92846FCF730FD4A
:103990000FB030BD340300207B22534E223A222543
:1039A00073222C0022434D44223A223031222C0033
:1039B0002254595045223A25632C000022565322A6
:1039C0003A22256325632563222C00001C02002077
:1039D000180200202254445331223A25752C2254D7
:1039E000445332223A25752C2246223A25757D0011
:1039F000F1B586B000250020049000260390002732
:103A000002900190009006980590824882490860D3
:103A100000208249C8608049086081A10598FCF7B0
:103A2000D3FC041E04D0A0793038C0B2049003E067
:103A30006806050E0120054305947BA10598FCF757
:103A4000C3FC041E11D00026641D2078312801D14A
:103A5000301DC6B26078312801D1B01CC6B2A07842
:103A6000312806D1701CC6B203E06806050E01209D
:103A7000054305946DA10598FCF7A6FC041E18D01B
:103A8000E41C0020039012E0207830280EDB207820
:103A900039280BDC0A2103984843039020783038FA
:103AA00003994018C0B20390641C00E000E0EBE70B
:103AB00003E06806050E0120054305945CA1059806
:103AC000FCF782FC041E15D0241D002710E020788E
:103AD00030280CDB2078392809DC38460A21484395
:103AE000074620783038C019C7B2641C00E000E0F7
:103AF000EDE703E06806050E0120054305944DA19E
:103B00000598FCF761FC041E17D0241D00200290CC
:103B100011E0207830280DDB207839280ADC0A21D2
:103B20000298484302902078303802994018029059
:103B3000641C00E000E0ECE703E06806050E0120ED
:103B4000054305943CA10598FCF73EFC041E17D0E4
:103B5000241D0020019011E0207830280DDB207812
:103B600039280ADC0A21019848430190207830382E
:103B7000019940180190641C00E000E0ECE703E0CC
:103B80006806050E0120054305942CA10598FCF755
:103B90001BFC041E17D0241D0020009011E020788B
:103BA00030280DDB207839280ADC0A2100984843A8
:103BB000009020783038009940180090641C00E094
:103BC00000E0ECE703E06806050E01200543002D48
:103BD0001ED10498C0B21A490861F0B24861039836
:103BE000C0B28861F8B2C861029808600198C860E4
:103BF000009888600C211248FDF7AEFD4620FFF7C3
:103C00003DFA0C210E48FDF7A7FD012007B0F0BDDD
:103C10000020FBE751E5CC1A001D0040001C0040CD
:103C20005459504500000000565300005400000055
:103C30004654000053460000525400004554000012
:103C4000340300201CB50021684601708170C170EA
:103C5000012001906846417069460E48FEF76CFDF0
:103C600002210C48FEF7B7FD00210A48FEF7BFFD10
:103C700009490848FEF7CDFD012211460548FEF727
:103C8000A0FD012211460920FEF71CFB0148FEF7AA
:103C900088FD1CBD0024004080BB0000F0B51FB4AF
:103CA00096B084460C460246199D18980390490028
:103CB00068006300490840080193002A01D00126EA
:103CC00000E000269E19FE4BF6185B109E422BD397
:103CD0006E00039F0296002F00D00127F719F84EBF
:103CE000F84BBE199E421FD3039E0346F64F334343
:103CF00009D03B469C4201D1002A04D0019B002AF6
:103D000005D0012604E0002039461BB0F0BD002696
:103D10009E19EE4B9E4207D8039F029E002F00D0B3
:103D20000127F6199E4207D92B4660462146189A6C
:103D3000FFF7EDF81BB0F0BD0023002C29DAE44EAC
:103D4000B04226DAE34EB04201DB022321E0DE4E30
:103D5000B0421EDBE04E070DBE19142E09DD3427DC
:103D6000BF1B039EFE400196BE40039FBE420BD088
:103D70000FE0039F002F0CD11427BF1B0646FE4007
:103D80000196BE40864204D1019BDE07F60F022356
:103D90009B1B0E46164318D1002D16DA002C03D0BB
:103DA000022B01D0012B06D00220FDF761F9FFF7AD
:103DB0009FF81BB0F0BD0220FDF75AF9FFF798F805
:103DC0000122D20751401BB0F0BD039E002E61D1ED
:103DD000BF4EB04220D1C148844201D1002A08D050
:103DE000B948814209DB002D10DB189829461BB029
:103DF000F0BD0020B4491BB0F0BD002D06DA012251
:103E00002946D207189851401BB0F0BDB4497944F7
:103E1000086849681BB0F0BDAB4FB84225D1002DF2
:103E20001FDA002904D0B14212D1002A09D018E0CB
:103E3000002A72D1A649E20F0020D20711431BB01D
:103E4000F0BD0020E20F0146D20711431BB0F0BDC8
:103E5000B14206DA234600203946FCF76FFD1BB05D
:103E6000F0BD104621461BB0F0BDB14212DA01266A
:103E7000B607B54203D1234610461946FEE3994ED4
:103E8000B54207D1261E05DB1046314600F048FD3D
:103E90001BB0F0BD67007F081646002A40D10029FC
:103EA0000AD08B4A914229D1002C0EDD002D1CDB5B
:103EB000002011461BB0F0BD022B16D0002C14D0F0
:103EC000012B12D1002C14DB0FE0002C28DA002D7E
:103ED00009DB012B03D000207D491BB0F0BD002081
:103EE00081491BB0F0BD012B03D0002001461BB05F
:103EF000F0BD00200121C9071BB0F0BD724A9142FC
:103F00000ED1002C01DA002B17D0022B06D0002096
:103F1000C043FCF77CFF1BB0F0BD90E20120F8E746
:103F2000E217521C94461A4307D000220892664CAE
:103F300062465B1E1A4307D009E00120FDF798F89E
:103F4000FEF7E9FF1BB0F0BD0022644C0892674AFF
:103F500090427DDD664B674A98421FDD914202DC4C
:103F6000002D05DB4DE05848814217DB002D48DD70
:103F70000220FDF77DF8FEF7D7FF05460E4600222A
:103F8000534B21460898FDF761F90846710049082E
:103F9000C00FC007014328461BB0F0BD914215DA9F
:103FA000002D2EDA0220FDF763F8FEF7BDFF05466F
:103FB0000E460022464B21460898FDF747F972004D
:103FC0005208C80FC0070243114617E03E4B994202
:103FD00023DD002D15DD0220FDF74AF8FEF7A4FFD2
:103FE00005460E4600223A4B21460898FDF72EF969
:103FF000084671004908C00FC007014328461BB09E
:10400000F0BD0220FDF734F8FEF798FF490049089B
:10401000E20FD20711431BB0F0BD002230463946F3
:10402000FCF769FC012205460E46D243FDF732FA41
:10403000314A324BFCF76AFC2A463346FDF706F953
:104040000022284BFCF762FC07462A46334600E074
:1040500064E0039110461946FDF7F8F83A46039BD1
:10406000FDF7F4F80746032209915207244B28462E
:104070003146FDF7EBF807910C90224A204B384669
:104080000999FDF7E3F8074601911F4A1F4B28469F
:104090003146FDF7DBF83A46019BFCF72CFC07465E
:1040A0000B460246099107990C98FCF717FC00256E
:1040B0000E462846079B0C9AFCF71DFC3A4627E063
:1040C000FFFF1F00FFFF0F000000F03F0000E0FFB8
:1040D0000000F07F0000404301FCFFFF0000F0BF44
:1040E000D61000000000E03F0000F0FF0000E041BB
:1040F0000000F043FFFFEF3F555555555555D53F4F
:104100004715F73FFE822B6544DF5DF80BAE543E4A
:10411000099BFCF7FBFB02460B4652E10125002000
:104120002D05A94207DA352230463946FDF7B2F9A6
:1041300006463420C0430A151218FE481018039092
:104140000803FD49000B01430F46FC49884201DC8E
:10415000002003E0FA49884202DA0120119005E0CC
:10416000002011900398401C7F1B03901198059725
:10417000C200F4480F9278448018436802683946B8
:1041800030460D930292FCF7B6FB07910C90304637
:104190000D9B029A0599FCF7A1FB02460B460020F5
:1041A000E549FCF7CBFB09910490079B0C9AFDF7BE
:1041B0004DF8129000201090E3480D4678440068B6
:1041C0000E90012178104907084311990D9B89042D
:1041D00040180121C90447183946029A0E98FCF785
:1041E0008AFB3246059BFCF791FB02460B462946AB
:1041F0001098FDF72BF8064602913B4629460E9A89
:104200001098FDF723F8079B0C9AFCF77FFB3246CA
:10421000029BFCF770FB099B049AFDF717F80591C8
:10422000129A0A902B4610461946FDF70FF80646DB
:104230000246C6480F460B4606217844FEF702FEAA
:1042400032463B460091049010461946FCF7FEFFAB
:10425000009B049AFCF7FAFF06460F462B461946C8
:10426000129A1098FCF73AFB059B0A9AFCF7EEFFAE
:1042700032463B46FCF732FB109A079104902B46DE
:1042800010461946FCF7E2FFB14E00223346099171
:104290000290FCF723FB079B049AFCF71FFB00200E
:1042A0000746024633460091FCF725FB099B029A1C
:1042B000FCF721FB079B049AFCF728FB06460D91AF
:1042C0003A462946009B1098FCF7C0FF07910C90D6
:1042D0002B463046129A0D99FCF7B8FF05460E465C
:1042E0003A46009B05990A98FCF7B0FF33462A46E8
:1042F000FCF7F4FA02460B460746099107990C9819
:10430000FCF7ECFA00250E462846079B0C9AFCF7B2
:10431000F2FA3A46099BFCF7F9FA07460722099197
:1043200052078C4B31462846FCF790FF07910090CE
:10433000894A884B38460999FCF788FF074601915E
:10434000864A874B31462846FCF780FF3A46019B58
:10435000FCF7C4FA834B7B440F9A9B181A685B687E
:10436000FCF7BCFA029009910398FCF750FD059107
:104370000490099B029A07990098FCF7AFFA7A4BD0
:104380007B440F9A9B181A685B6817460393FCF7E7
:10439000A5FA059B049AFCF7A1FA0E462846059B50
:1043A000049AFCF7A8FA3A46039BFCF7A4FA079B89
:1043B000009AFCF7A0FA099B029AFCF7A7FA0246BA
:1043C0000B46199900200C900F461898FCF73EFFF9
:1043D000029104903B460C9A19991898FCF78BFAB5
:1043E0002A463346FCF732FF029B049AFCF776FA22
:1043F00009910E902A46334639460C98FCF726FF61
:1044000006460F46099B0E9AFCF768FA574A0D4676
:10441000914220DB5242AA18024310D132463B4659
:10442000FCF769FA04900391514A524B09990E988E
:10443000FCF754FA039B049A00F008FC1ED20220F9
:10444000FCF716FEFEF770FD49004908E20FD2079F
:1044500011431BB0F0BD6A00474B52089A420DD37E
:10446000464AAA18024300D0CBE532463B46FCF749
:1044700042FA099B0E9A00F0E9FBF5D96800002387
:1044800040082C490393020D3D4B5218984223DDFE
:1044900001200005521CD04042195000400D401828
:1044A00038497944096813468C463749C1408B43E3
:1044B00012030121120B090551181422101AC140D0
:1044C0000391002D01DA4842039062463046394696
:1044D000FCF711FA06460F4632463B4609990E98FC
:1044E000FCF7FCF900252A46284B28460591FCF7E5
:1044F000ADFE07910C90264A264B28460599FCF7FD
:10450000A5FE0091029032463B4628460599FCF7ED
:10451000F2F9099B0E9AFCF7F9F91F4A1F4BFCF7B9
:1045200095FE009B029AFCF7D9F907460B46024616
:10453000099135E001FCFFFF0000F03F8E98030079
:104540007AB60B00AE0C0000280D00001A0C00001B
:104550000000084009C7EE3FFD033ADCF5015B149B
:10456000E02F3EBEEE0A0000B40A000000009040BA
:10457000FE822B654715973C00CC904000346F3F7E
:104580000000E03F420A0000FFFF0F00432EE63F1D
:10459000396CA80C615C20BEEF39FAFE422EE63F72
:1045A00007990C98FCF79AF905460E46079B0C9A5A
:1045B000FCF7A1F93A46099BFCF7A8F909912A46AC
:1045C00033460E9010461946FCF740FE0746024659
:1045D0002F480B46059105217844FEF733FC3A46F7
:1045E000059BFCF733FE2A463346FCF78FF9074656
:1045F000019128463146099B0E9AFCF727FE099B3C
:104600000E9AFCF76BF9012304910C9000229B0792
:1046100038460199FCF76FF905910E903A46284605
:104620003146019BFCF712FE059B0E9AFCF786F9BA
:10463000049B0C9AFCF75FF92A463346FCF75BF9BA
:104640000022144BFCF762F9064603980D4600055C
:1046500041190915002912DC30462946039AFCF756
:1046600019FFFEF7D9FB042801D1FEF767FC30469D
:104670002946039AFCF70EFF064601E004E02918DC
:104680000B46324621460898FCF7E0FD1BB0F0BD12
:10469000AC0800000000F03F1820054948600846BB
:1046A000406B1821884302494863182048617047CD
:1046B0000004004010B50C221121C9020648FDF784
:1046C00051F8C820FEF7DAFC0C221121C902024879
:1046D000FDF748F810BD0000340300200C211548F8
:1046E000FDF73AF8C820FEF7C9FC0C211148FDF788
:1046F00033F8012040061049C8601048FEF7BEFCA0
:104700000E48FEF7BBFC0D48FEF7B8FC0B48FEF761
:10471000B5FC0A48FEF7B2FC0848FEF7AFFC00BF44
:10472000BFF34F8F06480749C860BFF34F8F00BFE4
:1047300000BFFEE73403002000040040881300009F
:104740000400FA0500ED00E010B51A4840690421A4
:104750000840002802D1012000F0BFF91548406947
:1047600002210840002802D1022000F0B6F91148C9
:10477000007DC007C00F002802D1032000F0ADF972
:104780000C480069012801D100F02AF909480069A4
:10479000002801D100F052F9FEF77AFC04460649E0
:1047A0000648FEF795FD0348406800190149486036
:1047B00010BD0000340300201C020020180200205D
:1047C0007047000070B5054600243F493F48FBF79D
:1047D0000FFE012040063E49C861C820FEF74EFC8E
:1047E000012040063A4988603A48FEF747FC00BF7E
:1047F00000BF3948FEF7EAF86420FEF73FFC7D2150
:10480000090136A0FEF7E6FC002804D1601CC4B202
:10481000052C00DAEDE73348FEF730FCFCF7AEFF7D
:104820007D20C000FEF72AFCFCF7A2FFFEF7D2FBBA
:104830002948FEF7CBF87D20C000FEF71FFC64205E
:10484000FEF71CFC0024274B0A2227A12748FEF76D
:104850007FFB002801D1FFF741FF224B052222A157
:1048600023A0FEF775FB002801D1601CC4B21D4BCC
:1048700005221DA12248FEF76BFB002801D1601C18
:10488000C4B2184B052218A11EA0FEF761FB002838
:1048900001D1601CC4B2002C01D0FFF71FFF1148EA
:1048A000FEF7ECFB0B48FEF7E9FB1C48FEF78EF821
:1048B0007D200001FEF7E2FBFEF74CFC7D20C000EE
:1048C000FEF7DCFB70BD0000E1020020B302002017
:1048D00000040040B80B00004702002052656164EC
:1048E00079000000881300004F4B00004C020020AC
:1048F00041542B434D4744413D360D0A0000000012
:104900007F02002041542B434D4744413D22444502
:104910004C20414C4C220D0A00000000FB020020FC
:10492000F8B506460C46FCF70BFE051E0F4600D0F8
:104930000120014349000B484908411AC90F0DD015
:10494000002E01D0012100E000210C436100490844
:10495000401AC00F02D10120FCF78AFB28463946D5
:10496000F8BD00000000F07F10B5FF20413006497F
:1049700048610846406BFF21413188430249486342
:1049800000F004F810BD0000000400401CB5002138
:10499000684601708170C1700120019068464170C5
:1049A00069460D48FDF7C8FE02210B48FDF713FFCD
:1049B00000210948FDF71BFF08490748FDF729FFBB
:1049C000012211460448FDF7FCFE012211460A208F
:1049D000FDF778FC1CBD00000028004080BB0000F3
:1049E00010B5134840681249096888421ED3052152
:1049F00010480068FBF708FD012909D1FCF7BEFE4D
:104A00000D48FEF73BFB0C48FEF738FBFCF7B0FE09
:104A1000002000F062F80C210548FCF79DFE4620BE
:104A2000FEF72CFB0C210248FCF796FE10BD00009F
:104A300034030020080200208813000010B513483A
:104A4000C0681249896888421ED305211048006851
:104A5000FBF7DAFC012909D1FCF790FE0D48FEF7BF
:104A60000DFB0C48FEF70AFBFCF782FE002000F06D
:104A700034F80C210548FCF76FFE4620FEF7FEFADD
:104A80000C210248FCF768FE10BD00003403002032
:104A900008020020881300001CB500216846017040
:104AA00081704170C170017169461920FCF715FFD2
:104AB00069461A20FCF711FF69461B20FCF70DFF21
:104AC00000211920FDF73CFB00211A20FDF738FBDF
:104AD00000211B20FDF734FB1CBD10B50446002C43
:104AE00006D0012C11D0022C14D0032C1CD116E0BE
:104AF00000211920FDF724FB00211A20FDF720FBDF
:104B000000211B20FDF71CFB0FE000211920FDF701
:104B100017FB0AE000211A20FDF712FB05E0002137
:104B20001B20FDF70DFB00E000BF00BF10BD10B55E
:104B30000446002C06D0012C11D0022C14D0032CDA
:104B40001CD116E001211920FDF7FAFA01211A20E3
:104B5000FDF7F6FA01211B20FDF7F2FA0FE0012123
:104B60001920FDF7EDFA0AE001211A20FDF7E8FA15
:104B700005E001211B20FDF7E3FA00E000BF00BFC4
:104B800010BD000070B501250C002D051C4310D48C
:104B9000EC4206D4AC420AD4994200D070BD904297
:104BA00070BDE94217D4EB4215D4994270BD8942D9
:104BB00070BDEC4206D5AC42F9D58B4200D070BD39
:104BC000824270BD6D004C00EC4204D25C00EC42AD
:104BD00001D28B4270BD034C30B4FCF7EFFA30BC0D
:104BE00070BD00BF1900120470B501250C002D0521
:104BF0001C4310D4EC4206D4AC420AD4994200D0F3
:104C000070BD904270BDE94217D4EB4215D4994271
:104C100070BD894270BDEC4206D5AC42F9D58B42DD
:104C200000D070BD824270BD6D004C00EC4204D2D9
:104C30005C00EC4201D28B4270BD034C30B4FCF7F7
:104C4000BDFA30BC70BD00BF1900160470B5012557
:104C50001C002D050C4310D4EC4206D4AC420AD4FF
:104C60008B4200D070BD824270BDEB4217D4E94246
:104C700015D48B4270BD9B4270BDEC4206D5AC4250
:104C8000F9D5994200D070BD904270BD6D005C00B6
:104C9000EC4204D24C00EC4201D2994270BD0FB4F8
:104CA000034C0CBC03BC30B4FCF788FA30BC70BDBC
:104CB0001900160470B5420064414B005C41120EAD
:104CC00039D01B0E38D0FF2A3CD0FF2B3AD04002FF
:104CD0004902400A490A060045184E43000A090ADB
:104CE000D2184843ED017F3A0104731A4019190C98
:104CF0004318990F04D001215B0849075B1A521C25
:104D0000D80904D3401CF50301D19D0607D0FF2A22
:104D100008D2D50506D0E4072043401970BD01250F
:104D2000A843F4E7002A01DCE00770BD2402FF205D
:104D30002043C00570BD1B0EFF2A03D0FF2B01D0FE
:104D4000E00770BDFF2645003606B54206D84D0087
:104D5000B54203D8D218FF2A00D0E7E7004870BD5B
:104D60000000C07F80807F7E7D7C7B7A797877763B
:104D700076757473727171706F6E6E6D6C6C6B6A38
:104D80006A696868676666656464636362616160D6
:104D9000605F5F5E5E5D5D5C5C5B5B5A5A59595853
:104DA00058575756565555555454535352525251BD
:104DB000515050504F4F4F4E4E4D4D4D4C4C4C4B13
:104DC0004B4B4A4A4A49494948484847474747465A
:104DD0004646454545444444444343434342424296
:104DE000424141418182838485868788898B8C8D6D
:104DF0008E8F919293959697999A9C9D9FA0A2A32E
:104E0000A5A7A8AAACAEB0B2B3B5B7B9BCBEC0C274
:104E1000C5C7C9CCCED1D4D7D9DCDFE2E6E9ECF006
:104E2000F3F7FAFE00000000000000000000F03F71
:104E3000000000000000F83F00000000000000003B
:104E40000000004003B8E23F000000000000000046
:104E500006D0CF43EBFD4C3E033333333333E33FD4
:104E6000FFAB6FDBB66DDB3F4D268F515555D53F00
:104E700001411DA96074D13F65DBC9934A86CD3FCE
:104E8000EF4E454A287ECA3F3E5555555555C53FBC
:104E900093BDBE166CC166BF2CDE25AF6A56113FAE
:104EA000F16BD2C541BDBBBED0A4BE726937663EB0
:104EB00004FA97999999D93FAF788E1DC571CC3F67
:104EC0009FC678D0099AC33F935555555555E53F30
:104ED000599322942449D23FDE03CB966446C73FC0
:104EE00044523EDF12F1C23F00000000000000000B
:104EF000204F000000000020FC0100000401000021
:104F00001C510000FC0100203801000002170000C5
:104F1000B851000034030020E40500002001000027
:104F200070B503460C461E462546002A01D10020D6
:104F300070BD002105E028683060361D2D1D481C1D
:104F4000C1B29142F7DB0120F2E70000A520124A2E
:104F500010611046006840084000401C1060104678
:104F600000681022904310300B4A1060002108E0C6
:104F7000094800688006C00F002800D004E0481CE3
:104F800081B206488142F3DB00BF0448814201D070
:104F9000012070470020FCE700080040FFFF0000F0
:104FA00070B503460C46234840683F25AD02A84330
:104FB000A5023F26B602354028431E4D68602846AC
:104FC0004068FF25AD00A8439D00FF26B600354090
:104FD0002843184D6860284682601748E860002121
:104FE00008E014484069C007C00F002800D104E061
:104FF000481C81B211488142F3DB00BF0F48814257
:1050000001D1002070BD002108E00A484069400736
:10501000C00F002800D004E0481C81B2074881423C
:10502000F3DB00BF0548814201D10020EAE70120FF
:10503000E8E7000000080040A25D0000FFFF00005C
:10504000A5200E4A106110460068102290430B4ABA
:105050001060002107E0094800688006C00F0028A2
:1050600000D103E0491C06488142F4D300BF044844
:10507000814201D0012070470020FCE70008004079
:10508000FFFF0000F8B504460D46164600BFEFF3DB
:105090001080074672B6FFF759FF002800D111E0D3
:1050A000324629462046FFF77BFF002800D109E061
:1050B000FFF7C6FF002800D104E0384600F02AF8C8
:1050C0000120F8BD384600F025F862B60020F8E768
:1050D000F3B581B005462F460D48281A8003040C0D
:1050E0002046E117890F09188C1000260AE0A11943
:1050F000C8B222213A68FFF7C5FF012802D1701C0F
:1051000086B23F1D02988642F1DB0120FEBD000001
:105110003403002080F3108870470000C10A1E018C
:105120000CD46CDC023B6A181F1901411D41540D5F
:105130000A0578082B434D47463D300C580F4C3D2F
:105140002252454320554E52454144221768094E8C
:105150004D493D2247534D1029335A310C680B53AA
:1051600054543D22434D4E45541E6D494943520B04
:105170007B46530B1E50535441522C061C54435033
:10518000222C7817223130362E31342E3230372E01
:105190003837222C2231313232325E7E505352491E
:1051A000507F190F7C454E440D8E434C4F53451B89
:0851B0002B4855E62100000028
:04000005000000C136
:00000001FF
