:020000040000FA
:10000000F807002075010000810100008301000055
:1000100000000000000000000000000000000000E0
:10002000000000000000000000000000850100004A
:1000300000000000000000008701000041160000E1
:100040008B0100008B0100008B0100008B01000080
:100050008B0100008B0100008B0100008B01000070
:100060008B0100008B010000951700008B01000040
:100070008B010000000000000000000000000000F4
:100080008B0100008B0100008B0100008B01000040
:10009000000000008B0100008B010000451A0000E9
:1000A0008B0100008B010000000000008B010000AC
:1000B0008B0100008B010000000000008B0100009C
:1000C00000F002F800F046F80CA030C808382418F8
:1000D0002D18A246671EAB4654465D46AC4201D180
:1000E00000F038F87E460F3E0FCCB646012633426C
:1000F00000D0FB1AA246AB46334318477C230000CE
:10010000AC230000103A02D378C878C1FAD852075D
:1001100001D330C830C101D504680C6070470000BD
:100120000023002400250026103A01D378C1FBD813
:10013000520700D330C100D50B60704710B573294A
:1001400002D100F055FB10BD002010BD1FB51FBD32
:1001500010B510BD00F0BAFB1146FFF7F7FF01F034
:100160006FFE00F0D2FB03B4FFF7F2FF03BC00F018
:1001700007FC0000054880470548804705480047C0
:10018000FEE7FEE7FEE7FEE7FEE7FEE79901000077
:1001900009170000C100000000B500BF00BF00BF8C
:1001A00000BF00BF19481A4901601A481A4F00F0F1
:1001B00010F81A481A4F00F00CF81A481A4F00F0BD
:1001C00008F81A481A4F00F004F81048194901605D
:1001D00000BD00B5184A0168914203D101689142FF
:1001E00000D112E0154D164C0A0022400B0A2340A4
:1001F000D2180B0C2340D21822400B0E9A4203D087
:10020000013D02D00168EFE7396000BD8000004089
:10021000699655AA24011000A4000040280110008E
:10022000A80000402C0110009C000040300110008C
:10023000A000004000000000FFFFFFFF03000000DF
:10024000FF00000002480349014A034B70470000C9
:10025000F8030020F8070020F80300200FB41CB5B5
:10026000084B06AA7B4469460090059800F095FA71
:1002700004460020694600F0A3FA20461CBC08BCD6
:1002800004B0184759050000F8B50E460446002092
:1002900020622046E1688847002829D0252802D01E
:1002A0006268A16820E0E1682046002788470500D1
:1002B0001ED028464138192802D80127FF022035D0
:1002C0003246204627602946FFF738FF002808D02D
:1002D000012804D0F61DF608F6000836D9E7361DC9
:1002E000D7E762682846A1689047206A401CCFE79C
:1002F000206AF8BD70B50C460546012A05D028785D
:10030000800600D5EA69002302E0012305E05B1CBA
:10031000934202D2E05C0028F9D1A869E618C01A1D
:10032000A861286AC01828622846C046C04604E072
:100330006A682078A968641C9047B442F8D32846BC
:10034000C046C04670BD30B505460B462A461C78EF
:100350001078521C5B1C002801D0A042F7D0002C62
:1003600003D0002802D06D1CEFE7284630BD0022E4
:1003700003098B422CD3030A8B4211D300239C46E2
:100380004EE003460B433CD4002243088B4231D35A
:1003900003098B421CD3030A8B4201D394463FE0EE
:1003A000C3098B4201D3CB01C01A524183098B424E
:1003B00001D38B01C01A524143098B4201D34B0137
:1003C000C01A524103098B4201D30B01C01A52419A
:1003D000C3088B4201D3CB00C01A524183088B4221
:1003E00001D38B00C01A524143088B4201D34B000A
:1003F000C01A5241411A00D201465241104670477C
:100400005DE0CA0F00D04942031000D34042534080
:1004100000229C4603098B422DD3030A8B4212D340
:10042000FC22890112BA030A8B420CD38901921172
:100430008B4208D3890192118B4204D389013AD0AF
:10044000921100E08909C3098B4201D3CB01C01A84
:10045000524183098B4201D38B01C01A5241430997
:100460008B4201D34B01C01A524103098B4201D385
:100470000B01C01A5241C3088B4201D3CB00C01AF2
:10048000524183088B4201D38B00C01A5241D9D20A
:1004900043088B4201D34B00C01A5241411A00D28B
:1004A0000146634652415B10104601D34042002B87
:1004B00000D54942704763465B1000D3404201B506
:1004C0000020C046C04602BD70477047704700001C
:1004D0000246C80FC00781434B0030B54B405B005C
:1004E0009B0D20D01923DB06C91801231B05994257
:1004F00020DB0324A40704251346AB400BD3002BB9
:1005000004D1EB0613409B00E34204D401246407AA
:10051000002312195941FF231B0599420BD2C90030
:100520000143500F09E0CB0204D501430803024305
:1005300005D0054830BDFF21C905084330BD084638
:1005400007210905884330BD0000C07F0121C9058E
:100550000123411842001B06D3185B0E0AD0C110BC
:100560000722D206891840075242D14201D55200D3
:1005700089187047090208D50146002A03D0C10F27
:10058000C9070020704710467047420202D0002081
:1005900002497047072109050143F4E70000F87F8D
:1005A000F0B5FF252D04C609C209FF2704462E40D9
:1005B0000137CB093E4348402A402B400746002ADA
:1005C0006BD0002B69D0AA4267D0AB4265D000281F
:1005D00000DA32460125ED0529432C4309022002A9
:1005E000090AD21A4B0C7F24E31A434C000A7C44BC
:1005F000E35C7D242404121914145B00A2188842C1
:1006000001D3521C00E0400049420C465C432411D7
:100610005C43DB016415E318040A5C43C502200D4A
:100620000C4644436419250A5D432303EC0C0D4634
:10063000654300030019EB184C42A34201D35B1839
:10064000401CD4052018002B07D05B00C91804D328
:10065000401C002901D1400840003F2189048A4202
:1006600009D3002A08DC1106090F04D00321490729
:100670004018C00FC007F0BD0122410012068918C2
:100680007F2252069142F6D205214907C84201D580
:100690009010F0BDFF20C005F0BD002F00DA3246FB
:1006A0001648AA4207D2AB4205D21902090E17D04A
:1006B000F80FC007F0BDFF2563002D06AB42F9D847
:1006C0004900A942F6D8AB4201D1A942F2D0A942D1
:1006D00001D1002101E061004908D0050843F0BDC7
:1006E0001102090EFBD0FF200243D005F0BD0A46DF
:1006F0000146104654E70000461E00000000C07F7F
:100700000102C21504D00123DB071943002A0ADBCA
:100710009E239A1A02D40846D0407047FF22410017
:100720001206914201D900207047C017C04370479C
:100730001F22030C02D10F2200041CD0030E01D192
:100740000002083A030F01D10001121F830F01D1EB
:100750008000921E002801DB4000521ED205511875
:10076000021251181922904004D3491C002801D1CB
:100770004908490008467047C10FC90700D04042E8
:10078000012292071143D3E701218907D0E7000036
:1007900001694A1C02610878704700B58FB0029168
:1007A0000021059105490193794403911146049074
:1007B0006846FFF769FD0FB000BD0000E5FFFFFFD1
:1007C0000A681070521C0A60704710B54369002B0C
:1007D00002D0C046C04601E0FFF78CFD012010BDED
:1007E0001278014624310A7000224A700122ECE797
:1007F00011680022D243E8E7F8B5224C4E00069D6E
:10080000A6420AD8A64201D1002806D15E00A6421F
:1008100003D8A6420AD1002A08D00D242404254278
:100820002CD02946002000F02FF8F8BD0C461C43C0
:100830000CD4994202D0EFF30080F8BD904202D070
:10084000EFF30080F8BDEFF30080F8BD0924240722
:10085000E5008B4206D0EFF30080A043591A06D280
:10086000284304E0101A05D3EFF30080A04380F37F
:100870000088F8BDEFF30080A043F1E7009500F099
:100880001BF8F8BD0000E0FFC80212D54803400F76
:10089000002804D0C803C043012188407047EFF30B
:1008A00000800001000903210907084380F3008844
:1008B000704700207047000010B500200249029ADE
:1008C00000F02BF810BD00000000F87F754600F026
:1008D00053F8AE46050069465346C008C000854639
:1008E00018B020B5FFF7AEFC60BC00274908B6463B
:1008F0000026C0C5C0C5C0C5C0C5C0C5C0C5C0C52F
:10090000C0C5403D49008D46704710B50446C046FD
:10091000C0462046FFF727FC10BD10B50C46110756
:10092000090F092904D00A290AD008290CD104E0AA
:1009300011460820FFF7A8FF06E0510606D501E0A2
:10094000510601D50120C007214610BDD10607D5AB
:1009500001010909CC084907000E0006044309E01B
:10096000410F20024907000A0143200E00061D2204
:10097000D14101430846E7E700487047980300204B
:1009800001491820ABBEFEE72600020070470000B8
:1009900003B40148019001BDB101002003B4014836
:1009A000019001BD0100002000200149087070473E
:1009B000FD0100200120014908707047FD01002061
:1009C0001CB500216846017081704170C1700171D1
:1009D00069460F2000F0ABF800210F2000F0C2FCA8
:1009E0001CBD0000014604E0044800E0401E002851
:1009F000FCD10A46491E002AF6D170478813000030
:100A0000012189070968C807C00F002803D00749DA
:100A10000122920711600021C943054A9160002814
:100A200002D0002112061160704700009669AA5595
:100A30004000004000B501460B0001F07BF92E1884
:100A40001A1C1E20222426282A2C2E303234363816
:100A50003A3C3E40424446484A4C4E505254565806
:100A60005A5C5E60626466686A6C6E7072740020C4
:100A70005BE0012059E0022057E0032055E004200C
:100A800053E0052051E006204FE007204DE008200C
:100A90004BE0092049E00A2047E00B2045E00C200C
:100AA00043E00D2041E000203FE001203DE0022036
:100AB0003BE0032039E0042037E0052035E0062044
:100AC00033E0072031E008202FE009202DE00A2044
:100AD0002BE00B2029E00C2027E00D2025E00E2044
:100AE00023E00F2021E010201FE011201DE0122044
:100AF0001BE0132019E0142017E0152015E0162044
:100B000013E0172011E018200FE019200DE01A2043
:100B10000BE01B2009E01C2007E01D2005E01E2043
:100B200003E01F2001E0002000BF00BF00BD30B582
:100B300005460C46207801280CD10121284600F0FA
:100B4000DDFB0121284600F05BF80021284600F07B
:100B50007DF81FE00021284600F0D0FB6178284690
:100B600000F04EF8A178284600F070F86078002870
:100B700008D1E178284600F025FB2179284600F0CD
:100B80000BF807E06179284600F084FBA17928463C
:100B900000F04CFB30BD000030B505460C46284641
:100BA000FFF748FF02460D2D11DC002C07D113483A
:100BB0004068012191408843104948601CE00F487B
:100BC00040680121914008430C49486014E0002C22
:100BD00009D10A4880384168012090408143074884
:100BE0008038416008E00548803840680121914024
:100BF000084302498039486030BD0000C00400400D
:100C000030B505460C462846FFF714FF02460D2D69
:100C10000BDC012C04D1012090400B49886111E0CC
:100C2000012090400849C8610CE0012C05D1012049
:100C3000904005498039886104E0012090400249D4
:100C40008039C86130BD00008004004030B50246E4
:100C5000002906D0012906D0022906D0032908D18F
:100C600005E0002007E0012005E0022003E003206A
:100C700001E0002000BF00BF130001F05BF82E1858
:100C8000222D3A4754616E7B85909DAAB7C4F0FD32
:100C9000EDECEBEAE9E8E7E6E5E4E3E2E1E0DFDEFC
:100CA000DDDCDBDAD9D8D7D6D5D4D3D2D1D0FC4B42
:100CB0005B6A9B089B008407A40F2343F84C636284
:100CC0007BE2F74B5B6A3024A343040130252C40C0
:100CD0002343F34C636270E2F14B5B6A032424020A
:100CE000A343040203252D022C402343EC4C6362F2
:100CF00063E2EB4B5B6A03242403A3430403032551
:100D00002D032C402343E64C636256E2E44B5B6ABE
:100D100003242404A343040403252D042C4023436B
:100D2000DF4C636249E2DE4B5B6A03242405A34384
:100D3000040503252D052C402343D94C63623CE276
:100D4000D74B5B6A03242406A343040603252D0620
:100D50002C402343D24C63622FE2D14B5B6A0324C5
:100D60002407A343040703252D072C402343CC4C21
:100D7000636222E2CA4B9B6A9B089B008407A40F14
:100D80002343C74CA36218E2C54B9B6A3024A3439C
:100D9000040130252C402343C14CA3620DE2C04B1B
:100DA0009B6A03242402A343040203252D022C4042
:100DB0002343BB4CA36200E2B94B9B6A0324240388
:100DC000A343040303252D032C402343B44CA36207
:100DD000F3E1B34B9B6A03242404A34304040325D7
:100DE0002D042C402343AE4CA362E6E1AC4B9B6A3E
:100DF00003242405A343040503252D052C40234388
:100E0000A74CA362D9E1A64B803B5B6A9B089B0081
:100E10008407A40F2343A24C803C6362CDE1CBE165
:100E2000BDE1AFE1A1E193E185E177E16BE160E153
:100E300052E144E136E123E113E103E1F5E0E8E0CA
:100E4000D8E0C8E0B8E0A8E098E088E07AE06DE09B
:100E50005DE04DE03DE02DE01DE00DE0FFE7904B53
:100E6000803B5B6A3024A343040130252C4023439C
:100E70008B4C803C6362A0E1894B803B5B6A03241E
:100E80002402A343040203252D022C402343844C57
:100E9000803C636291E1824B803B5B6A03242403C4
:100EA000A343040303252D032C4023437C4C803CA7
:100EB000636282E17A4B803B5B6A03242404A34390
:100EC000040403252D042C402343754C803C6362AD
:100ED00073E1734B803B5B6A03242405A343040541
:100EE00003252D052C4023436D4C803C636264E157
:100EF0006B4B803B5B6A03242406A3430406032553
:100F00002D062C402343664C803C636255E1644BC4
:100F1000803B5B6A03242407A343040703252D07B2
:100F20002C4023435E4C803C636246E15C4B803B3B
:100F30009B6A9B089B008407A40F2343584C803C6A
:100F4000A3623AE1564B803B9B6A3024A3430401E1
:100F500030252C402343524C803CA3622DE1504B62
:100F6000803B9B6A03242402A343040203252D0231
:100F70002C4023434A4C803CA3621EE1484B803BFB
:100F80009B6A03242403A343040303252D032C405D
:100F90002343434C803CA3620FE1414B803B9B6A5F
:100FA00003242404A343040403252D042C402343D9
:100FB0003B4C803CA36200E1394B803B9B6A03249D
:100FC0002405A343040503252D052C402343344C5D
:100FD000803CA362F1E0324B803B9B6A03242406F1
:100FE000A343040603252D062C4023432C4C803CB0
:100FF000A362E2E02A4B803B9B6A03242407A343BD
:10100000040703252D072C402343254C803CA36275
:10101000D3E0234B803BDB6A9B089B008407A40F33
:1010200023431F4C803CE362C7E01D4B803BDB6ADF
:101030003024A343040130252C402343184C803C2A
:10104000E362BAE0164B803BDB6A03242402A3432D
:10105000040203252D022C402343114C803CE36203
:10106000ABE00F4B803BDB6A03242403A343040360
:1010700003252D032C402343094C803CE3629CE074
:10108000074B803BDB6A03242404A34304040325A9
:101090002D042C402343024C803CE3628DE0000091
:1010A00080040040464BDB6A03242405A343040567
:1010B00003252D052C402343414CE3627DE0404B4A
:1010C000DB6A03242406A343040603252D062C40D3
:1010D00023433B4CE36270E0394BDB6A0324240773
:1010E000A343040703252D072C402343344CE3621C
:1010F00063E0334B1B6B9B089B008407A40F2343C7
:101100002F4C236359E02E4B1B6B3024A343040167
:1011100030252C4023432A4C23634EE0284B1B6B85
:1011200003242402A343040203252D022C4023435D
:10113000234C236341E0224B1B6B03242403A34372
:10114000040303252D032C4023431D4C236334E06B
:101150001B4B1B6B03242404A343040403252D040D
:101160002C402343164C236327E0154B1B6B0324B1
:101170002405A343040503252D052C402343104CCF
:1011800023631AE00E4B1B6B03242406A3430406BF
:1011900003252D062C402343094C23630DE0084B07
:1011A0001B6B03242407A343040703252D072C40AE
:1011B0002343034C236300E000BF00BF30BD0000A9
:1011C0000004004030B505460C462846FFF732FCC7
:1011D00002460D2D11DC002C07D11348806B012134
:1011E00091408843104988631CE00F48806B0121BF
:1011F000914008430C49886314E0002C09D10A4847
:101200008038816B0120904081430748803881639A
:1012100008E005488038806B01219140084302496D
:101220008039886330BD00008004004030B5054639
:101230000C462846FFF7FEFB02460D2D11DC002C64
:1012400007D1134800680121914088431049086084
:101250001CE00F4800680121914008430C490860D8
:1012600014E0002C09D10A48803801680120904020
:10127000814307488038016008E0054880380068ED
:1012800001219140084302498039086030BD0000C7
:10129000C004004030B505460C462846FFF7CAFB9F
:1012A00002460D2D11DC002C07D11348C06B012123
:1012B000914088431049C8631CE00F48C06B01216E
:1012C000914008430C49C86314E0002C09D10A4836
:1012D0008038C16B01209040814307488038C1634A
:1012E00008E005488038C06B01219140084302495D
:1012F0008039C86330BD00008004004030B5054629
:101300000C462846FFF796FB02460D2D11DC002CFB
:1013100007D11348406B012191408843104948632D
:101320001CE00F48406B0121914008430C49486381
:1013300014E0002C09D10A488038416B012090400C
:10134000814307488038416308E005488038406B96
:1013500001219140084302498039486330BD0000B3
:101360008004004030B505460C462846FFF762FB76
:1013700002460D2D0BDC012C04D1012090400B49BD
:10138000886011E0012090400849C8600CE0012C01
:1013900005D10120904005498039886004E0012092
:1013A000904002498039C86030BD00008004004090
:1013B00010B500F0F1FE00F03FFF00F013FF00F069
:1013C00007FFFFF7FDFA00F0A7FA7D20C00000F04C
:1013D000CBFCFFF7EFFAFF20F53000F0C5FCFFF77C
:1013E000E3FA012040060549C861642000F0BCFC16
:1013F000012040060149C86010BD00000004004003
:1014000030B50B460021002A21D0154C03252D02B2
:1014100064198510AD0061598407E50EFF24AC40C6
:101420000D46A54329469C07240E8507ED0EAC40CA
:1014300021430B4C03252D0264198510AD00615129
:10144000C506ED0E0124AC40054D2C6006E0C50636
:10145000ED0E0124AC40024D80352C6030BD000003
:1014600000E100E070B51C46002807D1674B5B68BF
:1014700001252D03AB43654D6B6070BD644B0125A9
:10148000AD072B60002901D0012913D15F4B5B68A8
:101490009B03DB0F002B0DD15C4B5B680225AB433C
:1014A0009B1C5A4D6B6000BF584B5B689B03DB0F66
:1014B000002BF9D0032905D0042903D0052901D038
:1014C000062919D1514B5B68DB03DB0F002B13D1CD
:1014D0004E4B5B685B085B005B1C4C4D6B602B46A6
:1014E0001B680425AB43494D2B6000BF474B5B682D
:1014F000DB03DB0F002BF9D00B0000F01BFC070512
:101500000D18232E39444D00404B5B6807252D02F2
:10151000AB433E4D6B6040E03C4B5B6807252D02C2
:10152000AB43FF33FF330233384D6B6035E0374B4D
:101530005B6807252D02AB4303252D025B19334D54
:101540006B602AE0314B5B6807252D02AB43012518
:10155000AD025B192D4D6B601FE02C4B5B680725BE
:101560002D02AB4305252D025B19284D6B6014E05D
:10157000264B5B6807252D02AB4303256D025B19E3
:10158000224D6B6009E0214B5B6807252D02AB43C0
:101590005B191E4D6B6000E000BF00BF1B4B5B681A
:1015A0000125ED02AB43D5020126F60235402B435F
:1015B000164D6B602B465B686D14AB43134D6B602F
:1015C0002B465B68AD14AB435B19104D6B6000BFDD
:1015D0000E4B5B685B03DB0F002BF9D0012C07D1AE
:1015E0000A4B1B682502AB435B19084D2B6006E0D4
:1015F000064B1B68FF250135AB43044D2B600023D0
:101600000125AD072B6000BF37E700004000004018
:101610009669AA550849012292071160074909688D
:10162000890889008207920F1143044A1160002142
:1016300012061160704700009669AA5540000040EC
:1016400018480068002804D016480068401E154954
:10165000086015480078012802D10220134908616A
:10166000134800687D21C900884215D30020104925
:1016700008601048C068401C0E49C8600E480078D9
:10168000C0430D4908700D480D49086000200D4900
:10169000C8600B49086004E005480068401C044924
:1016A0000860704700020020FD0100200004004097
:1016B0000402002028020020FC01002051E5CC1A81
:1016C000001D0040001C0040014600200D4B0A6830
:1016D0005A6100229A610A79002A02D0042210433A
:1016E00003E0042302469A4310464A79002A02D0B6
:1016F0000222104303E0022302469A431046014AA5
:101700001061704700E000E01FB5FFF779F9002095
:10171000FFF780FF01231A4619461846FFF7A2FE7D
:10172000154801218907086014480068072109034A
:1017300088431249086000200906086001216846B4
:10174000017341730E48029002A8FFF7BDFF0D48D8
:101750000069012108430B4908610B480B490860E7
:101760000B48009000216846017101214171002160
:10177000817100F0A7FA1FBD9669AA55400000408C
:1017800080BB000000E000E051E5CC1A001D0040E5
:101790001405000010B501210C4800F054F8002891
:1017A00013D00121094800F047F809480068401C9F
:1017B00007490860084600680649884205D30020AA
:1017C00005490860014800F039F810BD00280040C4
:1017D00018020020E70300001C02002010B5026977
:1017E00006239A430B785B00062423401A430261C8
:1017F000026908239A434B78DB00082423401A43EC
:101800000261026930239A438B781B013024234004
:101810001A4302610269C0239A43CB789B01C0241A
:1018200023401A430261C268120A12020B795B1E3E
:10183000DBB21A43C26010BD4162704701694908BA
:1018400049000161704702460020536A0B40002B9B
:1018500001D0012000E000207047002A03D0036A75
:101860000B43036202E0036A8B430362704710B5C7
:10187000026903231B029A430B0203242402234020
:101880001A43026110BD026901231B049A43D21856
:1018900002610268120C12048BB21A4302600269E0
:1018A00001231B049A4302617047026B120C12045D
:1018B0008BB21A4302637047F8B5074612A000F0D6
:1018C0005DFA01281DD10024002500260DE01148F5
:1018D000005D7B2801D1681CC5B20E48005D7D28E3
:1018E00001D1701CC6B2601CC4B2C72C03DA09480F
:1018F000005D0028EBD1B54201D00020F8BD0120E9
:10190000FCE70020FAE70000524543562046524FBC
:101910004D3A00005802002000B587B0002168460B
:1019200001750121817500214175C1750121017683
:1019300005A92520FFF7FBF8002168460175012164
:101940008175417500214176817605A92420FFF734
:10195000EEF8E12040020390012168460174002165
:10196000C171017201714171817101A9124800F0C8
:10197000E3F80021104800F09DF900210E4800F026
:101980008FF9012211040C4800F0CCF80122114615
:101990001720FFF735FD0848006801210904884336
:1019A0004018054908600846006840084000401C8F
:1019B0000860012007B000BD0060004000BF05497D
:1019C000C9698904C90F0029F9D102492039087071
:1019D000704700004060004070B506460020134983
:1019E000087013490870012012490870002504E0AE
:1019F000002011494855681CC5B2772DF8DB0E4C04
:101A000032460EA12046FEF729FC03E02078FFF7BE
:101A1000D5FF641C20780028F8D100BF0848406931
:101A20008006C00F0028F9D170BD000024020020FC
:101A3000250200202302002020030020257300003F
:101A40000060004010B500202649087001210904FB
:101A5000254800F05FF8002843D0012109042248FE
:101A600000F050F800283CD01F48203004791F486F
:101A70000078002823D01E481E490978405CA04207
:101A800019D11C480078401C1A4908701848097878
:101A9000405C0D280BD0164816490978405C0A288E
:101AA00005D0134813490978405C002819D100205B
:101AB0000E49087015E000200E49087011E0202C36
:101AC0000FDB7F2C0DDC0C480C49097844540B4883
:101AD0000078401C094908707D2C02D1002008497B
:101AE000087010BD21020020006000402302002089
:101AF000200300202502002058020020240200209C
:101B00002202002002460020D3690B40002B00D0A7
:101B1000012070470246002093690B40002B00D043
:101B200001207047012A03D183690B43836102E0DE
:101B300083698B4383617047F0B585B005460C46D9
:101B40000027207B01280ED1A1680801FEF71CFEAA
:101B5000039051480068FEF717FE02900399FEF7C4
:101B60001FFD074634E0207B02280ED1A168480102
:101B7000FEF70AFE039048480068FEF705FE029053
:101B80000399FEF70DFD074622E0207B03280ED1C6
:101B9000A1688801FEF7F8FD03903F480068FEF752
:101BA000F3FD02900399FEF7FBFC074610E0207B53
:101BB00004280DD1A168C801FEF7E6FD0390364860
:101BC0000068FEF7E1FD02900399FEF7E9FC074685
:101BD0003846FEF7BBFC0022304B0191009000F02C
:101BE000A1FB02D200202D4902E03846FEF7AEFCF0
:101BF00003910290FEF76CFC07468321C905384625
:101C000000F0C2FB0390FEF77BFD064668680721E3
:101C100009028843217B090207221202114008436E
:101C200068602E61286801214903884321784903AF
:101C30000122520311400843286028680F2109023D
:101C40008843617809020F2212021140084328607C
:101C50002868012109038843A1780903012212039E
:101C600011400843286028680F2109068843E1785D
:101C700009060F2212061140084328602868012136
:101C800009078843217909070122120711400843F7
:101C9000286005B0F0BD00000C0200200000F03FFD
:101CA00010B5426830239A430B01302423401A4375
:101CB000426010BD4268920892008B079B0F1A4346
:101CC0004260704770B50446A079002802D02068B1
:101CD000450108E07D21C90014480068FEF747FB74
:101CE00021684843054612480560806808218843FA
:101CF000A179C9000822114008430D4988600846AF
:101D0000806802218843217949000222114008435A
:101D10000749886008468068042188436179890002
:101D20000422114008430249886070BD0C02002063
:101D3000001C004030B47446641E2578641CAB421D
:101D400004D3635D5B00E31830BC18471D46F8E719
:101D5000002004E00021034A1154411C88B2C72826
:101D6000F8DB7047580200200349086000BF0249B1
:101D700009680029FBD170470002002070B50546B4
:101D80000A242A4620A12148FEF768FA00202049AB
:101D900008702049087001201F4908701F49087009
:101DA0001F4908700FE0FF20F530FFF7DDFF1D48E9
:101DB0001D49086000201D49C8601B490860641E59
:101DC000002C00D170BD154800780028EBD10FE041
:101DD000FF20F530FFF7C8FF1248134908600020C4
:101DE0001249C86010490860641E002C00D1E9E760
:101DF0000B4800780028EBD10DA0FFF7EDFD642023
:101E0000FFF7B2FF0120DDE725730000200300206B
:101E100024020020250200202302002021020020AD
:101E20002202002051E5CC1A001D0040001C004099
:101E3000676574204D534720656E640D0A000000ED
:101E40001CB500BFFFF760FCFFF7B2FA00F0ACF979
:101E50006BE03648FFF7C0FD344820384069042164
:101E600008408008303069460870304820384069A2
:101E70000221084041083031684641702B48203823
:101E8000007DC107C90F3031684681700D21C170D6
:101E900000210171FFF7A0FDFFF75AFFFEF784FD57
:101EA0002348FFF709FD012802D1214800F04AF834
:101EB0001E482038406904210840002803D0012032
:101EC00000F005FA02E0012000F0D7F917482038A9
:101ED000406902210840002803D0022000F0F7F9F1
:101EE00002E0022000F0C9F910482038007DC00748
:101EF000C00F002803D0032000F0E9F902E003201E
:101F000000F0BBF90BA0FFF767FDFF20F530FFF7EE
:101F10002BFF0748FFF760FD0948FEF763FDFEF75A
:101F200049FD7D20C000FEF75DFD92E748020020DC
:101F3000580200206D73673D3D3D0D0A0000000012
:101F4000B80B0000F1B586B00025002004900026F3
:101F50000390002702900190009006980590824817
:101F60008249086000208249C8608049086081A1D8
:101F70000598FEF7E8F9041E04D0A0793038C0B205
:101F8000049003E06806050E0120054305947BA13B
:101F90000598FEF7D8F9041E11D00026641D20789C
:101FA000312801D1301DC6B26078312801D1B01C72
:101FB000C6B2A078312806D1701CC6B203E068060C
:101FC000050E0120054305946DA10598FEF7BBF9A8
:101FD000041E18D0E41C0020039012E02078302862
:101FE0000EDB207839280BDC0A2103984843039044
:101FF0002078303803994018C0B20390641C00E088
:1020000000E0EBE703E06806050E012005430594B8
:102010005CA10598FEF797F9041E15D0241D002732
:1020200010E0207830280CDB2078392809DC38468D
:102030000A214843074620783038C019C7B2641CCB
:1020400000E000E0EDE703E06806050E012005432F
:1020500005944DA10598FEF776F9041E17D0241DAE
:102060000020029011E0207830280DDB20783928FC
:102070000ADC0A21029848430290207830380299FD
:1020800040180290641C00E000E0ECE703E0680602
:10209000050E0120054305943CA10598FEF753F970
:1020A000041E17D0241D0020019011E02078302854
:1020B0000DDB207839280ADC0A2101984843019079
:1020C00020783038019940180190641C00E000E04D
:1020D000ECE703E06806050E0120054305942CA1FA
:1020E0000598FEF730F9041E17D0241D002000903B
:1020F00011E0207830280DDB207839280ADC0A210D
:10210000009848430090207830380099401800909B
:10211000641C00E000E0ECE703E06806050E012027
:102120000543002D1ED10498C0B21A490861F0B2CF
:1021300048610398C0B28861F8B2C861029808602B
:102140000198C860009888600C211248FEF720FCB6
:102150004620FFF709FE0C210E48FEF719FC01206E
:1021600007B0F0BD0020FBE751E5CC1A001D004090
:10217000001C004054595045000000005653000018
:102180005400000046540000534600005254000022
:102190004554000028020020182002494861C0432D
:1021A000486370470004004010B50C221121C90299
:1021B0000648FEF7F3FBC820FFF7D6FD0C221121DD
:1021C000C9020248FEF7EAFB10BD00002802002009
:1021D000FF20413002494861C04348637047000016
:1021E000000400401CB50021684601708170C17078
:1021F000012001906846417069460D48FFF7EEFAEC
:1022000002210B48FFF733FB00210948FFF73BFB96
:1022100008490748FFF749FB012211460448FFF728
:102220001CFB012211460A20FFF7EAF81CBD000042
:102230000028004080BB00001CB5002168460170EA
:1022400081704170C170017169461920FEF76FFC01
:1022500069461A20FEF76BFC69461B20FEF767FCF7
:1022600000211920FFF77EF800211A20FFF77AF8E5
:1022700000211B20FFF776F81CBD10B50446002C8A
:1022800006D0012C11D0022C14D0032C1CD116E046
:1022900000211920FFF766F800211A20FFF762F8E5
:1022A00000211B20FFF75EF80FE000211920FFF747
:1022B00059F80AE000211A20FFF754F805E0002140
:1022C0001B20FFF74FF800E000BF00BF10BD10B5A6
:1022D0000446002C06D0012C11D0022C14D0032C63
:1022E0001CD116E001211920FFF73CF801211A202A
:1022F000FFF738F801211B20FFF734F80FE0012128
:102300001920FFF72FF80AE001211A20FFF72AF819
:1023100005E001211B20FFF725F800E000BF00BF0A
:1023200010BD000070B501250C002D051C4310D414
:10233000EC4206D4AC420AD4994200D070BD90421F
:1023400070BDE94217D4EB4215D4994270BD894261
:1023500070BDEC4206D5AC42F9D58B4200D070BDC1
:10236000824270BD6D004C00EC4204D25C00EC4235
:1023700001D28B4270BD034C30B4FEF73DFA30BC45
:1023800070BD00BF1900160470B5420064414B00D7
:102390005C41120E39D01B0E38D0FF2A3CD0FF2BE7
:1023A0003AD040024902400A490A060045184E4305
:1023B000000A090AD2184843ED017F3A0104731A52
:1023C0004019190C4318990F04D001215B084907E3
:1023D0005B1A521CD80904D3401CF50301D19D0699
:1023E00007D0FF2A08D2D50506D0E40720434019BC
:1023F00070BD0125A843F4E7002A01DCE00770BDA9
:102400002402FF202043C00570BD1B0EFF2A03D00D
:10241000FF2B01D0E00770BDFF2645003606B54210
:1024200006D84D00B54203D8D218FF2A00D0E7E7FE
:10243000004870BD0000C07F8182838485868788C4
:10244000898B8C8D8E8F919293959697999A9C9D5E
:102450009FA0A2A3A5A7A8AAACAEB0B2B3B5B7B9C6
:10246000BCBEC0C2C5C7C9CCCED1D4D7D9DCDFE28F
:10247000E6E9ECF0F3F7FAFEA824000000000020E3
:10248000FC01000004010000A4260000FC01002063
:102490002C00000004010000D026000028020020CB
:1024A000D00500002001000070B503460C461E4612
:1024B0002546002A01D1002070BD002105E02868D2
:1024C0003060361D2D1D481CC1B29142F7DB012042
:1024D000F2E70000A520124A10611046006840088B
:1024E0004000401C106010460068102290431030DD
:1024F0000B4A1060002108E0094800688006C00F00
:10250000002800D004E0481C81B206488142F3DB79
:1025100000BF0448814201D0012070470020FCE741
:1025200000080040FFFF000070B503460C4623483A
:1025300040683F25AD02A843A5023F26B6023540BC
:1025400028431E4D686028464068FF25AD00A8431B
:102550009D00FF26B60035402843184D6860284688
:1025600082601748E860002108E014484069C0070D
:10257000C00F002800D104E0481C81B211488142FC
:10258000F3DB00BF0F48814201D1002070BD002164
:1025900008E00A4840694007C00F002800D004E066
:1025A000481C81B207488142F3DB00BF05488142E5
:1025B00001D10020EAE70120E8E700000008004020
:1025C000A25D0000FFFF0000A5200E4A106110462A
:1025D0000068102290430B4A1060002107E0094870
:1025E00000688006C00F002800D103E0491C06489F
:1025F0008142F4D300BF0448814201D001207047DA
:102600000020FCE700080040FFFF0000F8B504468A
:102610000D46164600BFEFF31080074672B6FFF76F
:1026200059FF002800D111E0324629462046FFF725
:102630007BFF002800D109E0FFF7C6FF002800D18A
:1026400004E0384600F02AF80120F8BD384600F0D2
:1026500025F862B60020F8E7F3B581B005462F46AD
:102660000D48281A8003040C2046E117890F091829
:102670008C1000260AE0A119C8B222213A68FFF79F
:10268000C5FF012802D1701C86B23F1D0298864208
:10269000F1DB0120FEBD00002802002080F310883D
:1026A0007047000000000000000000000000000073
:1026B00000000000006CDC020000000000000000D0
:1026C00000000000006A1800010101010000000084
:04000005000000C136
:00000001FF
