:020000040000FA
:10000000780600208901000095010000970100009A
:1000100000000000000000000000000000000000E0
:100020000000000000000000000000009901000036
:1000300000000000000000009B010000B11C000057
:100040009F0100009F0100009F0100009F01000030
:100050009F0100009F0100009F0100009F01000020
:100060009F0100009F010000311E00009F01000061
:100070009F010000000000000000000000000000E0
:100080009F0100009F0100009F0100009F010000F0
:10009000000000009F0100009F010000E920000017
:1000A0009F0100009F010000000000009F01000070
:1000B0009F0100009F010000000000009F01000060
:1000C00000F002F800F050F80CA030C808382418EE
:1000D0002D18A246671EAB4654465D46AC4201D180
:1000E00000F042F87E460F3E0FCCB6460126334262
:1000F00000D0FB1AA246AB4633431847A4290000A0
:10010000C4290000103A02D378C878C1FAD852073F
:1001100001D330C830C101D504680C6070470000BD
:100120000023002400250026103A01D378C1FBD813
:10013000520700D330C100D50B60704710B5752948
:1001400002D100F0FBF810BD632902D100F098FC49
:1001500010BD732902D100F09BFC10BD002010BD22
:100160001FB51FBD10B510BD00F014FD1146FFF7FF
:10017000F7FF02F09FFA00F02CFD03B4FFF7F2FF47
:1001800003BC00F061FD000005488047054880473A
:1001900005480047FEE7FEE7FEE7FEE7FEE7FEE76D
:1001A000AD010000951D0000C100000000B500BFBA
:1001B00000BF00BF00BF00BF19481A4901601A48BC
:1001C0001A4F00F010F81A481A4F00F00CF81A48AD
:1001D0001A4F00F008F81A481A4F00F004F81048B7
:1001E0001949016000BD00B5184A0168914203D168
:1001F0000168914200D112E0154D164C0A002240D0
:100200000B0A2340D2180B0C2340D21822400B0EAD
:100210009A4203D0013D02D00168EFE7396000BD8A
:1002200080000040699655AA24011000A4000040F7
:1002300028011000A80000402C0110009C00004084
:1002400030011000A000004000000000FFFFFFFF91
:1002500003000000FF00000002480349014A034B6D
:100260007047000078020020780600207802002005
:100270000FB41CB5084B06AA7B446946009005984C
:1002800000F0DBFB04460020694600F0E9FB204655
:100290001CBC08BC04B01847E507000070B5044654
:1002A00085690068C10601D5302600E02026C00718
:1002B00007D070BD62683046A1689047206A401C34
:1002C00020626D1EF6D570BD70B504468569007854
:1002D000C00707D170BD6268A16820209047206ADE
:1002E000401C20626D1EF6D570BD70B50C460546EB
:1002F000012A05D02878800600D5EA69002302E0AB
:10030000012305E05B1C934202D2E05C0028F9D196
:10031000A869E618C01AA861286AC0182862284689
:10032000FFF7BCFF04E06A682078A968641C904766
:10033000B442F8D32846FFF7C7FF70BDF7B50025D4
:1003400075291068009914A611D0C046C04600282F
:1003500002DA404211A608E0009909688A0701D52F
:100360000FA602E0490704D50EA6012501E0C0460C
:10037000C046009F0024243704E000F08DFB30319C
:100380003955641C0028F8D12B4632462146009886
:1003900000F0F5FAFEBD0000000000002D00000096
:1003A0002B00000020000000F3B50446002081B0BF
:1003B00020622046E168884700287DD0252802D0A9
:1003C0006268A16883E0454F00257F442046E168CC
:1003D00088472028064608DB312E06D2B819203877
:1003E0000078002801D00543F0E7A80701D50420D4
:1003F00085430020E0610746A0612A2E0AD03046DE
:1004000002F01DF8002827D0B8000019303E0090F7
:10041000866119E00298BA00121902C8916102902F
:100420002046E1688847012F064617D1E069002879
:100430001FDA202085431CE000980A218069484388
:1004400000998019303888612046E168884706465F
:1004500001F0F5FF0028EFD1012F0AD02E2E08D190
:100460002046E16888470646202005437F1C022F6E
:10047000C3DBA069002803DA4042A06101200543E4
:10048000E80701D010208543002E24D030464138A3
:10049000192803D80120C0020543203620462560D4
:1004A0003146029A1546FFF749FE00280CD0012874
:1004B00007D0ED1DE80800E00DE0C0000830029014
:1004C00077E72D1D029574E762683046A168904772
:1004D000206A401C6CE7206AFEBD00007E260000FA
:1004E00030B505460B462A461C781078521C5B1C1A
:1004F000002801D0A042F7D0002C03D0002802D061
:100500006D1CEFE7284630BD421E5378521C002B6D
:10051000FBD10B78491C1370521C002BF9D170478A
:1005200001E004C0091F0429FBD28B0701D502801A
:10053000801CC90700D00270704700290BD0C30788
:1005400002D00270401C491E022904D3830702D541
:100550000280801C891EE3E70022EEE70022DFE72D
:10056000002203098B422CD3030A8B4211D30023B0
:100570009C464EE003460B433CD4002243088B428A
:1005800031D303098B421CD3030A8B4201D3944617
:100590003FE0C3098B4201D3CB01C01A524183090A
:1005A0008B4201D38B01C01A524143098B4201D3C4
:1005B0004B01C01A524103098B4201D30B01C01AEF
:1005C0005241C3088B4201D3CB00C01A5241830869
:1005D0008B4201D38B00C01A524143088B4201D396
:1005E0004B00C01A5241411A00D2014652411046F6
:1005F00070475DE0CA0F00D04942031000D340426B
:10060000534000229C4603098B422DD3030A8B42A0
:1006100012D3FC22890112BA030A8B420CD389013E
:1006200092118B4208D3890192118B4204D3890124
:100630003AD0921100E08909C3098B4201D3CB0162
:10064000C01A524183098B4201D38B01C01A524117
:1006500043098B4201D34B01C01A524103098B421B
:1006600001D30B01C01A5241C3088B4201D3CB0006
:10067000C01A524183088B4201D38B00C01A5241E9
:10068000D9D243088B4201D34B00C01A5241411AC0
:1006900000D20146634652415B10104601D34042EE
:1006A000002B00D54942704763465B1000D340429F
:1006B00001B50020C046C04602BD70477047704774
:1006C0000246C80FC00781434B0030B54B405B006A
:1006D0009B0D20D01923DB06C91801231B05994265
:1006E00020DB0324A40704251346AB400BD3002BC7
:1006F00004D1EB0613409B00E34204D401246407B9
:10070000002312195941FF231B0599420BD2C9003E
:100710000143500F09E0CB0204D501430803024313
:1007200005D0054830BDFF21C905084330BD084646
:1007300007210905884330BD0000C07F0121C9059C
:100740000123411842001B06D3185B0E0AD0C110CA
:100750000722D206891840075242D14201D55200E1
:1007600089187047090208D50146002A03D0C10F35
:10077000C9070020704710467047420202D000208F
:1007800002497047072109050143F4E70000F87F9B
:10079000F0B5FF252D04C609C209FF2704462E40E7
:1007A0000137CB093E4348402A402B400746002AE8
:1007B0006BD0002B69D0AA4267D0AB4265D000282D
:1007C00000DA32460125ED0529432C4309022002B7
:1007D000090AD21A4B0C7F24E31A434C000A7C44CA
:1007E000E35C7D242404121914145B00A2188842CF
:1007F00001D3521C00E0400049420C465C432411E6
:100800005C43DB016415E318040A5C43C502200D58
:100810000C4644436419250A5D432303EC0C0D4642
:10082000654300030019EB184C42A34201D35B1847
:10083000401CD4052018002B07D05B00C91804D336
:10084000401C002901D1400840003F2189048A4210
:1008500009D3002A08DC1106090F04D00321490737
:100860004018C00FC007F0BD0122410012068918D0
:100870007F2252069142F6D205214907C84201D58E
:100880009010F0BDFF20C005F0BD002F00DA324609
:100890001648AA4207D2AB4205D21902090E17D058
:1008A000F80FC007F0BDFF2563002D06AB42F9D855
:1008B0004900A942F6D8AB4201D1A942F2D0A942DF
:1008C00001D1002101E061004908D0050843F0BDD5
:1008D0001102090EFBD0FF200243D005F0BD0A46ED
:1008E0000146104654E700007B2200000000C07F54
:1008F0000102C21504D00123DB071943002A0ADBD9
:100900009E239A1A02D40846D0407047FF22410025
:100910001206914201D900207047C017C0437047AA
:100920001F22030C02D10F2200041CD0030E01D1A0
:100930000002083A030F01D10001121F830F01D1F9
:100940008000921E002801DB4000521ED205511883
:10095000021251181922904004D3491C002801D1D9
:100960004908490008467047C10FC90700D04042F6
:10097000012292071143D3E701218907D0E7FFB590
:1009800004460D4681B0243000902168880604D5C5
:100990001022E0699143216000E00120A84201DDBE
:1009A000471B00E000270498A1697A191018081A5B
:1009B000A0612078C00602D42046FFF76FFC002615
:1009C00008E003986268A168805D9047206A401C37
:1009D000761C206204988642F3DB2078C0060AD594
:1009E0002046FFF75BFC06E06268A1683020904774
:1009F000206A401C206238467F1E0028F4DC07E095
:100A000000986268A168405D9047206A401C20629F
:100A100028466D1E0028F3DC2046FFF755FC2078A1
:100A2000000602D5022005B0F0BD0120FBE7000062
:100A300001694A1C02610878704700B58FB00291C5
:100A400000210591054901937944039111460490D1
:100A50006846FFF7A9FC0FB000BD0000E5FFFFFFEF
:100A60000A681070521C0A60704710B54369002B69
:100A700002D0C046C04601E0FFF737FC012010BDA0
:100A80001278014624310A7000224A700122ECE7F4
:100A900011680022D243E8E701468008081A0209DB
:100AA0001018020A1018020C1018C0088200121840
:100AB0005200891A01E0401C0A390A29FBD270470A
:100AC000F8B5224C4E00069DA6420AD8A64201D196
:100AD000002806D15E00A64203D8A6420AD1002A09
:100AE00008D00D24240425422CD02946002000F0F3
:100AF0002FF8F8BD0C461C430CD4994202D0EFF3FA
:100B00000080F8BD904202D0EFF30080F8BDEFF313
:100B10000080F8BD09242407E5008B4206D0EFF3DE
:100B20000080A043591A06D2284304E0101A05D3C6
:100B3000EFF30080A04380F30088F8BDEFF300805E
:100B4000A043F1E7009500F01BF8F8BD0000E0FFBE
:100B5000C80212D54803400F002804D0C803C04380
:100B6000012188407047EFF3008000010009032154
:100B70000907084380F30088704700207047000091
:100B800010B500200249029A00F02BF810BD0000B9
:100B90000000F87F754600F053F8AE460500694640
:100BA0005346C008C000854618B020B5FFF754FB77
:100BB00060BC00274908B6460026C0C5C0C5C0C5F0
:100BC000C0C5C0C5C0C5C0C5C0C5403D49008D46F3
:100BD000704710B50446C046C0462046FFF7CDFA20
:100BE00010BD10B50C461107090F092904D00A29B8
:100BF0000AD008290CD104E011460820FFF7A8FF0D
:100C000006E0510606D501E0510601D50120C007D6
:100C1000214610BDD10607D501010909CC084907B5
:100C2000000E0006044309E0410F20024907000AB4
:100C30000143200E00061D22D14101430846E7E78B
:100C4000004870471402002001491820ABBEFEE79F
:100C5000260002007047000000200149087070471C
:100C600001000020012001490870704701000020A8
:100C70001CB500216846017081704170C17001711E
:100C800069460F2000F09DF800210F2000F0CCFCF9
:100C90001CBD0000012189070968C807C00F002892
:100CA00003D007490122920711600021C943054A78
:100CB0009160002802D000211206116070470000E8
:100CC0009669AA554000004000B501460B0001F0AE
:100CD000A5FB2E181A1C1E20222426282A2C2E3072
:100CE000323436383A3C3E40424446484A4C4E50F4
:100CF000525456585A5C5E60626466686A6C6E70E4
:100D0000727400205BE0012059E0022057E00320CC
:100D100055E0042053E0052051E006204FE0072075
:100D20004DE008204BE0092049E00A2047E00B2075
:100D300045E00C2043E00D2041E000203FE0012091
:100D40003DE002203BE0032039E0042037E00520AD
:100D500035E0062033E0072031E008202FE00920AD
:100D60002DE00A202BE00B2029E00C2027E00D20AD
:100D700025E00E2023E00F2021E010201FE01120AD
:100D80001DE012201BE0132019E0142017E01520AD
:100D900015E0162013E0172011E018200FE01920AD
:100DA0000DE01A200BE01B2009E01C2007E01D20AD
:100DB00005E01E2003E01F2001E0002000BF00BF6F
:100DC00000BD30B505460C46207801280CD1012124
:100DD000284600F0F5FB0121284600F073F80021B9
:100DE000284600F095F81FE00021284600F0E8FBB7
:100DF0006178284600F066F8A178284600F088F867
:100E00006078002808D1E178284600F03DFB217980
:100E1000284600F023F807E06179284600F09CFBA3
:100E2000A179284600F064FB30BD000030B50446CF
:100E30002046FFF749FF05460D2C02DC06480268F4
:100E400002E00548803802681046E8400246D207B2
:100E5000D20F104630BD00008004004030B505467A
:100E60000C462846FFF730FF02460D2D11DC002C02
:100E700007D11348406801219140884310494860D8
:100E80001CE00F4840680121914008430C4948602C
:100E900014E0002C09D10A488038416801209040B4
:100EA000814307488038416008E005488038406841
:100EB00001219140084302498039486030BD00005B
:100EC000C004004030B505460C462846FFF7FCFE3E
:100ED00002460D2D0BDC012C04D1012090400B4962
:100EE000886111E0012090400849C8610CE0012CA4
:100EF00005D10120904005498039886104E0012036
:100F0000904002498039C86130BD00008004004033
:100F100030B50246002906D0012906D0022906D0A4
:100F2000032908D105E0002007E0012005E00220A8
:100F300003E0032001E0002000BF00BF130001F028
:100F40006DFA2E18222D3A4754616E7B85909DAA2A
:100F5000B7C4F0FDEDECEBEAE9E8E7E6E5E4E3E24F
:100F6000E1E0DFDEDDDCDBDAD9D8D7D6D5D4D3D2E9
:100F7000D1D0FC4B5B6A9B089B008407A40F2343E2
:100F8000F84C63627BE2F74B5B6A3024A3430401B5
:100F900030252C402343F34C636270E2F14B5B6AD3
:100FA00003242402A343040203252D022C402343DF
:100FB000EC4C636263E2EB4B5B6A03242403A343C0
:100FC000040303252D032C402343E64C636256E2C1
:100FD000E44B5B6A03242404A343040403252D0487
:100FE0002C402343DF4C636249E2DE4B5B6A0324FF
:100FF0002405A343040503252D052C402343D94C88
:1010000063623CE2D74B5B6A03242406A3430406D5
:1010100003252D062C402343D24C63622FE2D14B93
:101020005B6A03242407A343040703252D072C40F0
:101030002343CC4C636222E2CA4B9B6A9B089B0011
:101040008407A40F2343C74CA36218E2C54B9B6AD5
:101050003024A343040130252C402343C14CA36218
:101060000DE2C04B9B6A03242402A3430402032520
:101070002D022C402343BB4CA36200E2B94B9B6A78
:1010800003242403A343040303252D032C402343FB
:10109000B44CA362F3E1B34B9B6A03242404A3433F
:1010A000040403252D042C402343AE4CA362E6E147
:1010B000AC4B9B6A03242405A343040503252D059B
:1010C0002C402343A74CA362D9E1A64B803B5B6A2B
:1010D0009B089B008407A40F2343A24C803C6362BF
:1010E000CDE1CBE1BDE1AFE1A1E193E185E177E1C4
:1010F0006BE160E152E144E136E123E113E103E118
:10110000F5E0E8E0D8E0C8E0B8E0A8E098E088E0E2
:101110007AE06DE05DE04DE03DE02DE01DE00DE0AA
:10112000FFE7904B803B5B6A3024A34304013025EA
:101130002C4023438B4C803C6362A0E1894B803B75
:101140005B6A03242402A343040203252D022C40DE
:101150002343844C803C636291E1824B803B5B6A19
:1011600003242403A343040303252D032C4023431A
:101170007C4C803C636282E17A4B803B5B6A032457
:101180002404A343040403252D042C402343754C5D
:10119000803C636273E1734B803B5B6A03242405EC
:1011A000A343040503252D052C4023436D4C803CAF
:1011B000636264E16B4B803B5B6A03242406A343B8
:1011C000040603252D062C402343664C803C6362B5
:1011D00055E1644B803B5B6A03242407A343040767
:1011E00003252D072C4023435E4C803C636246E17F
:1011F0005C4B803B9B6A9B089B008407A40F2343A6
:10120000584C803CA3623AE1564B803B9B6A3024A9
:10121000A343040130252C402343524C803CA3625D
:101220002DE1504B803B9B6A03242402A34304021C
:1012300003252D022C4023434A4C803CA3621EE12F
:10124000484B803B9B6A03242403A34304030325E8
:101250002D032C402343434C803CA3620FE1414BC0
:10126000803B9B6A03242404A343040403252D0428
:101270002C4023433B4C803CA36200E1394B803B34
:101280009B6A03242405A343040503252D052C4054
:101290002343344C803CA362F1E0324B803B9B6A99
:1012A00003242406A343040603252D062C402343D0
:1012B0002C4C803CA362E2E02A4B803B9B6A0324D7
:1012C0002407A343040703252D072C402343254C63
:1012D000803CA362D3E0234B803BDB6A9B089B00EE
:1012E0008407A40F23431F4C803CE362C7E01D4BDF
:1012F000803BDB6A3024A343040130252C40234388
:10130000184C803CE362BAE0164B803BDB6A032456
:101310002402A343040203252D022C402343114C35
:10132000803CE362ABE00F4B803BDB6A0324240389
:10133000A343040303252D032C402343094C803C85
:10134000E3629CE0074B803BDB6A03242404A34355
:10135000040403252D042C402343024C803CE3620B
:101360008DE0000080040040464BDB6A0324240526
:10137000A343040503252D052C402343414CE36280
:101380007DE0404BDB6A03242406A34304060325C7
:101390002D062C4023433B4CE36270E0394BDB6A63
:1013A00003242407A343040703252D072C402343CC
:1013B000344CE36263E0334B1B6B9B089B00840758
:1013C000A40F23432F4C236359E02E4B1B6B302477
:1013D000A343040130252C4023432A4C23634EE0D1
:1013E000284B1B6B03242402A343040203252D0274
:1013F0002C402343234C236341E0224B1B6B0324EB
:101400002403A343040303252D032C4023431D4C35
:10141000236334E01B4B1B6B03242404A343040409
:1014200003252D042C402343164C236327E0154B42
:101430001B6B03242405A343040503252D052C4021
:101440002343104C23631AE00E4B1B6B032424062A
:10145000A343040603252D062C402343094C236394
:101460000DE0084B1B6B03242407A343040703254B
:101470002D072C402343034C236300E000BF00BF33
:1014800030BD00000004004030B505460C4628463B
:10149000FFF71AFC02460D2D11DC002C07D1134872
:1014A000806B012191408843104988631CE00F48FC
:1014B000806B0121914008430C49886314E0002CA3
:1014C00009D10A488038816B012090408143074848
:1014D0008038816308E005488038806B01219140A5
:1014E000084302498039886330BD00008004004011
:1014F00030B505460C462846FFF7E6FB02460D2DA3
:1015000011DC002C07D11348006801219140884369
:10151000104908601CE00F48006801219140084311
:101520000C49086014E0002C09D10A488038016891
:1015300001209040814307488038016008E0054859
:1015400080380068012191400843024980390860D1
:1015500030BD0000C004004030B505460C462846AA
:10156000FFF7B2FB02460D2D11DC002C07D113480A
:10157000C06B0121914088431049C8631CE00F48AB
:10158000C06B0121914008430C49C86314E0002C52
:1015900009D10A488038C16B012090408143074837
:1015A0008038C16308E005488038C06B0121914054
:1015B000084302498039C86330BD00008004004000
:1015C00030B505460C462846FFF77EFB02460D2D3A
:1015D00011DC002C07D11348406B01219140884356
:1015E000104948631CE00F48406B012191400843BB
:1015F0000C49486314E0002C09D10A488038416B3B
:1016000001209040814307488038416308E0054845
:101610008038406B0121914008430249803948637A
:1016200030BD00008004004030B505460C46284619
:10163000FFF74AFB02460D2D0BDC012C04D10120E3
:1016400090400B49886011E0012090400849C86033
:101650000CE0012C05D101209040054980398860BB
:1016600004E00120904002498039C86030BD00008C
:101670008004004008B500200090002228A12948DD
:1016800000F0E4FE002804D127480068401C2649E9
:101690000860002225A1264800F0D8FE009000280E
:1016A00004D121480068401C1F4908601E4800689A
:1016B0000A2802DD00201C490860684600780128DD
:1016C0001BD10020184908601A4800F0D9FCC82036
:1016D00000F00CFF002218A11A4800F0B7FE00909D
:1016E00069460878012817D0174800F0C9FC0A207D
:1016F00000F0FCFE002000900EE0144800F0C0FC5A
:10170000642000F0F3FE104800F0BAFC7D20C00019
:1017100000F0ECFE002000906846007808BD000054
:101720004F4B000070000020FC0000200000000073
:10173000820000208D000020434F4E4E4543542030
:101740004F4B000098000020EC000020DE0000203D
:1017500010B501F0CFF801F0A3F801F097F8FFF70A
:1017600087FA00F02DFC7D20C00000F0BFFEFFF7DF
:1017700079FA7D20000100F0B9FEFFF76DFAE12053
:10178000400200F0EDFF10BDA520124A1061104686
:10179000006840084000401C10601046006810229D
:1017A000904310300B4A1060002108E0094800689F
:1017B0008006C00F002800D004E0481C81B2064813
:1017C0008142F3DB00BF0448814201D00120704711
:1017D0000020FCE700080040FFFF000070B5034652
:1017E0000C46234840683F25AD02A843A5023F268A
:1017F000B602354028431E4D686028464068FF25E4
:10180000AD00A8439D00FF26B60035402843184D83
:101810006860284682601748E860002108E01448A4
:101820004069C007C00F002800D104E0481C81B205
:1018300011488142F3DB00BF0F48814201D10020F3
:1018400070BD002108E00A4840694007C00F002829
:1018500000D004E0481C81B207488142F3DB00BF9E
:101860000548814201D10020EAE70120E8E70000B5
:1018700000080040A25D0000FFFF0000A5200E4A06
:10188000106110460068102290430B4A106000213E
:1018900007E0094800688006C00F002800D103E077
:1018A000491C06488142F4D300BF0448814201D05C
:1018B000012070470020FCE700080040FFFF000007
:1018C000F8B504460D46164600BFEFF310800746F4
:1018D00072B6FFF759FF002800D111E032462946C1
:1018E0002046FFF77BFF002800D109E0FFF7C6FF85
:1018F000002800D104E0384600F09EFD0120F8BD2C
:10190000384600F099FD62B60020F8E730B591B096
:10191000054600200390029002A903A800F0B8FE3B
:101920002B480078302803D129480078312802D08C
:10193000302127480170264A203A26A12846FEF782
:1019400097FC84B226A104A8FEF792FC001984B289
:1019500004A92846FEF7D8FD1D48027823A104A853
:10196000FEF786FC001984B204A92846FEF7CCFDD8
:1019700017484078C007C00F3030009014484078B6
:1019800002210840401003463033114840780421BA
:10199000084080100246303217A104A8FEF768FC08
:1019A000001984B204A92846FEF7AEFD0848203885
:1019B00040690090029B039A13A104A8FEF758FC0B
:1019C000001984B204A92846FEF79EFD11B030BD6F
:1019D000100200207B22534E223A222573222C0033
:1019E00022434D44223A223031222C0022545950B5
:1019F00045223A25632C0000225653223A222563C1
:101A000025632563222C00002254445331223A25B9
:101A10003033752C2254445332223A253033752CFE
:101A20002246223A2536757D0000000030B50B466F
:101A30000021002A21D0154C03252D0264198510A0
:101A4000AD0061598407E50EFF24AC400D46A54367
:101A500029469C07240E8507ED0EAC4021430B4C14
:101A600003252D0264198510AD006151C506ED0EE8
:101A70000124AC40054D2C6006E0C506ED0E0124A6
:101A8000AC40024D80352C6030BD000000E100E02C
:101A900070B51C46002807D1674B5B6801252D03F4
:101AA000AB43654D6B6070BD644B0125AD072B608A
:101AB000002901D0012913D15F4B5B689B03DB0F29
:101AC000002B0DD15C4B5B680225AB439B1C5A4D30
:101AD0006B6000BF584B5B689B03DB0F002BF9D09A
:101AE000032905D0042903D0052901D0062919D1DD
:101AF000514B5B68DB03DB0F002B13D14E4B5B6854
:101B00005B085B005B1C4C4D6B602B461B6804251F
:101B1000AB43494D2B6000BF474B5B68DB03DB0FDA
:101B2000002BF9D00B0000F079FC07050D18232ECF
:101B300039444D00404B5B6807252D02AB433E4DB9
:101B40006B6040E03C4B5B6807252D02AB43FF33E5
:101B5000FF330233384D6B6035E0374B5B68072548
:101B60002D02AB4303252D025B19334D6B602AE038
:101B7000314B5B6807252D02AB430125AD025B1994
:101B80002D4D6B601FE02C4B5B6807252D02AB438E
:101B900005252D025B19284D6B6014E0264B5B6810
:101BA00007252D02AB4303256D025B19224D6B60A7
:101BB00009E0214B5B6807252D02AB435B191E4DE5
:101BC0006B6000E000BF00BF1B4B5B680125ED02AE
:101BD000AB43D5020126F60235402B43164D6B6010
:101BE0002B465B686D14AB43134D6B602B465B68F3
:101BF000AD14AB435B19104D6B6000BF0E4B5B68BF
:101C00005B03DB0F002BF9D0012C07D10A4B1B68BB
:101C10002502AB435B19084D2B6006E0064B1B68A1
:101C2000FF250135AB43044D2B6000230125AD0793
:101C30002B6000BF37E70000400000409669AA55BE
:101C4000084901229207116007490968890889003B
:101C50008207920F1143044A11600021120611609D
:101C6000704700009669AA5540000040F3B581B066
:101C70000546002000902F460C48281A84B22046C2
:101C8000E117890F09188C10002609E0A119C8B2C4
:101C900022213A68FFF714FE0090701C86B23F1DA7
:101CA00002988642F2DB68460078FEBDF001002013
:101CB00010B51F480068002804D01D480068401E69
:101CC0001B4908601B480078012802D102201A49EC
:101CD0000861FF21F53119480068FEF741FC002931
:101CE00020D1164800687D21C90088420CD300200D
:101CF000124908601248C069401C1149C861114866
:101D00000078C0430F4908700F4810490860002050
:101D10000F49C8600D49086008480068401C074921
:101D2000086004E005480068401C0449086010BDD4
:101D300004000020010000200004004008000020F2
:101D4000F00100200000002051E5CC1A001D0040E9
:101D5000001C0040014600200D4B0A685A61002219
:101D60009A610A79002A02D00422104303E0042376
:101D700002469A4310464A79002A02D002221043B2
:101D800003E0022302469A431046014A106170475D
:101D900000E000E01FB5FEF77DFF0020FFF750FFD9
:101DA00001231A4619461846FFF772FE1948012109
:101DB0008907086018480068072109038843164905
:101DC000086000200906086001216846017341731C
:101DD0001248029002A8FFF7BDFF114800690121D7
:101DE00008430F4908610F480F490860E12080004F
:101DF000009000216846017101214171002181712B
:101E000000F0D4FA0948806840084000401C0749A7
:101E100088601FBD9669AA554000004080BB000045
:101E200000E000E051E5CC1A001D0040001C00401D
:101E300010B501210C4800F05AF8002813D00121F8
:101E4000094800F047F809480068401C0749086045
:101E5000084600680649884205D300200549086005
:101E6000014800F039F810BD002800401C00002097
:101E7000E70300002000002010B5026906239A4302
:101E80000B785B00062423401A4302610269082391
:101E90009A434B78DB00082423401A43026102690D
:101EA00030239A438B781B01302423401A4302616C
:101EB0000269C0239A43CB789B01C02423401A4374
:101EC0000261C268120A12020B795B1EDBB21A436E
:101ED000C26010BD41627047016949084900016153
:101EE0007047016949084900491C01617047024671
:101EF0000020536A0B40002B01D0012000E000209D
:101F00007047002A03D0036A0B43036202E0036AAE
:101F10008B430362704710B5026903231B029A4387
:101F20000B020324240223401A43026110BD0269FC
:101F300001231B049A43D21802610268120C120496
:101F40008BB21A430260026901231B049A430261A7
:101F50007047026B120C12048BB21A430263704773
:101F6000F8B5074612A000F05BFB01281DD1002444
:101F7000002500260DE01148005D7B2801D1681C7A
:101F8000C5B20E48005D7D2801D1701CC6B2601C30
:101F9000C4B2772C03DA0948005D0028EBD1B542C2
:101FA00001D00020F8BD0120FCE70020FAE7000086
:101FB000524543562046524F4D3A00000001002042
:101FC00000B587B0002168460175012181750021A7
:101FD0004175C1750121017605A92520FEF7F1FEA5
:101FE0000021684601750121817541750021417606
:101FF000817605A92420FEF7E4FEE120400203904B
:102000000121684601740021C171017201714171A1
:10201000817101A9124800F003F90021104800F075
:10202000BDF900210E4800F0AFF9012211040C485F
:1020300000F0ECF8012211461720FFF7F7FC0848E2
:1020400000680121090488434018054908600846D2
:10205000006840084000401C0860012007B000BD37
:102060000060004000BF0549C9698904C90F002903
:10207000F9D10249203908707047000040600040E3
:1020800070B50646002012490870124908701249BE
:102090000870002504E0002010494855681CC5B2AE
:1020A000772DF8DB0D4C32460DA12046FEF7E0F807
:1020B00003E02078FFF7D6FF641C20780028F8D1D1
:1020C00000BF084840698006C00F0028F9D170BDE4
:1020D000280000202900002027000020780100208F
:1020E000257300000060004010B5002024490870EE
:1020F00001210904234800F081F800283ED0012185
:102100000904204800F072F8002837D01D4820301C
:1021100004791D48007800280DD0202C2EDB7F2C60
:102120002CDC1A481A490978445419480078401C94
:102130001749087022E0174817490978405CA04207
:1021400019D115480078401C1349087011480978C6
:10215000405C0D280BD00F480F490978405C0A28D5
:1021600005D00C480C490978405C002806D10120B4
:102170000549087002E000200749087010BD000002
:102180002500002000600040270000200001002002
:1021900028000020780100202900002010B50E4AF8
:1021A000002001230D4C237000BF0C4B1B78002B2B
:1021B000FBD100BF0A4B5B699B04DB0F002BF9D1FD
:1021C000084B197804E00023074C63544B1C99B268
:1021D0007729F8DB012010BD003E490025000020D2
:1021E000006000402800002000010020024600207E
:1021F000D3690B40002B00D001207047024600201D
:1022000093690B40002B00D001207047012A03D1B5
:1022100083690B43836102E083698B438361704769
:10222000F0B585B005460C460027207B01280ED16D
:10223000A1680801FEF7A0FB039051480068FEF773
:102240009BFB02900399FEF7A3FA074634E0207B3C
:1022500002280ED1A1684801FEF78EFB0390484882
:102260000068FEF789FB02900399FEF791FA074692
:1022700022E0207B03280ED1A1688801FEF77CFBB9
:1022800003903F480068FEF777FB02900399FEF742
:102290007FFA074610E0207B04280DD1A168C80111
:1022A000FEF76AFB039036480068FEF765FB029074
:1022B0000399FEF76DFA07463846FEF73FFA00220B
:1022C000304B0191009000F037FB02D200202D49E5
:1022D00002E03846FEF732FA03910290FEF7F0F979
:1022E00007468321C905384600F058FB0390FEF7E6
:1022F000FFFA06466868072109028843217B090224
:10230000072212021140084368602E6128680121EB
:1023100049038843217849030122520311400843AD
:10232000286028680F2109028843617809020F227A
:1023300012021140084328602868012109038843DC
:10234000A17809030122120311400843286028687C
:102350000F2109068843E17809060F221206114071
:102360000843286028680121090788432179090763
:102370000122120711400843286005B0F0BD00009B
:10238000100000200000F03F10B5426830239A434F
:102390000B01302423401A43426010BD426892086A
:1023A00092008B079B0F1A434260704770B504463A
:1023B000A079002802D02068450108E07D21C900ED
:1023C00014480068FEF7CCF82168484305461248D7
:1023D0000560806808218843A179C900082211405E
:1023E00008430D49886008468068022188432179A6
:1023F0004900022211400843074988600846806866
:10240000042188436179890004221140084302496C
:10241000886070BD10000020001C004030B474467D
:10242000641E2578641CAB4204D3635D5B00E31833
:1024300030BC18471D46F8E780F3108870473038E5
:102440000A2801D20120704700207047F8B50646DF
:102450000F46144600200090002530E03046FFF77C
:102460000FFEFFF79BFE012824D139461748FEF7DF
:1024700037F800280AD001200090FEF7F3FB7D20FA
:10248000C00000F033F8FEF7E7FB1BE0104800F057
:102490002DF839460D48FEF723F800280AD0012010
:1024A0000090FEF7DFFB7D20C00000F01FF8FEF774
:1024B000D3FB07E0064800F019F8681CC5B2601CA1
:1024C0008542CBDB00BF0098F8BD00000001002072
:1024D00088130000002004E00021034A1154411C2D
:1024E00088B27728F8DB70470001002003490860B4
:1024F00000BF024909680029FBD170470400002091
:102500003EB50446002002900190009001200F4942
:10251000086000200E4908600E48FFF7E2FC0CE05E
:102520001420FEF783FC029001990298884204D09F
:102530000098401C00900298019004480068002810
:10254000EED10098206001203EBD00002000002058
:102550001C000020002800403EB5044600200290E8
:102560000190009001200F49086000200E4908608A
:102570000E48FFF7B6FC0CE01620FEF757FC029061
:1025800001990298884204D00098401C009002985B
:102590000190044800680028EED1009820600120D6
:1025A0003EBD0000200000201C000020002800404C
:1025B00070B5052115A000F04FF80646002E01D198
:1025C00000F09EF80025144C09E02078302803DB49
:1025D0002078392800DC04E0641C681C85B2772D63
:1025E000F3DB00BF207830280FDB207839280CDCA3
:1025F000002505E0207809494855641C681C85B20F
:102600000F2DF7DB00200549C87370BD41542B47DF
:10261000534E0D0A0000000000010020F0010020D0
:1026200010B50446224607A10748FDF721FE002009
:102630000649087006490870064908700870FFF7D7
:10264000ADFD10BD2573000078010020280000209A
:102650002900002027000020F8B506460C46002778
:1026600000250DE03046FFF70BFDFFF797FD012831
:1026700001D1012707E00548FFF738FF681CC5B204
:10268000601C8542EEDB00BF3846F8BD88130000B1
:102690007CB505460C4600200190009001A8FFF78C
:1026A0002FFF6846FFF758FF0198286000982060C8
:1026B00001207CBD8EB000BF00BF00BF342101A847
:1026C000FDF74CFFFFF766FBFFF742F812E0FEF75D
:1026D000D1FF01280BD10848FFF718F90648FFF78A
:1026E000CFFC1A20FFF7BEFC0348FFF739FC034874
:1026F000FFF7FCFEEBE7000000010020B80B000034
:10270000012040061049C86009211048FFF7AEFAC1
:102710000F48FFF7EBFE012040060B4988600D488B
:10272000FFF7E4FE0B48FFF7E1FE0A48FFF7DEFE85
:1027300000BFBFF34F8F08480849C860BFF34F8FF1
:1027400000BF00BFFEE7000000040040F0010020D1
:10275000DC050000881300000400FA0500ED00E02D
:1027600010B50446012040063349C8616420FFF7D4
:10277000BDFE01204006304988603048FFF780FCEC
:102780007D20C000FFF7B2FE2DA0FFF749FF2EA06D
:10279000FFF746FF2D48FFF7A9FE2C48FFF7A6FEDE
:1027A0002A48FFF7A3FE2948FFF7A0FE2748FFF7B6
:1027B0009DFEFEF757FA7D20C000FFF797FEFEF75B
:1027C0004BFA2248FFF792FE2048FFF78FFEFFF7F3
:1027D00081FE1A48FFF754FC7D20C000FFF786FEFB
:1027E0006420FFF783FE0A2219A11A48FFF72EFE84
:1027F0000A2217A118A0FFF729FE0A2214A11A48DD
:10280000FFF724FE022212A118A0FFF71FFE0F48B7
:10281000FFF76CFE1B48FFF769FE1B48FFF730FC13
:102820007D200001FFF762FEFFF7C2FE7D20C000A1
:10283000FFF75CFE10BD0000000400402C000020EB
:1028400043616C6C00000000534D5300881300007E
:102850004F4B00003100002041542B434D47444171
:102860003D360D0A000000006400002041542B4357
:102870004D4744413D2244454C20414C4C220D0AD9
:1028800000000000B80B0000C2000020FF20433011
:1028900002494861C043486370470000000400409B
:1028A0001CB50021684601708170C1700120019043
:1028B0006846417069460D48FFF7DEFA02210B4871
:1028C000FFF729FB00210948FFF731FB08490748BA
:1028D000FFF73FFB012211460448FFF712FB0122DC
:1028E00011460A20FFF7A2F81CBD00000028004096
:1028F00080BB00001CB500216846017081704170EA
:10290000C170017169461920FEF75BFA69461A2009
:10291000FEF757FA69461B20FEF753FA00211920EB
:10292000FEF782FE00211A20FEF77EFE00211B200A
:10293000FEF77AFE1CBD000070B501250C002D05C8
:102940001C4310D4EC4206D4AC420AD4994200D0C5
:1029500070BD904270BDE94217D4EB4215D4994244
:1029600070BD894270BDEC4206D5AC42F9D58B42B0
:1029700000D070BD824270BD6D004C00EC4204D2AC
:102980005C00EC4201D28B4270BD034C30B4FEF7C8
:1029900097F830BC70BD00BF1900160470B5420036
:1029A00064414B005C41120E39D01B0E38D0FF2A17
:1029B0003CD0FF2B3AD040024902400A490A0600A7
:1029C00045184E43000A090AD2184843ED017F3AE0
:1029D0000104731A4019190C4318990F04D00121EE
:1029E0005B0849075B1A521CD80904D3401CF50345
:1029F00001D19D0607D0FF2A08D2D50506D0E407ED
:102A00002043401970BD0125A843F4E7002A01DCEA
:102A1000E00770BD2402FF202043C00570BD1B0EDF
:102A2000FF2A03D0FF2B01D0E00770BDFF26450031
:102A30003606B54206D84D00B54203D8D218FF2A53
:102A400000D0E7E7004870BD0000C07F0400000828
:102A500000000000000000020001000010818283DD
:102A60008485868788898B8C8D8E8F91929395969D
:102A700097999A9C9D9FA0A2A3A5A7A8AAACAEB027
:102A8000B2B3B5B7B9BCBEC0C2C5C7C9CCCED1D42C
:102A9000D7D9DCDFE2E6E9ECF0F3F7FAFE0000005C
:102AA000C02A000000000020000100000401000016
:102AB000C02B00000001002078050000200100006C
:102AC0000000000000000000000000000000000006
:102AD000006CDC02000000000000000000000000AC
:102AE000006A1800010101000000000041540D0AB5
:102AF0000041542B434D47463D300D0A0041542BB5
:102B0000434D474C3D2252454320554E524541448A
:102B1000220D0A0041542B434E4D493D2247534D4F
:102B2000220D0A0041542B434D47463D310D0A000A
:102B300041542B435354543D22434D4E4554220D92
:102B40000A0041542B43494943520D0A0041542B7A
:102B500043494653520D0A0041542B4349505354A4
:102B60004152543D22544350222C223132302E37D0
:102B7000382E36322E3138222C2236303031220D8A
:102B80000A0041542B434950535249503D310D0ADC
:102B90000041542B43495053454E440D0A004154C3
:102BA0002B434950434C4F53450D0A0041542B438E
:102BB0004950534855540D0A000000000000000021
:04000005000000C136
:00000001FF
